{
  "contractName": "AragonFuturesOrderBook",
  "abi": [
    {
      "constant": true,
      "inputs": [],
      "name": "endTime",
      "outputs": [
        {
          "name": "",
          "type": "uint256"
        }
      ],
      "payable": false,
      "stateMutability": "view",
      "type": "function"
    },
    {
      "constant": true,
      "inputs": [
        {
          "name": "",
          "type": "uint256"
        }
      ],
      "name": "globalOrders",
      "outputs": [
        {
          "name": "id",
          "type": "uint256"
        },
        {
          "name": "state",
          "type": "uint8"
        },
        {
          "name": "buyer",
          "type": "address"
        },
        {
          "name": "seller",
          "type": "address"
        },
        {
          "name": "antAmmount",
          "type": "uint256"
        },
        {
          "name": "daiAmmount",
          "type": "uint256"
        },
        {
          "name": "buyerPaid",
          "type": "bool"
        },
        {
          "name": "sellerPaid",
          "type": "bool"
        }
      ],
      "payable": false,
      "stateMutability": "view",
      "type": "function"
    },
    {
      "constant": true,
      "inputs": [],
      "name": "closeTime",
      "outputs": [
        {
          "name": "",
          "type": "uint256"
        }
      ],
      "payable": false,
      "stateMutability": "view",
      "type": "function"
    },
    {
      "constant": true,
      "inputs": [],
      "name": "ANT",
      "outputs": [
        {
          "name": "",
          "type": "address"
        }
      ],
      "payable": false,
      "stateMutability": "view",
      "type": "function"
    },
    {
      "constant": true,
      "inputs": [],
      "name": "startTime",
      "outputs": [
        {
          "name": "",
          "type": "uint256"
        }
      ],
      "payable": false,
      "stateMutability": "view",
      "type": "function"
    },
    {
      "constant": true,
      "inputs": [],
      "name": "DAI",
      "outputs": [
        {
          "name": "",
          "type": "address"
        }
      ],
      "payable": false,
      "stateMutability": "view",
      "type": "function"
    },
    {
      "inputs": [],
      "payable": false,
      "stateMutability": "nonpayable",
      "type": "constructor"
    },
    {
      "anonymous": false,
      "inputs": [
        {
          "indexed": false,
          "name": "id",
          "type": "uint256"
        },
        {
          "indexed": false,
          "name": "maker",
          "type": "address"
        },
        {
          "indexed": false,
          "name": "buyAmmount",
          "type": "uint256"
        },
        {
          "indexed": false,
          "name": "sellAmmount",
          "type": "uint256"
        }
      ],
      "name": "CreateBuyOrder",
      "type": "event"
    },
    {
      "anonymous": false,
      "inputs": [
        {
          "indexed": false,
          "name": "id",
          "type": "uint256"
        },
        {
          "indexed": false,
          "name": "maker",
          "type": "address"
        },
        {
          "indexed": false,
          "name": "buyAmmount",
          "type": "uint256"
        },
        {
          "indexed": false,
          "name": "sellAmmount",
          "type": "uint256"
        }
      ],
      "name": "CreateSellOrder",
      "type": "event"
    },
    {
      "anonymous": false,
      "inputs": [
        {
          "indexed": false,
          "name": "id",
          "type": "uint256"
        },
        {
          "indexed": false,
          "name": "taker",
          "type": "address"
        }
      ],
      "name": "FillBuyOrder",
      "type": "event"
    },
    {
      "anonymous": false,
      "inputs": [
        {
          "indexed": false,
          "name": "id",
          "type": "uint256"
        },
        {
          "indexed": false,
          "name": "taker",
          "type": "address"
        }
      ],
      "name": "FillSellOrder",
      "type": "event"
    },
    {
      "anonymous": false,
      "inputs": [
        {
          "indexed": false,
          "name": "id",
          "type": "uint256"
        },
        {
          "indexed": false,
          "name": "sender",
          "type": "address"
        },
        {
          "indexed": false,
          "name": "reciever",
          "type": "address"
        }
      ],
      "name": "TransferOrder",
      "type": "event"
    },
    {
      "constant": false,
      "inputs": [
        {
          "name": "_buyAmmount",
          "type": "uint256"
        },
        {
          "name": "_rate",
          "type": "uint256"
        }
      ],
      "name": "createBuyOrder",
      "outputs": [],
      "payable": true,
      "stateMutability": "payable",
      "type": "function"
    },
    {
      "constant": false,
      "inputs": [
        {
          "name": "_sellAmmount",
          "type": "uint256"
        },
        {
          "name": "_rate",
          "type": "uint256"
        }
      ],
      "name": "createSellOrder",
      "outputs": [],
      "payable": true,
      "stateMutability": "payable",
      "type": "function"
    },
    {
      "constant": false,
      "inputs": [
        {
          "name": "_orderId",
          "type": "uint256"
        }
      ],
      "name": "fillBuyOrder",
      "outputs": [],
      "payable": true,
      "stateMutability": "payable",
      "type": "function"
    },
    {
      "constant": false,
      "inputs": [
        {
          "name": "_orderId",
          "type": "uint256"
        }
      ],
      "name": "fillSellOrder",
      "outputs": [],
      "payable": true,
      "stateMutability": "payable",
      "type": "function"
    },
    {
      "constant": false,
      "inputs": [
        {
          "name": "_orderId",
          "type": "uint256"
        },
        {
          "name": "_to",
          "type": "address"
        }
      ],
      "name": "transferOrder",
      "outputs": [],
      "payable": false,
      "stateMutability": "nonpayable",
      "type": "function"
    },
    {
      "constant": false,
      "inputs": [
        {
          "name": "_orderId",
          "type": "uint256"
        }
      ],
      "name": "cancelOrder",
      "outputs": [],
      "payable": false,
      "stateMutability": "nonpayable",
      "type": "function"
    },
    {
      "constant": false,
      "inputs": [
        {
          "name": "_orderId",
          "type": "uint256"
        }
      ],
      "name": "settleOrder",
      "outputs": [],
      "payable": true,
      "stateMutability": "payable",
      "type": "function"
    },
    {
      "constant": false,
      "inputs": [
        {
          "name": "_orderId",
          "type": "uint256"
        }
      ],
      "name": "withdrawDeposit",
      "outputs": [],
      "payable": true,
      "stateMutability": "payable",
      "type": "function"
    }
  ],
  "bytecode": "0x608060405234801561001057600080fd5b50730d5263b7969144a852d58505602f630f9b20239d6000806101000a81548173ffffffffffffffffffffffffffffffffffffffff021916908373ffffffffffffffffffffffffffffffffffffffff160217905550730527e400502d0cb4f214dd0d2f2a323fc88ff924600160006101000a81548173ffffffffffffffffffffffffffffffffffffffff021916908373ffffffffffffffffffffffffffffffffffffffff160217905550610e10600481905550610e10600581905550600454600554016006819055506000600381905550613950806100f06000396000f3006080604052600436106100d0576000357c0100000000000000000000000000000000000000000000000000000000900463ffffffff1680631df68102146100d55780632cb4f4b7146100f15780633148efa21461010d5780633197cbb61461013657806333289a461461016157806350a6f76c1461017d578063514fcac7146101c1578063627749e6146101ea57806365595c611461021557806378e97925146102405780638cbcca071461026b578063b50e801d14610287578063c3aea22e146102a3578063e0bab4c4146102bf575b600080fd5b6100ef60048036036100ea919081019061356e565b6102ea565b005b61010b6004803603610106919081019061356e565b6107d6565b005b34801561011957600080fd5b50610134600480360361012f9190810190613532565b610ce8565b005b34801561014257600080fd5b5061014b6111f1565b60405161015891906136e3565b60405180910390f35b61017b600480360361017691908101906134e0565b6111f7565b005b34801561018957600080fd5b506101a4600480360361019f91908101906134e0565b6116e4565b6040516101b89897969594939291906137a3565b60405180910390f35b3480156101cd57600080fd5b506101e860048036036101e391908101906134e0565b611793565b005b3480156101f657600080fd5b506101ff611c28565b60405161020c91906136e3565b60405180910390f35b34801561022157600080fd5b5061022a611c2e565b60405161023791906136a6565b60405180910390f35b34801561024c57600080fd5b50610255611c53565b60405161026291906136e3565b60405180910390f35b610285600480360361028091908101906134e0565b611c59565b005b6102a1600480360361029c91908101906134e0565b6122dd565b005b6102bd60048036036102b891908101906134e0565b612ced565b005b3480156102cb57600080fd5b506102d4613372565b6040516102e191906136a6565b60405180910390f35b60006102f46133e6565b61030860028561339890919063ffffffff16565b806000809054906101000a900473ffffffffffffffffffffffffffffffffffffffff1673ffffffffffffffffffffffffffffffffffffffff166370a08231336040518263ffffffff167c010000000000000000000000000000000000000000000000000000000002815260040161037f919061362b565b602060405180830381600087803b15801561039957600080fd5b505af11580156103ad573d6000803e3d6000fd5b505050506040513d601f19601f820116820180604052506103d19190810190613509565b116040805190810160405280601281526020017f494e53554646494349454e545f46554e4453000000000000000000000000000081525090151561044b576040517f08c379a000000000000000000000000000000000000000000000000000000000815260040161044291906136c1565b60405180910390fd5b5060055442106040805190810160405280601381526020017f54524144494e475f4841535f53544f50504544000000000000000000000000008152509015156104ca576040517f08c379a00000000000000000000000000000000000000000000000000000000081526004016104c191906136c1565b60405180910390fd5b506104df60028661339890919063ffffffff16565b92506000809054906101000a900473ffffffffffffffffffffffffffffffffffffffff1673ffffffffffffffffffffffffffffffffffffffff166323b872dd3330866040518463ffffffff167c010000000000000000000000000000000000000000000000000000000002815260040161055b93929190613646565b602060405180830381600087803b15801561057557600080fd5b505af1158015610589573d6000803e3d6000fd5b505050506040513d601f19601f820116820180604052506105ad91908101906134b7565b50610100604051908101604052806003548152602001600060048111156105d057fe5b8152602001600073ffffffffffffffffffffffffffffffffffffffff1681526020013373ffffffffffffffffffffffffffffffffffffffff16815260200186815260200161062786886133ae90919063ffffffff16565b8152602001600015158152602001600015158152509150816002600060035481526020019081526020016000206000820151816000015560208201518160010160006101000a81548160ff0219169083600481111561068257fe5b021790555060408201518160010160016101000a81548173ffffffffffffffffffffffffffffffffffffffff021916908373ffffffffffffffffffffffffffffffffffffffff16021790555060608201518160020160006101000a81548173ffffffffffffffffffffffffffffffffffffffff021916908373ffffffffffffffffffffffffffffffffffffffff1602179055506080820151816003015560a0820151816004015560c08201518160050160006101000a81548160ff02191690831515021790555060e08201518160050160016101000a81548160ff0219169083151502179055509050507f080493e207b9f00f98a17e07dddc2ea02575db77c2769f8ef3160198b10a6910600354336107a487896133ae90919063ffffffff16565b886040516107b5949392919061375e565b60405180910390a16003600081548092919060010191905055505050505050565b60006107e06133e6565b61080660026107f885876133ae90919063ffffffff16565b61339890919063ffffffff16565b80600160009054906101000a900473ffffffffffffffffffffffffffffffffffffffff1673ffffffffffffffffffffffffffffffffffffffff166370a08231336040518263ffffffff167c010000000000000000000000000000000000000000000000000000000002815260040161087e919061362b565b602060405180830381600087803b15801561089857600080fd5b505af11580156108ac573d6000803e3d6000fd5b505050506040513d601f19601f820116820180604052506108d09190810190613509565b116040805190810160405280601281526020017f494e53554646494349454e545f46554e4453000000000000000000000000000081525090151561094a576040517f08c379a000000000000000000000000000000000000000000000000000000000815260040161094191906136c1565b60405180910390fd5b5060055442106040805190810160405280601381526020017f54524144494e475f4841535f53544f50504544000000000000000000000000008152509015156109c9576040517f08c379a00000000000000000000000000000000000000000000000000000000081526004016109c091906136c1565b60405180910390fd5b506109f060026109e286886133ae90919063ffffffff16565b61339890919063ffffffff16565b9250600160009054906101000a900473ffffffffffffffffffffffffffffffffffffffff1673ffffffffffffffffffffffffffffffffffffffff166323b872dd3330866040518463ffffffff167c0100000000000000000000000000000000000000000000000000000000028152600401610a6d93929190613646565b602060405180830381600087803b158015610a8757600080fd5b505af1158015610a9b573d6000803e3d6000fd5b505050506040513d601f19601f82011682018060405250610abf91908101906134b7565b5061010060405190810160405280600354815260200160006004811115610ae257fe5b81526020013373ffffffffffffffffffffffffffffffffffffffff168152602001600073ffffffffffffffffffffffffffffffffffffffff168152602001868152602001610b3986886133ae90919063ffffffff16565b8152602001600015158152602001600015158152509150816002600060035481526020019081526020016000206000820151816000015560208201518160010160006101000a81548160ff02191690836004811115610b9457fe5b021790555060408201518160010160016101000a81548173ffffffffffffffffffffffffffffffffffffffff021916908373ffffffffffffffffffffffffffffffffffffffff16021790555060608201518160020160006101000a81548173ffffffffffffffffffffffffffffffffffffffff021916908373ffffffffffffffffffffffffffffffffffffffff1602179055506080820151816003015560a0820151816004015560c08201518160050160006101000a81548160ff02191690831515021790555060e08201518160050160016101000a81548160ff0219169083151502179055509050507f433a6c2830691d992b1fd7b102b891cdfde60a14d8d08e9fd62fa62ef427c0db6003543387610cb7888a6133ae90919063ffffffff16565b604051610cc7949392919061375e565b60405180910390a16003600081548092919060010191905055505050505050565b8160006004811115610cf657fe5b6002600083815260200190815260200160002060010160009054906101000a900460ff166004811115610d2557fe5b148015610d33575060055442115b15610df85760046002600083815260200190815260200160002060010160006101000a81548160ff02191690836004811115610d6b57fe5b02179055503073ffffffffffffffffffffffffffffffffffffffff1663514fcac7826040518263ffffffff167c0100000000000000000000000000000000000000000000000000000000028152600401610dc591906136e3565b600060405180830381600087803b158015610ddf57600080fd5b505af1158015610df3573d6000803e3d6000fd5b505050505b60016004811115610e0557fe5b6002600083815260200190815260200160002060010160009054906101000a900460ff166004811115610e3457fe5b148015610e42575060055442115b8015610e4f575060065442105b15610e8c57600280600083815260200190815260200160002060010160006101000a81548160ff02191690836004811115610e8657fe5b02179055505b60026004811115610e9957fe5b6002600083815260200190815260200160002060010160009054906101000a900460ff166004811115610ec857fe5b148015610ed6575060065442115b15610f145760036002600083815260200190815260200160002060010160006101000a81548160ff02191690836004811115610f0e57fe5b02179055505b826001806004811115610f2357fe5b6002600084815260200190815260200160002060010160009054906101000a900460ff166004811115610f5257fe5b14606060405190810160405280602781526020017f43414e4e4f545f43414c4c5f544849535f46554e4354494f4e5f494e5f54484981526020017f535f535441544500000000000000000000000000000000000000000000000000815250901515610ff3576040517f08c379a0000000000000000000000000000000000000000000000000000000008152600401610fea91906136c1565b60405180910390fd5b503373ffffffffffffffffffffffffffffffffffffffff166002600087815260200190815260200160002060010160019054906101000a900473ffffffffffffffffffffffffffffffffffffffff1673ffffffffffffffffffffffffffffffffffffffff1614156110ef57836002600087815260200190815260200160002060010160016101000a81548173ffffffffffffffffffffffffffffffffffffffff021916908373ffffffffffffffffffffffffffffffffffffffff1602179055507f0cf95533872253e3fcc1823591acb96078ce5d99ca1cf935c4142d43c298dee48533866040516110e693929190613727565b60405180910390a15b3373ffffffffffffffffffffffffffffffffffffffff166002600087815260200190815260200160002060020160009054906101000a900473ffffffffffffffffffffffffffffffffffffffff1673ffffffffffffffffffffffffffffffffffffffff1614156111ea57836002600087815260200190815260200160002060020160006101000a81548173ffffffffffffffffffffffffffffffffffffffff021916908373ffffffffffffffffffffffffffffffffffffffff1602179055507f0cf95533872253e3fcc1823591acb96078ce5d99ca1cf935c4142d43c298dee48533866040516111e193929190613727565b60405180910390a15b5050505050565b60055481565b80600480600481111561120657fe5b6002600084815260200190815260200160002060010160009054906101000a900460ff16600481111561123557fe5b14606060405190810160405280602781526020017f43414e4e4f545f43414c4c5f544849535f46554e4354494f4e5f494e5f54484981526020017f535f5354415445000000000000000000000000000000000000000000000000008152509015156112d6576040517f08c379a00000000000000000000000000000000000000000000000000000000081526004016112cd91906136c1565b60405180910390fd5b503373ffffffffffffffffffffffffffffffffffffffff166002600085815260200190815260200160002060010160019054906101000a900473ffffffffffffffffffffffffffffffffffffffff1673ffffffffffffffffffffffffffffffffffffffff1614806113a857503373ffffffffffffffffffffffffffffffffffffffff166002600085815260200190815260200160002060010160019054906101000a900473ffffffffffffffffffffffffffffffffffffffff1673ffffffffffffffffffffffffffffffffffffffff16145b6040805190810160405280601881526020017f594f555f444f5f4e4f545f4f574e5f5448455f4f524445520000000000000000815250901515611421576040517f08c379a000000000000000000000000000000000000000000000000000000000815260040161141891906136c1565b60405180910390fd5b506002600084815260200190815260200160002060010160019054906101000a900473ffffffffffffffffffffffffffffffffffffffff1673ffffffffffffffffffffffffffffffffffffffff163373ffffffffffffffffffffffffffffffffffffffff16141561158157600160009054906101000a900473ffffffffffffffffffffffffffffffffffffffff1673ffffffffffffffffffffffffffffffffffffffff1663a9059cbb336114f460028060008981526020019081526020016000206004015461339890919063ffffffff16565b6040518363ffffffff167c010000000000000000000000000000000000000000000000000000000002815260040161152d92919061367d565b602060405180830381600087803b15801561154757600080fd5b505af115801561155b573d6000803e3d6000fd5b505050506040513d601f19601f8201168201806040525061157f91908101906134b7565b505b6002600084815260200190815260200160002060020160009054906101000a900473ffffffffffffffffffffffffffffffffffffffff1673ffffffffffffffffffffffffffffffffffffffff163373ffffffffffffffffffffffffffffffffffffffff1614156116df576000809054906101000a900473ffffffffffffffffffffffffffffffffffffffff1673ffffffffffffffffffffffffffffffffffffffff1663a9059cbb3361165260028060008981526020019081526020016000206004015461339890919063ffffffff16565b6040518363ffffffff167c010000000000000000000000000000000000000000000000000000000002815260040161168b92919061367d565b602060405180830381600087803b1580156116a557600080fd5b505af11580156116b9573d6000803e3d6000fd5b505050506040513d601f19601f820116820180604052506116dd91908101906134b7565b505b505050565b60026020528060005260406000206000915090508060000154908060010160009054906101000a900460ff16908060010160019054906101000a900473ffffffffffffffffffffffffffffffffffffffff16908060020160009054906101000a900473ffffffffffffffffffffffffffffffffffffffff16908060030154908060040154908060050160009054906101000a900460ff16908060050160019054906101000a900460ff16905088565b80600060048111156117a157fe5b6002600083815260200190815260200160002060010160009054906101000a900460ff1660048111156117d057fe5b1480156117de575060055442115b156118a35760046002600083815260200190815260200160002060010160006101000a81548160ff0219169083600481111561181657fe5b02179055503073ffffffffffffffffffffffffffffffffffffffff1663514fcac7826040518263ffffffff167c010000000000000000000000000000000000000000000000000000000002815260040161187091906136e3565b600060405180830381600087803b15801561188a57600080fd5b505af115801561189e573d6000803e3d6000fd5b505050505b600160048111156118b057fe5b6002600083815260200190815260200160002060010160009054906101000a900460ff1660048111156118df57fe5b1480156118ed575060055442115b80156118fa575060065442105b1561193757600280600083815260200190815260200160002060010160006101000a81548160ff0219169083600481111561193157fe5b02179055505b6002600481111561194457fe5b6002600083815260200190815260200160002060010160009054906101000a900460ff16600481111561197357fe5b148015611981575060065442115b156119bf5760036002600083815260200190815260200160002060010160006101000a81548160ff021916908360048111156119b957fe5b02179055505b8160008060048111156119ce57fe5b6002600084815260200190815260200160002060010160009054906101000a900460ff1660048111156119fd57fe5b14606060405190810160405280602781526020017f43414e4e4f545f43414c4c5f544849535f46554e4354494f4e5f494e5f54484981526020017f535f535441544500000000000000000000000000000000000000000000000000815250901515611a9e576040517f08c379a0000000000000000000000000000000000000000000000000000000008152600401611a9591906136c1565b60405180910390fd5b503373ffffffffffffffffffffffffffffffffffffffff166002600086815260200190815260200160002060010160019054906101000a900473ffffffffffffffffffffffffffffffffffffffff1673ffffffffffffffffffffffffffffffffffffffff161480611b7057503373ffffffffffffffffffffffffffffffffffffffff166002600086815260200190815260200160002060010160019054906101000a900473ffffffffffffffffffffffffffffffffffffffff1673ffffffffffffffffffffffffffffffffffffffff16145b6040805190810160405280601881526020017f594f555f444f5f4e4f545f4f574e5f5448455f4f524445520000000000000000815250901515611be9576040517f08c379a0000000000000000000000000000000000000000000000000000000008152600401611be091906136c1565b60405180910390fd5b5060046002600086815260200190815260200160002060010160006101000a81548160ff02191690836004811115611c1d57fe5b021790555050505050565b60065481565b6000809054906101000a900473ffffffffffffffffffffffffffffffffffffffff1681565b60045481565b60008160006004811115611c6957fe5b6002600083815260200190815260200160002060010160009054906101000a900460ff166004811115611c9857fe5b148015611ca6575060055442115b15611d6b5760046002600083815260200190815260200160002060010160006101000a81548160ff02191690836004811115611cde57fe5b02179055503073ffffffffffffffffffffffffffffffffffffffff1663514fcac7826040518263ffffffff167c0100000000000000000000000000000000000000000000000000000000028152600401611d3891906136e3565b600060405180830381600087803b158015611d5257600080fd5b505af1158015611d66573d6000803e3d6000fd5b505050505b60016004811115611d7857fe5b6002600083815260200190815260200160002060010160009054906101000a900460ff166004811115611da757fe5b148015611db5575060055442115b8015611dc2575060065442105b15611dff57600280600083815260200190815260200160002060010160006101000a81548160ff02191690836004811115611df957fe5b02179055505b60026004811115611e0c57fe5b6002600083815260200190815260200160002060010160009054906101000a900460ff166004811115611e3b57fe5b148015611e49575060065442115b15611e875760036002600083815260200190815260200160002060010160006101000a81548160ff02191690836004811115611e8157fe5b02179055505b826000806004811115611e9657fe5b6002600084815260200190815260200160002060010160009054906101000a900460ff166004811115611ec557fe5b14606060405190810160405280602781526020017f43414e4e4f545f43414c4c5f544849535f46554e4354494f4e5f494e5f54484981526020017f535f535441544500000000000000000000000000000000000000000000000000815250901515611f66576040517f08c379a0000000000000000000000000000000000000000000000000000000008152600401611f5d91906136c1565b60405180910390fd5b508460006002600083815260200190815260200160002060010160009054906101000a900460ff1690506001816004811115611f9e57fe5b016004811115611faa57fe5b6002600084815260200190815260200160002060010160006101000a81548160ff02191690836004811115611fdb57fe5b021790555061200960028060008a81526020019081526020016000206003015461339890919063ffffffff16565b806000809054906101000a900473ffffffffffffffffffffffffffffffffffffffff1673ffffffffffffffffffffffffffffffffffffffff166370a08231336040518263ffffffff167c0100000000000000000000000000000000000000000000000000000000028152600401612080919061362b565b602060405180830381600087803b15801561209a57600080fd5b505af11580156120ae573d6000803e3d6000fd5b505050506040513d601f19601f820116820180604052506120d29190810190613509565b116040805190810160405280601281526020017f494e53554646494349454e545f46554e4453000000000000000000000000000081525090151561214c576040517f08c379a000000000000000000000000000000000000000000000000000000000815260040161214391906136c1565b60405180910390fd5b5061217660028060008b81526020019081526020016000206003015461339890919063ffffffff16565b96506000809054906101000a900473ffffffffffffffffffffffffffffffffffffffff1673ffffffffffffffffffffffffffffffffffffffff166323b872dd33308a6040518463ffffffff167c01000000000000000000000000000000000000000000000000000000000281526004016121f293929190613646565b602060405180830381600087803b15801561220c57600080fd5b505af1158015612220573d6000803e3d6000fd5b505050506040513d601f19601f8201168201806040525061224491908101906134b7565b5033600260008a815260200190815260200160002060020160006101000a81548173ffffffffffffffffffffffffffffffffffffffff021916908373ffffffffffffffffffffffffffffffffffffffff1602179055507f37812618b8ac54bf622cc187d6fafed977419c6c886c8f900e78bcfa0573b3da88336040516122cb9291906136fe565b60405180910390a15050505050505050565b60008082600060048111156122ee57fe5b6002600083815260200190815260200160002060010160009054906101000a900460ff16600481111561231d57fe5b14801561232b575060055442115b156123f05760046002600083815260200190815260200160002060010160006101000a81548160ff0219169083600481111561236357fe5b02179055503073ffffffffffffffffffffffffffffffffffffffff1663514fcac7826040518263ffffffff167c01000000000000000000000000000000000000000000000000000000000281526004016123bd91906136e3565b600060405180830381600087803b1580156123d757600080fd5b505af11580156123eb573d6000803e3d6000fd5b505050505b600160048111156123fd57fe5b6002600083815260200190815260200160002060010160009054906101000a900460ff16600481111561242c57fe5b14801561243a575060055442115b8015612447575060065442105b1561248457600280600083815260200190815260200160002060010160006101000a81548160ff0219169083600481111561247e57fe5b02179055505b6002600481111561249157fe5b6002600083815260200190815260200160002060010160009054906101000a900460ff1660048111156124c057fe5b1480156124ce575060065442115b1561250c5760036002600083815260200190815260200160002060010160006101000a81548160ff0219169083600481111561250657fe5b02179055505b83600280600481111561251b57fe5b6002600084815260200190815260200160002060010160009054906101000a900460ff16600481111561254a57fe5b14606060405190810160405280602781526020017f43414e4e4f545f43414c4c5f544849535f46554e4354494f4e5f494e5f54484981526020017f535f5354415445000000000000000000000000000000000000000000000000008152509015156125eb576040517f08c379a00000000000000000000000000000000000000000000000000000000081526004016125e291906136c1565b60405180910390fd5b503373ffffffffffffffffffffffffffffffffffffffff166002600088815260200190815260200160002060010160019054906101000a900473ffffffffffffffffffffffffffffffffffffffff1673ffffffffffffffffffffffffffffffffffffffff1614806126bd57503373ffffffffffffffffffffffffffffffffffffffff166002600088815260200190815260200160002060010160019054906101000a900473ffffffffffffffffffffffffffffffffffffffff1673ffffffffffffffffffffffffffffffffffffffff16145b6040805190810160405280601881526020017f594f555f444f5f4e4f545f4f574e5f5448455f4f524445520000000000000000815250901515612736576040517f08c379a000000000000000000000000000000000000000000000000000000000815260040161272d91906136c1565b60405180910390fd5b503373ffffffffffffffffffffffffffffffffffffffff166002600088815260200190815260200160002060010160019054906101000a900473ffffffffffffffffffffffffffffffffffffffff1673ffffffffffffffffffffffffffffffffffffffff161415612a0f576127ca60028060008981526020019081526020016000206004015461339890919063ffffffff16565b945084600160009054906101000a900473ffffffffffffffffffffffffffffffffffffffff1673ffffffffffffffffffffffffffffffffffffffff166370a08231336040518263ffffffff167c0100000000000000000000000000000000000000000000000000000000028152600401612844919061362b565b602060405180830381600087803b15801561285e57600080fd5b505af1158015612872573d6000803e3d6000fd5b505050506040513d601f19601f820116820180604052506128969190810190613509565b116040805190810160405280601281526020017f494e53554646494349454e545f46554e44530000000000000000000000000000815250901515612910576040517f08c379a000000000000000000000000000000000000000000000000000000000815260040161290791906136c1565b60405180910390fd5b50600160009054906101000a900473ffffffffffffffffffffffffffffffffffffffff1673ffffffffffffffffffffffffffffffffffffffff166323b872dd3330886040518463ffffffff167c010000000000000000000000000000000000000000000000000000000002815260040161298c93929190613646565b602060405180830381600087803b1580156129a657600080fd5b505af11580156129ba573d6000803e3d6000fd5b505050506040513d601f19601f820116820180604052506129de91908101906134b7565b5060016002600088815260200190815260200160002060050160006101000a81548160ff0219169083151502179055505b3373ffffffffffffffffffffffffffffffffffffffff166002600088815260200190815260200160002060020160009054906101000a900473ffffffffffffffffffffffffffffffffffffffff1673ffffffffffffffffffffffffffffffffffffffff161415612ce557612aa260028060008981526020019081526020016000206003015461339890919063ffffffff16565b9350836000809054906101000a900473ffffffffffffffffffffffffffffffffffffffff1673ffffffffffffffffffffffffffffffffffffffff166370a08231336040518263ffffffff167c0100000000000000000000000000000000000000000000000000000000028152600401612b1b919061362b565b602060405180830381600087803b158015612b3557600080fd5b505af1158015612b49573d6000803e3d6000fd5b505050506040513d601f19601f82011682018060405250612b6d9190810190613509565b116040805190810160405280601281526020017f494e53554646494349454e545f46554e44530000000000000000000000000000815250901515612be7576040517f08c379a0000000000000000000000000000000000000000000000000000000008152600401612bde91906136c1565b60405180910390fd5b506000809054906101000a900473ffffffffffffffffffffffffffffffffffffffff1673ffffffffffffffffffffffffffffffffffffffff166323b872dd3330876040518463ffffffff167c0100000000000000000000000000000000000000000000000000000000028152600401612c6293929190613646565b602060405180830381600087803b158015612c7c57600080fd5b505af1158015612c90573d6000803e3d6000fd5b505050506040513d601f19601f82011682018060405250612cb491908101906134b7565b5060016002600088815260200190815260200160002060050160016101000a81548160ff0219169083151502179055505b505050505050565b60008160006004811115612cfd57fe5b6002600083815260200190815260200160002060010160009054906101000a900460ff166004811115612d2c57fe5b148015612d3a575060055442115b15612dff5760046002600083815260200190815260200160002060010160006101000a81548160ff02191690836004811115612d7257fe5b02179055503073ffffffffffffffffffffffffffffffffffffffff1663514fcac7826040518263ffffffff167c0100000000000000000000000000000000000000000000000000000000028152600401612dcc91906136e3565b600060405180830381600087803b158015612de657600080fd5b505af1158015612dfa573d6000803e3d6000fd5b505050505b60016004811115612e0c57fe5b6002600083815260200190815260200160002060010160009054906101000a900460ff166004811115612e3b57fe5b148015612e49575060055442115b8015612e56575060065442105b15612e9357600280600083815260200190815260200160002060010160006101000a81548160ff02191690836004811115612e8d57fe5b02179055505b60026004811115612ea057fe5b6002600083815260200190815260200160002060010160009054906101000a900460ff166004811115612ecf57fe5b148015612edd575060065442115b15612f1b5760036002600083815260200190815260200160002060010160006101000a81548160ff02191690836004811115612f1557fe5b02179055505b826000806004811115612f2a57fe5b6002600084815260200190815260200160002060010160009054906101000a900460ff166004811115612f5957fe5b14606060405190810160405280602781526020017f43414e4e4f545f43414c4c5f544849535f46554e4354494f4e5f494e5f54484981526020017f535f535441544500000000000000000000000000000000000000000000000000815250901515612ffa576040517f08c379a0000000000000000000000000000000000000000000000000000000008152600401612ff191906136c1565b60405180910390fd5b508460006002600083815260200190815260200160002060010160009054906101000a900460ff169050600181600481111561303257fe5b01600481111561303e57fe5b6002600084815260200190815260200160002060010160006101000a81548160ff0219169083600481111561306f57fe5b021790555061309d60028060008a81526020019081526020016000206004015461339890919063ffffffff16565b806000809054906101000a900473ffffffffffffffffffffffffffffffffffffffff1673ffffffffffffffffffffffffffffffffffffffff166370a08231336040518263ffffffff167c0100000000000000000000000000000000000000000000000000000000028152600401613114919061362b565b602060405180830381600087803b15801561312e57600080fd5b505af1158015613142573d6000803e3d6000fd5b505050506040513d601f19601f820116820180604052506131669190810190613509565b116040805190810160405280601281526020017f494e53554646494349454e545f46554e445300000000000000000000000000008152509015156131e0576040517f08c379a00000000000000000000000000000000000000000000000000000000081526004016131d791906136c1565b60405180910390fd5b5061320a60028060008b81526020019081526020016000206004015461339890919063ffffffff16565b9650600160009054906101000a900473ffffffffffffffffffffffffffffffffffffffff1673ffffffffffffffffffffffffffffffffffffffff166323b872dd33308a6040518463ffffffff167c010000000000000000000000000000000000000000000000000000000002815260040161328793929190613646565b602060405180830381600087803b1580156132a157600080fd5b505af11580156132b5573d6000803e3d6000fd5b505050506040513d601f19601f820116820180604052506132d991908101906134b7565b5033600260008a815260200190815260200160002060020160006101000a81548173ffffffffffffffffffffffffffffffffffffffff021916908373ffffffffffffffffffffffffffffffffffffffff1602179055507fcbe49e0c6f1880113d4682989f006c7a95d41c91ab2c1a0096fba8e8b78c815688336040516133609291906136fe565b60405180910390a15050505050505050565b600160009054906101000a900473ffffffffffffffffffffffffffffffffffffffff1681565b600081838115156133a557fe5b04905092915050565b6000808314156133c157600090506133e0565b81830290508183828115156133d257fe5b041415156133dc57fe5b8090505b92915050565b61010060405190810160405280600081526020016000600481111561340757fe5b8152602001600073ffffffffffffffffffffffffffffffffffffffff168152602001600073ffffffffffffffffffffffffffffffffffffffff16815260200160008152602001600081526020016000151581526020016000151581525090565b60006134738235613878565b905092915050565b60006134878251613898565b905092915050565b600061349b82356138a4565b905092915050565b60006134af82516138a4565b905092915050565b6000602082840312156134c957600080fd5b60006134d78482850161347b565b91505092915050565b6000602082840312156134f257600080fd5b60006135008482850161348f565b91505092915050565b60006020828403121561351b57600080fd5b6000613529848285016134a3565b91505092915050565b6000806040838503121561354557600080fd5b60006135538582860161348f565b925050602061356485828601613467565b9150509250929050565b6000806040838503121561358157600080fd5b600061358f8582860161348f565b92505060206135a08582860161348f565b9150509250929050565b6135b38161382c565b82525050565b6135c28161384c565b82525050565b6135d1816138ae565b82525050565b6135e0816138c0565b82525050565b60006135f182613821565b8084526136058160208601602086016138d2565b61360e81613905565b602085010191505092915050565b6136258161386e565b82525050565b600060208201905061364060008301846135aa565b92915050565b600060608201905061365b60008301866135aa565b61366860208301856135aa565b613675604083018461361c565b949350505050565b600060408201905061369260008301856135aa565b61369f602083018461361c565b9392505050565b60006020820190506136bb60008301846135c8565b92915050565b600060208201905081810360008301526136db81846135e6565b905092915050565b60006020820190506136f8600083018461361c565b92915050565b6000604082019050613713600083018561361c565b61372060208301846135aa565b9392505050565b600060608201905061373c600083018661361c565b61374960208301856135aa565b61375660408301846135aa565b949350505050565b6000608082019050613773600083018761361c565b61378060208301866135aa565b61378d604083018561361c565b61379a606083018461361c565b95945050505050565b6000610100820190506137b9600083018b61361c565b6137c6602083018a6135d7565b6137d360408301896135aa565b6137e060608301886135aa565b6137ed608083018761361c565b6137fa60a083018661361c565b61380760c08301856135b9565b61381460e08301846135b9565b9998505050505050505050565b600081519050919050565b600073ffffffffffffffffffffffffffffffffffffffff82169050919050565b60008115159050919050565b600060058210151561386657fe5b819050919050565b6000819050919050565b600073ffffffffffffffffffffffffffffffffffffffff82169050919050565b60008115159050919050565b6000819050919050565b60006138b98261382c565b9050919050565b60006138cb82613858565b9050919050565b60005b838110156138f05780820151818401526020810190506138d5565b838111156138ff576000848401525b50505050565b6000601f19601f83011690509190505600a265627a7a723058207bef53cf34456552b2c525646520f13c50f9e15e956d6d28d8ddf2b3ef7effed6c6578706572696d656e74616cf50037",
  "source": "pragma solidity ^0.4.24 - 0.7.0;\npragma experimental ABIEncoderV2;\n\nimport \"../node_modules/zeppelin-solidity/contracts/math/SafeMath.sol\";\nimport \"../node_modules/zeppelin-solidity/contracts/token/ERC20/ERC20.sol\";\nimport \"../node_modules/zeppelin-solidity/contracts/token/ERC20/SafeERC20.sol\";\n\ncontract AragonFuturesOrderBook {\n  using SafeMath for uint256;\n  using SafeERC20 for ERC20;\n\n  string private constant ERROR_ORDER_DOSE_NOT_EXIST = \"ORDER_DOSE_NOT_EXIST\";\n  string private constant ERROR_INSUFFICIENT_FUNDS = \"INSUFFICIENT_FUNDS\";\n  string private constant ERROR_CANNOT_CALL_THIS_FUNCTION_IN_THIS_STATE = \"CANNOT_CALL_THIS_FUNCTION_IN_THIS_STATE\";\n  string private constant ERROR_TRADING_HAS_STOPPED = \"TRADING_HAS_STOPPED\";\n  string private constant ERROR_YOU_DO_NOT_OWN_THE_ORDER = \"YOU_DO_NOT_OWN_THE_ORDER\";\n  string private constant ERROR_YOU_DEFAULTED = \"YOU_DEFAULTED\";\n\n  enum State {\n      OPEN,       // order is on the order book, with deposit paid, waiting to be filled\n      FILLED,     // order has filled, buyer and seller has paid deposit\n      SETTLEMENT, // order is waiting for both parties to pay the remaining balance\n      CLOSED,     // parties can withdraw there purchaces or deposits if both fail to pay remaning balance\n      CANCELED    // open order has been withdrawn from the order book\n  }\n  \n  struct Order {\n    uint id;\n    State state;\n    address buyer;\n    address seller;\n    uint antAmmount;\n    uint daiAmmount;\n    bool buyerPaid;\n    bool sellerPaid;\n  }\n\n  ERC20 public ANT;\n  ERC20 public DAI;\n\n\n  mapping (uint => Order) public globalOrders;      // all orders of this exchange in this time period\n\n  uint private nextOrderId;\n  uint public startTime;  // the time when trading starts\n  uint public endTime;    // the time when trading stops\n  uint public closeTime;  // the time buyers and sellers must fulfill their obligation by\n\n\n  event CreateBuyOrder(uint id, address maker, uint buyAmmount, uint sellAmmount);\n  event CreateSellOrder(uint id, address maker, uint buyAmmount, uint sellAmmount);\n  event FillBuyOrder(uint id, address taker);\n  event FillSellOrder(uint id, address taker);\n  event TransferOrder(uint id, address sender, address reciever);\n\n  constructor () public {\n\tANT = ERC20(0x0D5263B7969144a852D58505602f630f9b20239D); // rinkeby\n\tDAI = ERC20(0x0527E400502d0CB4f214dd0D2F2a323fc88Ff924); // rinkeby\n    startTime = 3600;\n    endTime = 3600;\n    closeTime = endTime + startTime;\n    nextOrderId = 0;\n\n  }\n\n  /*\n  *  user can create a buy order. he specifies how much ANT he wants to buy and the rate in DAI.\n  *  50% of this deposited as collatoral. the order is added to the global buyOrders list.\n  *  \n  */\n  function createBuyOrder(uint _buyAmmount, uint _rate) external payable hasEnoughDAI(_buyAmmount.mul(_rate).div(2)) {\n    require(now < endTime, ERROR_TRADING_HAS_STOPPED);\n\n    uint deposit = _buyAmmount.mul(_rate).div(2);\n    DAI.transferFrom(msg.sender, address(this), deposit);\n\n    Order memory newOrder = Order({\n        id:nextOrderId, \n        state: State.OPEN, \n        buyer: msg.sender, \n        seller: 0x0000000000000000000000000000000000000000, \n        antAmmount: _buyAmmount, \n        daiAmmount: _buyAmmount.mul(_rate),\n        buyerPaid: false,\n        sellerPaid: false\n    });\n\n    globalOrders[nextOrderId] = newOrder;\n    emit CreateBuyOrder(nextOrderId, msg.sender, _buyAmmount, _buyAmmount.mul(_rate));\n    nextOrderId++;\n  }\n\n\n  /*\n  *  user can create a sell order. he specifies how much ANT he wants to buy and the rate in DAI.\n  *  50% of this deposited as collatoral. the order is added to the global buyOrders list.\n  *  \n  */\n  function createSellOrder(uint _sellAmmount, uint _rate) external payable hasEnoughANT(_sellAmmount.div(2)) {\n    require(now < endTime, ERROR_TRADING_HAS_STOPPED);\n\n    uint deposit = _sellAmmount.div(2);\n    ANT.transferFrom(msg.sender, address(this), deposit);\n    \n    Order memory newOrder = Order({\n        id: nextOrderId, \n        state: State.OPEN, \n        buyer: 0x0000000000000000000000000000000000000000, \n        seller: msg.sender, \n        antAmmount: _sellAmmount, \n        daiAmmount: _sellAmmount.mul(_rate),\n        buyerPaid: false,\n        sellerPaid: false\n    });\n\n    globalOrders[nextOrderId] = newOrder;\n    emit CreateSellOrder(nextOrderId, msg.sender, _sellAmmount.mul(_rate), _sellAmmount);\n    nextOrderId++;\n  }\n\n  /*\n  *\n  */\n  function fillBuyOrder\n    (uint _orderId) \n    external \n    payable\n    timedTransition(_orderId)\n    atState(_orderId, State.OPEN)\n    transitionState(_orderId)\n    hasEnoughANT(globalOrders[_orderId].antAmmount.div(2))\n  {\n      uint deposit = globalOrders[_orderId].antAmmount.div(2);\n      ANT.transferFrom(msg.sender, address(this), deposit);\n\n      globalOrders[_orderId].seller = msg.sender;\n      emit FillBuyOrder(_orderId, msg.sender);\n  }\n\n  /*\n  *\n  */\n  function fillSellOrder\n    (uint _orderId)\n    external \n    payable\n    timedTransition(_orderId)\n    atState(_orderId, State.OPEN)\n    transitionState(_orderId)\n    hasEnoughANT(globalOrders[_orderId].daiAmmount.div(2))\n  {\n    uint deposit = globalOrders[_orderId].daiAmmount.div(2);\n    DAI.transferFrom(msg.sender, address(this), deposit);\n\n    globalOrders[_orderId].seller = msg.sender; \n    emit FillSellOrder(_orderId, msg.sender);\n  }\n  \n  \n  /*\n  *\n  */\n  function transferOrder(\n    uint _orderId,\n    address _to) \n    external \n    timedTransition(_orderId) \n    atState(_orderId, State.FILLED)\n    {\n      if (globalOrders[_orderId].buyer == msg.sender){\n        globalOrders[_orderId].buyer = _to;\n        emit TransferOrder(_orderId, msg.sender, _to);\n      }\n    \n      if (globalOrders[_orderId].seller == msg.sender){\n        globalOrders[_orderId].seller = _to;\n        emit TransferOrder(_orderId, msg.sender, _to);\n      }\n  }\n\n  /*\n  *\n  */\n  function cancelOrder(uint _orderId) \n    external \n    timedTransition(_orderId) \n    atState(_orderId, State.OPEN) \n    {\n        require(\n            globalOrders[_orderId].buyer == msg.sender \n            || \n            globalOrders[_orderId].buyer == msg.sender, \n            ERROR_YOU_DO_NOT_OWN_THE_ORDER\n        );\n            \n        globalOrders[_orderId].state = State.CANCELED;\n  }\n\n  /*\n  *\n  */\n  function settleOrder\n    (uint _orderId) \n    external \n    payable \n    timedTransition(_orderId) \n    atState(_orderId, State.SETTLEMENT)\n    {\n        require(\n            globalOrders[_orderId].buyer == msg.sender \n            || \n            globalOrders[_orderId].buyer == msg.sender, \n            ERROR_YOU_DO_NOT_OWN_THE_ORDER\n        );\n        \n        if (globalOrders[_orderId].buyer == msg.sender){\n            uint deposit = globalOrders[_orderId].daiAmmount.div(2);\n            require(DAI.balanceOf(msg.sender) > deposit, ERROR_INSUFFICIENT_FUNDS);\n            DAI.transferFrom(msg.sender, address(this), deposit);\n            globalOrders[_orderId].buyerPaid = true;\n            \n      }\n    \n      if (globalOrders[_orderId].seller == msg.sender){\n            uint deposit2 = globalOrders[_orderId].antAmmount.div(2);\n            require(ANT.balanceOf(msg.sender) > deposit2, ERROR_INSUFFICIENT_FUNDS);\n            ANT.transferFrom(msg.sender, address(this), deposit2);\n            globalOrders[_orderId].sellerPaid = true;\n      }\n    }\n\n  /*\n  * this function looks horrendous, i will have to refactor this at a later stage, but for now as long as it works\n  * ill write the unit tests and refactor later\n  *\n  function withdrawPurchase\n      (uint _orderId) \n      external \n      payable\n      timedTransition(_orderId)\n      atState(_orderId, State.CLOSED)\n      {\n        require(\n            globalOrders[_orderId].buyer == msg.sender \n            || \n            globalOrders[_orderId].buyer == msg.sender, \n            ERROR_YOU_DO_NOT_OWN_THE_ORDER\n        );\n        \n          // there are four possible senarios there\n          // 1. both parites paid and can withdraw their respecxtive purchaces\n          // 2. buyer defaults and the seller collects both deposits\n          // 3. seller defaults and buyer collects both deposits\n          // 4. both default and collect their deposit back\n          if(msg.sender == globalOrders[_orderId].buyer){\n              if(globalOrders[_orderId].buyerPaid == true && globalOrders[_orderId].sellerPaid == true){\n                  ANT.transfer(msg.sender, globalOrders[_orderId].antAmmount); \n              }\n              if(globalOrders[_orderId].buyerPaid == true && globalOrders[_orderId].sellerPaid == false){\n                  ANT.transfer(msg.sender, globalOrders[_orderId].antAmmount.div(2)); \n                  DAI.transfer(msg.sender, globalOrders[_orderId].daiAmmount.div(2));\n              }\n              if(globalOrders[_orderId].buyerPaid == false && globalOrders[_orderId].sellerPaid == true){\n                  revert(ERROR_YOU_DEFAULTED);\n              }\n              if(globalOrders[_orderId].buyerPaid == false && globalOrders[_orderId].sellerPaid == false){\n                  DAI.transfer(msg.sender, globalOrders[_orderId].daiAmmount.div(2));              \n              }\n          } \n          \n          if(msg.sender == globalOrders[_orderId].seller){\n              if(globalOrders[_orderId].buyerPaid == true && globalOrders[_orderId].sellerPaid == true){\n                  DAI.transfer(msg.sender, globalOrders[_orderId].daiAmmount);              \n              }\n              if(globalOrders[_orderId].buyerPaid == true && globalOrders[_orderId].sellerPaid == false){\n                  ANT.transfer(msg.sender, globalOrders[_orderId].antAmmount.div(2)); \n                  DAI.transfer(msg.sender, globalOrders[_orderId].daiAmmount.div(2));              \n              }\n              if(globalOrders[_orderId].buyerPaid == false && globalOrders[_orderId].sellerPaid == true){\n                  revert(ERROR_YOU_DEFAULTED);              \n              }\n              if(globalOrders[_orderId].buyerPaid == false && globalOrders[_orderId].sellerPaid == false){\n                  ANT.transfer(msg.sender, globalOrders[_orderId].antAmmount.div(2));               \n              }\n          }\n      }\n      */\n\n  /*\n  *\n  */\n  function withdrawDeposit(uint _orderId) external payable atState(_orderId, State.CANCELED){\n        require(\n            globalOrders[_orderId].buyer == msg.sender \n            || \n            globalOrders[_orderId].buyer == msg.sender, \n            ERROR_YOU_DO_NOT_OWN_THE_ORDER\n        );\n        \n        if (msg.sender == globalOrders[_orderId].buyer){\n            DAI.transfer(msg.sender, globalOrders[_orderId].daiAmmount.div(2));\n        }\n        if (msg.sender == globalOrders[_orderId].seller){\n            ANT.transfer(msg.sender, globalOrders[_orderId].daiAmmount.div(2));\n        }\n  }\n\n  /*\n  *\n  */\n\n\n  modifier hasEnoughDAI(uint _ammount) {\n    require(DAI.balanceOf(msg.sender) > _ammount, ERROR_INSUFFICIENT_FUNDS);\n    _;\n  }\n\n  modifier hasEnoughANT(uint _ammount) {\n    require(ANT.balanceOf(msg.sender) > _ammount, ERROR_INSUFFICIENT_FUNDS);\n    _;\n  }\n  \n  modifier atState(uint _orderId, State _state) {\n    require(\n        globalOrders[_orderId].state == _state, \n        ERROR_CANNOT_CALL_THIS_FUNCTION_IN_THIS_STATE\n    );\n    _;\n  }\n  \n  modifier timedTransition(uint _orderId){\n    // there are three time dependant transitions\n    // 1. OPEN transitions to CANCELED if they are not filled by endTime\n    // 2. FILLED orders transitions to SETTLEMENT if now > endTime && now < closeTime\n    // 3. SETTLEMENT transitions to CLOSED if now > closeTime\n    \n    if(globalOrders[_orderId].state == State.OPEN && now > endTime){\n        globalOrders[_orderId].state = State.CANCELED;\n        this.cancelOrder(_orderId);\n    }\n    \n    if(globalOrders[_orderId].state == State.FILLED && now > endTime && now < closeTime){\n        globalOrders[_orderId].state = State.SETTLEMENT;\n    }\n    \n    if(globalOrders[_orderId].state == State.SETTLEMENT && now > closeTime){\n        globalOrders[_orderId].state = State.CLOSED;\n    }\n    \n    _;\n  }\n  \n  modifier transitionState(uint _orderId){\n    State currentState = globalOrders[_orderId].state;\n    globalOrders[_orderId].state = State(uint(currentState) + 1);\n    _;\n  }\n\n\n\n}\n",
  "sourcePath": "/home/student/projects/aragon-futures/contracts/AragonFuturesOrderBook.sol",
  "compiler": {
    "name": "solc",
    "version": "0.4.24+commit.e67f0147.Emscripten.clang"
  },
  "schemaVersion": "3.0.11",
  "updatedAt": "2019-07-23T14:15:26.967Z",
  "devdoc": {
    "methods": {}
  },
  "userdoc": {
    "methods": {}
  }
}