{
  "contractName": "AragonFuturesOrderBook",
  "abi": [
    {
      "constant": true,
      "inputs": [
        {
          "name": "",
          "type": "address"
        },
        {
          "name": "",
          "type": "uint256"
        }
      ],
      "name": "orders",
      "outputs": [
        {
          "name": "id",
          "type": "uint256"
        },
        {
          "name": "state",
          "type": "uint8"
        },
        {
          "name": "buyer",
          "type": "address"
        },
        {
          "name": "seller",
          "type": "address"
        },
        {
          "name": "antAmmount",
          "type": "uint256"
        },
        {
          "name": "daiAmmount",
          "type": "uint256"
        },
        {
          "name": "antDeposit",
          "type": "uint256"
        },
        {
          "name": "daiDeposit",
          "type": "uint256"
        },
        {
          "name": "expiryTime",
          "type": "uint256"
        },
        {
          "name": "closeTime",
          "type": "uint256"
        }
      ],
      "payable": false,
      "stateMutability": "view",
      "type": "function"
    },
    {
      "constant": true,
      "inputs": [
        {
          "name": "",
          "type": "uint256"
        }
      ],
      "name": "orderBook",
      "outputs": [
        {
          "name": "id",
          "type": "uint256"
        },
        {
          "name": "state",
          "type": "uint8"
        },
        {
          "name": "buyer",
          "type": "address"
        },
        {
          "name": "seller",
          "type": "address"
        },
        {
          "name": "antAmmount",
          "type": "uint256"
        },
        {
          "name": "daiAmmount",
          "type": "uint256"
        },
        {
          "name": "antDeposit",
          "type": "uint256"
        },
        {
          "name": "daiDeposit",
          "type": "uint256"
        },
        {
          "name": "expiryTime",
          "type": "uint256"
        },
        {
          "name": "closeTime",
          "type": "uint256"
        }
      ],
      "payable": false,
      "stateMutability": "view",
      "type": "function"
    },
    {
      "inputs": [],
      "payable": false,
      "stateMutability": "nonpayable",
      "type": "constructor"
    },
    {
      "constant": false,
      "inputs": [
        {
          "name": "_buyAmmount",
          "type": "uint256"
        },
        {
          "name": "_deposit",
          "type": "uint256"
        },
        {
          "name": "_expiry",
          "type": "uint256"
        }
      ],
      "name": "createBuyOrder",
      "outputs": [],
      "payable": true,
      "stateMutability": "payable",
      "type": "function"
    },
    {
      "constant": false,
      "inputs": [],
      "name": "createSellOrder",
      "outputs": [],
      "payable": true,
      "stateMutability": "payable",
      "type": "function"
    },
    {
      "constant": false,
      "inputs": [],
      "name": "fillOrder",
      "outputs": [],
      "payable": true,
      "stateMutability": "payable",
      "type": "function"
    },
    {
      "constant": false,
      "inputs": [],
      "name": "transferContract",
      "outputs": [],
      "payable": false,
      "stateMutability": "nonpayable",
      "type": "function"
    },
    {
      "constant": false,
      "inputs": [],
      "name": "cancelOrder",
      "outputs": [],
      "payable": false,
      "stateMutability": "nonpayable",
      "type": "function"
    },
    {
      "constant": false,
      "inputs": [],
      "name": "completeOrder",
      "outputs": [],
      "payable": true,
      "stateMutability": "payable",
      "type": "function"
    },
    {
      "constant": false,
      "inputs": [],
      "name": "claimTokens",
      "outputs": [],
      "payable": true,
      "stateMutability": "payable",
      "type": "function"
    },
    {
      "constant": false,
      "inputs": [],
      "name": "claimDeposit",
      "outputs": [],
      "payable": true,
      "stateMutability": "payable",
      "type": "function"
    },
    {
      "constant": true,
      "inputs": [],
      "name": "getOrders",
      "outputs": [],
      "payable": false,
      "stateMutability": "view",
      "type": "function"
    }
  ],
  "bytecode": "0x608060405234801561001057600080fd5b5033600360006101000a81548173ffffffffffffffffffffffffffffffffffffffff021916908373ffffffffffffffffffffffffffffffffffffffff16021790555060006002819055506107a9806100696000396000f3006080604052600436106100af576000357c0100000000000000000000000000000000000000000000000000000000900463ffffffff16806303bb8398146100b457806329d07a51146100e85780632e2dc43e146100f257806348c54b9d146101095780635c1ad844146101135780636a8165481461011d578063793b8c6d14610134578063798c73741461023a5780637bc39341146102445780638b6ec2bf1461025b578063a20b6e3414610265575b600080fd5b6100e660048036038101908080359060200190929190803590602001909291908035906020019092919050505061034b565b005b6100f061061e565b005b3480156100fe57600080fd5b50610107610620565b005b610111610622565b005b61011b610624565b005b34801561012957600080fd5b50610132610626565b005b34801561014057600080fd5b5061017f600480360381019080803573ffffffffffffffffffffffffffffffffffffffff16906020019092919080359060200190929190505050610628565b604051808b81526020018a600381111561019557fe5b60ff1681526020018973ffffffffffffffffffffffffffffffffffffffff1673ffffffffffffffffffffffffffffffffffffffff1681526020018873ffffffffffffffffffffffffffffffffffffffff1673ffffffffffffffffffffffffffffffffffffffff1681526020018781526020018681526020018581526020018481526020018381526020018281526020019a505050505050505050505060405180910390f35b6102426106d6565b005b34801561025057600080fd5b506102596106d8565b005b6102636106da565b005b34801561027157600080fd5b50610290600480360381019080803590602001909291905050506106dc565b604051808b81526020018a60038111156102a657fe5b60ff1681526020018973ffffffffffffffffffffffffffffffffffffffff1673ffffffffffffffffffffffffffffffffffffffff1681526020018873ffffffffffffffffffffffffffffffffffffffff1673ffffffffffffffffffffffffffffffffffffffff1681526020018781526020018681526020018581526020018481526020018381526020018281526020019a505050505050505050505060405180910390f35b6000806000600254815260200190815260200160002090506002546000806002548152602001908152602001600020600001819055506000806000600254815260200190815260200160002060010160006101000a81548160ff021916908360038111156103b557fe5b021790555033600080600254815260200190815260200160002060010160016101000a81548173ffffffffffffffffffffffffffffffffffffffff021916908373ffffffffffffffffffffffffffffffffffffffff160217905550836000806002548152602001908152602001600020600301819055508260008060025481526020019081526020016000206005018190555081420160008060025481526020019081526020016000206007018190555080600160003373ffffffffffffffffffffffffffffffffffffffff1673ffffffffffffffffffffffffffffffffffffffff16815260200190815260200160002060006002548152602001908152602001600020600082015481600001556001820160009054906101000a900460ff168160010160006101000a81548160ff021916908360038111156104f457fe5b02179055506001820160019054906101000a900473ffffffffffffffffffffffffffffffffffffffff168160010160016101000a81548173ffffffffffffffffffffffffffffffffffffffff021916908373ffffffffffffffffffffffffffffffffffffffff1602179055506002820160009054906101000a900473ffffffffffffffffffffffffffffffffffffffff168160020160006101000a81548173ffffffffffffffffffffffffffffffffffffffff021916908373ffffffffffffffffffffffffffffffffffffffff16021790555060038201548160030155600482015481600401556005820154816005015560068201548160060155600782015481600701556008820154816008015590505060026000815480929190600101919050555050505050565b565b565b565b565b565b6001602052816000526040600020602052806000526040600020600091509150508060000154908060010160009054906101000a900460ff16908060010160019054906101000a900473ffffffffffffffffffffffffffffffffffffffff16908060020160009054906101000a900473ffffffffffffffffffffffffffffffffffffffff1690806003015490806004015490806005015490806006015490806007015490806008015490508a565b565b565b565b60006020528060005260406000206000915090508060000154908060010160009054906101000a900460ff16908060010160019054906101000a900473ffffffffffffffffffffffffffffffffffffffff16908060020160009054906101000a900473ffffffffffffffffffffffffffffffffffffffff1690806003015490806004015490806005015490806006015490806007015490806008015490508a5600a165627a7a723058208f24184098710007410e912e58c2303502ff28a51891c48a504f196e762634b30029",
  "source": "pragma solidity ^0.4.24;\n/*\n  In this implimentation, futures contracts are not fungible.\n  order creator selects expiry time\n  Contract closes one hour after expiry\n*/\n\n\nimport \"../node_modules/zeppelin-solidity/contracts/math/SafeMath.sol\";\n\ncontract AragonFuturesOrderBook {\n  using SafeMath for uint256;\n\n  // still need to add ANT and DAI tokens how do i do that\n\n  struct Order {\n    uint id;\n    State state;\n    address buyer;\n    address seller;\n    uint antAmmount;\n    uint daiAmmount;\n    uint antDeposit;\n    uint daiDeposit;\n    uint expiryTime;\n    uint closeTime;\n  }\n\n  enum State {\n    OPEN, FILLED, EXPIRED, CLOSED\n  }\n\n  mapping (uint => Order) public orderBook;\n  mapping (address => mapping (uint => Order)) public orders;\n  uint nextOrderId;\n  address owner;\n\n  // the constructor needs to create refrence to ANT and DAI\n  constructor () public {\n    owner = msg.sender;\n    nextOrderId = 0;\n  }\n\n  function createBuyOrder(uint _buyAmmount, uint _deposit, uint _expiry) external payable{\n\n    Order storage newOrder = orderBook[nextOrderId];\n    orderBook[nextOrderId].id = nextOrderId;\n    orderBook[nextOrderId].state = State.OPEN;\n    orderBook[nextOrderId].buyer = msg.sender;\n    orderBook[nextOrderId].antAmmount = _buyAmmount;\n    orderBook[nextOrderId].antDeposit = _deposit;\n    orderBook[nextOrderId].expiryTime = now + _expiry;\n\n    orders[msg.sender][nextOrderId] = newOrder;\n    nextOrderId ++;\n  }\n\n  function createSellOrder() external payable{}\n\n  function fillOrder() external payable{}\n\n  function transferContract()external {}\n\n  function cancelOrder() external{}\n\n  function completeOrder() external payable{}\n\n  function claimTokens() external payable{}\n\n  function claimDeposit() external payable{}\n\n  function getOrders() external view {}\n\n  function _transitionState() internal{}\n}\n",
  "sourcePath": "/home/student/projects/aragon-futures/contracts/AragonFuturesOrderBook.sol",
  "compiler": {
    "name": "solc",
    "version": "0.4.24+commit.e67f0147.Emscripten.clang"
  },
  "schemaVersion": "3.0.11",
  "updatedAt": "2019-07-15T10:34:01.331Z",
  "devdoc": {
    "methods": {}
  },
  "userdoc": {
    "methods": {}
  }
}