{
  "contractName": "AragonFuturesOrderBook",
  "abi": [
    {
      "constant": true,
      "inputs": [
        {
          "name": "",
          "type": "address"
        },
        {
          "name": "",
          "type": "uint256"
        }
      ],
      "name": "orders",
      "outputs": [
        {
          "name": "id",
          "type": "uint256"
        },
        {
          "name": "state",
          "type": "uint8"
        },
        {
          "name": "buyer",
          "type": "address"
        },
        {
          "name": "seller",
          "type": "address"
        },
        {
          "name": "antAmmount",
          "type": "uint256"
        },
        {
          "name": "daiAmmount",
          "type": "uint256"
        },
        {
          "name": "antDeposit",
          "type": "uint256"
        },
        {
          "name": "daiDeposit",
          "type": "uint256"
        },
        {
          "name": "expiryTime",
          "type": "uint256"
        },
        {
          "name": "closeTime",
          "type": "uint256"
        }
      ],
      "payable": false,
      "stateMutability": "view",
      "type": "function"
    },
    {
      "constant": true,
      "inputs": [
        {
          "name": "",
          "type": "uint256"
        }
      ],
      "name": "orderBook",
      "outputs": [
        {
          "name": "id",
          "type": "uint256"
        },
        {
          "name": "state",
          "type": "uint8"
        },
        {
          "name": "buyer",
          "type": "address"
        },
        {
          "name": "seller",
          "type": "address"
        },
        {
          "name": "antAmmount",
          "type": "uint256"
        },
        {
          "name": "daiAmmount",
          "type": "uint256"
        },
        {
          "name": "antDeposit",
          "type": "uint256"
        },
        {
          "name": "daiDeposit",
          "type": "uint256"
        },
        {
          "name": "expiryTime",
          "type": "uint256"
        },
        {
          "name": "closeTime",
          "type": "uint256"
        }
      ],
      "payable": false,
      "stateMutability": "view",
      "type": "function"
    },
    {
      "inputs": [],
      "payable": false,
      "stateMutability": "nonpayable",
      "type": "constructor"
    },
    {
      "anonymous": false,
      "inputs": [
        {
          "indexed": false,
          "name": "id",
          "type": "uint256"
        },
        {
          "indexed": false,
          "name": "maker",
          "type": "address"
        },
        {
          "indexed": false,
          "name": "buyAmmount",
          "type": "uint256"
        },
        {
          "indexed": false,
          "name": "sellAmmount",
          "type": "uint256"
        },
        {
          "indexed": false,
          "name": "expiry",
          "type": "uint256"
        }
      ],
      "name": "CreateBuyOrder",
      "type": "event"
    },
    {
      "anonymous": false,
      "inputs": [
        {
          "indexed": false,
          "name": "id",
          "type": "uint256"
        },
        {
          "indexed": false,
          "name": "maker",
          "type": "address"
        },
        {
          "indexed": false,
          "name": "buyAmmount",
          "type": "uint256"
        },
        {
          "indexed": false,
          "name": "sellAmmount",
          "type": "uint256"
        },
        {
          "indexed": false,
          "name": "expiry",
          "type": "uint256"
        }
      ],
      "name": "CreateSellOrder",
      "type": "event"
    },
    {
      "anonymous": false,
      "inputs": [
        {
          "indexed": false,
          "name": "id",
          "type": "uint256"
        },
        {
          "indexed": false,
          "name": "taker",
          "type": "address"
        }
      ],
      "name": "FillBuyOrder",
      "type": "event"
    },
    {
      "anonymous": false,
      "inputs": [
        {
          "indexed": false,
          "name": "id",
          "type": "uint256"
        },
        {
          "indexed": false,
          "name": "taker",
          "type": "address"
        }
      ],
      "name": "FillSellOrder",
      "type": "event"
    },
    {
      "constant": false,
      "inputs": [
        {
          "name": "_buyAmmount",
          "type": "uint256"
        },
        {
          "name": "_sellAmmount",
          "type": "uint256"
        },
        {
          "name": "_deposit",
          "type": "uint256"
        },
        {
          "name": "_expiry",
          "type": "uint256"
        }
      ],
      "name": "createBuyOrder",
      "outputs": [],
      "payable": true,
      "stateMutability": "payable",
      "type": "function"
    },
    {
      "constant": false,
      "inputs": [
        {
          "name": "_buyAmmount",
          "type": "uint256"
        },
        {
          "name": "_sellAmmount",
          "type": "uint256"
        },
        {
          "name": "_deposit",
          "type": "uint256"
        },
        {
          "name": "_expiry",
          "type": "uint256"
        }
      ],
      "name": "createSellOrder",
      "outputs": [],
      "payable": true,
      "stateMutability": "payable",
      "type": "function"
    },
    {
      "constant": false,
      "inputs": [
        {
          "name": "_orderId",
          "type": "uint256"
        },
        {
          "name": "_deposit",
          "type": "uint256"
        }
      ],
      "name": "fillBuyOrder",
      "outputs": [],
      "payable": true,
      "stateMutability": "payable",
      "type": "function"
    },
    {
      "constant": false,
      "inputs": [
        {
          "name": "_orderId",
          "type": "uint256"
        },
        {
          "name": "_deposit",
          "type": "uint256"
        }
      ],
      "name": "fillSellOrder",
      "outputs": [],
      "payable": true,
      "stateMutability": "payable",
      "type": "function"
    },
    {
      "constant": false,
      "inputs": [
        {
          "name": "_id",
          "type": "uint256"
        },
        {
          "name": "_to",
          "type": "address"
        }
      ],
      "name": "transferContract",
      "outputs": [],
      "payable": false,
      "stateMutability": "nonpayable",
      "type": "function"
    },
    {
      "constant": false,
      "inputs": [],
      "name": "cancelOrder",
      "outputs": [],
      "payable": false,
      "stateMutability": "nonpayable",
      "type": "function"
    },
    {
      "constant": false,
      "inputs": [],
      "name": "completeOrder",
      "outputs": [],
      "payable": true,
      "stateMutability": "payable",
      "type": "function"
    },
    {
      "constant": false,
      "inputs": [],
      "name": "claimTokens",
      "outputs": [],
      "payable": true,
      "stateMutability": "payable",
      "type": "function"
    },
    {
      "constant": false,
      "inputs": [],
      "name": "claimDeposit",
      "outputs": [],
      "payable": true,
      "stateMutability": "payable",
      "type": "function"
    }
  ],
  "bytecode": "0x608060405234801561001057600080fd5b50336000806101000a81548173ffffffffffffffffffffffffffffffffffffffff021916908373ffffffffffffffffffffffffffffffffffffffff1602179055506000600581905550730d5263b7969144a852d58505602f630f9b20239d600160006101000a81548173ffffffffffffffffffffffffffffffffffffffff021916908373ffffffffffffffffffffffffffffffffffffffff160217905550730527e400502d0cb4f214dd0d2f2a323fc88ff924600260006101000a81548173ffffffffffffffffffffffffffffffffffffffff021916908373ffffffffffffffffffffffffffffffffffffffff1602179055506125ae806101126000396000f3006080604052600436106100af576000357c0100000000000000000000000000000000000000000000000000000000900463ffffffff16806316598914146100b457806329d07a51146100d057806337609bb2146100da57806348c54b9d146100f65780636a81654814610100578063793b8c6d146101175780638b6ec2bf1461015d5780638d5796d014610167578063a20b6e3414610183578063d1519648146101c9578063f199aeb0146101f2575b600080fd5b6100ce60048036036100c9919081019061220f565b61020e565b005b6100d861087d565b005b6100f460048036036100ef919081019061224b565b61087f565b005b6100fe610e15565b005b34801561010c57600080fd5b50610115610e17565b005b34801561012357600080fd5b5061013e6004803603610139919081019061211c565b610e19565b6040516101549a99989796959493929190612401565b60405180910390f35b610165610ec7565b005b610181600480360361017c919081019061220f565b610ec9565b005b34801561018f57600080fd5b506101aa60048036036101a59190810190612181565b611538565b6040516101c09a99989796959493929190612401565b60405180910390f35b3480156101d557600080fd5b506101f060048036036101eb91908101906121d3565b6115d9565b005b61020c6004803603610207919081019061224b565b611ba4565b005b600080600360008581526020019081526020016000206007015414156040805190810160405280601481526020017f4f524445525f444f53455f4e4f545f45584953540000000000000000000000008152509015156102a3576040517f08c379a000000000000000000000000000000000000000000000000000000000815260040161029a9190612363565b60405180910390fd5b50600060028111156102b157fe5b6003600085815260200190815260200160002060010160009054906101000a900460ff1660028111156102e057fe5b146040805190810160405280601181526020017f4f524445525f49535f4e4f545f4f50454e00000000000000000000000000000081525090151561035a576040517f08c379a00000000000000000000000000000000000000000000000000000000081526004016103519190612363565b60405180910390fd5b50426003600085815260200190815260200160002060070154116040805190810160405280601181526020017f4f524445525f4841535f455850495245440000000000000000000000000000008152509015156103ed576040517f08c379a00000000000000000000000000000000000000000000000000000000081526004016103e49190612363565b60405180910390fd5b508161041960026003600087815260200190815260200160002060040154611ffa90919063ffffffff16565b146040805190810160405280601781526020017f494e434f52524543545f4445504f5349545f56414c5545000000000000000000815250901515610493576040517f08c379a000000000000000000000000000000000000000000000000000000000815260040161048a9190612363565b60405180910390fd5b50600260009054906101000a900473ffffffffffffffffffffffffffffffffffffffff1673ffffffffffffffffffffffffffffffffffffffff166370a08231336040518263ffffffff167c010000000000000000000000000000000000000000000000000000000002815260040161050b9190612311565b602060405180830381600087803b15801561052557600080fd5b505af1158015610539573d6000803e3d6000fd5b505050506040513d601f19601f8201168201806040525061055d91908101906121aa565b6003600085815260200190815260200160002060040154106040805190810160405280601281526020017f494e53554646494349454e545f46554e445300000000000000000000000000008152509015156105ee576040517f08c379a00000000000000000000000000000000000000000000000000000000081526004016105e59190612363565b60405180910390fd5b5061063e333084600260009054906101000a900473ffffffffffffffffffffffffffffffffffffffff1673ffffffffffffffffffffffffffffffffffffffff16612010909392919063ffffffff16565b600360008481526020019081526020016000209050338160020160006101000a81548173ffffffffffffffffffffffffffffffffffffffff021916908373ffffffffffffffffffffffffffffffffffffffff16021790555081816005018190555080600460003373ffffffffffffffffffffffffffffffffffffffff1673ffffffffffffffffffffffffffffffffffffffff16815260200190815260200160002060006005548152602001908152602001600020600082015481600001556001820160009054906101000a900460ff168160010160006101000a81548160ff0219169083600281111561072d57fe5b02179055506001820160019054906101000a900473ffffffffffffffffffffffffffffffffffffffff168160010160016101000a81548173ffffffffffffffffffffffffffffffffffffffff021916908373ffffffffffffffffffffffffffffffffffffffff1602179055506002820160009054906101000a900473ffffffffffffffffffffffffffffffffffffffff168160020160006101000a81548173ffffffffffffffffffffffffffffffffffffffff021916908373ffffffffffffffffffffffffffffffffffffffff1602179055506003820154816003015560048201548160040155600582015481600501556006820154816006015560078201548160070155600882015481600801559050507fcbe49e0c6f1880113d4682989f006c7a95d41c91ab2c1a0096fba8e8b78c81568333604051610870929190612385565b60405180910390a1505050565b565b600083600160009054906101000a900473ffffffffffffffffffffffffffffffffffffffff1673ffffffffffffffffffffffffffffffffffffffff166370a08231336040518263ffffffff167c01000000000000000000000000000000000000000000000000000000000281526004016108f99190612311565b602060405180830381600087803b15801561091357600080fd5b505af1158015610927573d6000803e3d6000fd5b505050506040513d601f19601f8201168201806040525061094b91908101906121aa565b116040805190810160405280601281526020017f494e53554646494349454e545f46554e445300000000000000000000000000008152509015156109c5576040517f08c379a00000000000000000000000000000000000000000000000000000000081526004016109bc9190612363565b60405180910390fd5b506109da600285611ffa90919063ffffffff16565b83146040805190810160405280601781526020017f494e434f52524543545f4445504f5349545f56414c5545000000000000000000815250901515610a55576040517f08c379a0000000000000000000000000000000000000000000000000000000008152600401610a4c9190612363565b60405180910390fd5b50610aa5333085600160009054906101000a900473ffffffffffffffffffffffffffffffffffffffff1673ffffffffffffffffffffffffffffffffffffffff16612010909392919063ffffffff16565b600360006005548152602001908152602001600020905060055460036000600554815260200190815260200160002060000181905550600060036000600554815260200190815260200160002060010160006101000a81548160ff02191690836002811115610b1057fe5b02179055503360036000600554815260200190815260200160002060020160006101000a81548173ffffffffffffffffffffffffffffffffffffffff021916908373ffffffffffffffffffffffffffffffffffffffff16021790555084600360006005548152602001908152602001600020600401819055508360036000600554815260200190815260200160002060030181905550826003600060055481526020019081526020016000206005018190555081420160036000600554815260200190815260200160002060070181905550610e1060036000600554815260200190815260200160002060070154016003600060055481526020019081526020016000206008018190555080600460003373ffffffffffffffffffffffffffffffffffffffff1673ffffffffffffffffffffffffffffffffffffffff16815260200190815260200160002060006005548152602001908152602001600020600082015481600001556001820160009054906101000a900460ff168160010160006101000a81548160ff02191690836002811115610ca957fe5b02179055506001820160019054906101000a900473ffffffffffffffffffffffffffffffffffffffff168160010160016101000a81548173ffffffffffffffffffffffffffffffffffffffff021916908373ffffffffffffffffffffffffffffffffffffffff1602179055506002820160009054906101000a900473ffffffffffffffffffffffffffffffffffffffff168160020160006101000a81548173ffffffffffffffffffffffffffffffffffffffff021916908373ffffffffffffffffffffffffffffffffffffffff1602179055506003820154816003015560048201548160040155600582015481600501556006820154816006015560078201548160070155600882015481600801559050507f19e043374e838f328ba69f96b50b56762026ea82bfa3cbb72cd6229ff388f14a60055433878786604051610df49594939291906123ae565b60405180910390a16005600081548092919060010191905055505050505050565b565b565b6004602052816000526040600020602052806000526040600020600091509150508060000154908060010160009054906101000a900460ff16908060010160019054906101000a900473ffffffffffffffffffffffffffffffffffffffff16908060020160009054906101000a900473ffffffffffffffffffffffffffffffffffffffff1690806003015490806004015490806005015490806006015490806007015490806008015490508a565b565b600080600360008581526020019081526020016000206007015414156040805190810160405280601481526020017f4f524445525f444f53455f4e4f545f4558495354000000000000000000000000815250901515610f5e576040517f08c379a0000000000000000000000000000000000000000000000000000000008152600401610f559190612363565b60405180910390fd5b5060006002811115610f6c57fe5b6003600085815260200190815260200160002060010160009054906101000a900460ff166002811115610f9b57fe5b146040805190810160405280601181526020017f4f524445525f49535f4e4f545f4f50454e000000000000000000000000000000815250901515611015576040517f08c379a000000000000000000000000000000000000000000000000000000000815260040161100c9190612363565b60405180910390fd5b50426003600085815260200190815260200160002060070154116040805190810160405280601181526020017f4f524445525f4841535f455850495245440000000000000000000000000000008152509015156110a8576040517f08c379a000000000000000000000000000000000000000000000000000000000815260040161109f9190612363565b60405180910390fd5b50816110d460026003600087815260200190815260200160002060030154611ffa90919063ffffffff16565b146040805190810160405280601781526020017f494e434f52524543545f4445504f5349545f56414c554500000000000000000081525090151561114e576040517f08c379a00000000000000000000000000000000000000000000000000000000081526004016111459190612363565b60405180910390fd5b50600160009054906101000a900473ffffffffffffffffffffffffffffffffffffffff1673ffffffffffffffffffffffffffffffffffffffff166370a08231336040518263ffffffff167c01000000000000000000000000000000000000000000000000000000000281526004016111c69190612311565b602060405180830381600087803b1580156111e057600080fd5b505af11580156111f4573d6000803e3d6000fd5b505050506040513d601f19601f8201168201806040525061121891908101906121aa565b6003600085815260200190815260200160002060030154106040805190810160405280601281526020017f494e53554646494349454e545f46554e445300000000000000000000000000008152509015156112a9576040517f08c379a00000000000000000000000000000000000000000000000000000000081526004016112a09190612363565b60405180910390fd5b506112f9333084600160009054906101000a900473ffffffffffffffffffffffffffffffffffffffff1673ffffffffffffffffffffffffffffffffffffffff16612010909392919063ffffffff16565b600360008481526020019081526020016000209050338160020160006101000a81548173ffffffffffffffffffffffffffffffffffffffff021916908373ffffffffffffffffffffffffffffffffffffffff16021790555081816005018190555080600460003373ffffffffffffffffffffffffffffffffffffffff1673ffffffffffffffffffffffffffffffffffffffff16815260200190815260200160002060006005548152602001908152602001600020600082015481600001556001820160009054906101000a900460ff168160010160006101000a81548160ff021916908360028111156113e857fe5b02179055506001820160019054906101000a900473ffffffffffffffffffffffffffffffffffffffff168160010160016101000a81548173ffffffffffffffffffffffffffffffffffffffff021916908373ffffffffffffffffffffffffffffffffffffffff1602179055506002820160009054906101000a900473ffffffffffffffffffffffffffffffffffffffff168160020160006101000a81548173ffffffffffffffffffffffffffffffffffffffff021916908373ffffffffffffffffffffffffffffffffffffffff1602179055506003820154816003015560048201548160040155600582015481600501556006820154816006015560078201548160070155600882015481600801559050507f37812618b8ac54bf622cc187d6fafed977419c6c886c8f900e78bcfa0573b3da833360405161152b929190612385565b60405180910390a1505050565b60036020528060005260406000206000915090508060000154908060010160009054906101000a900460ff16908060010160019054906101000a900473ffffffffffffffffffffffffffffffffffffffff16908060020160009054906101000a900473ffffffffffffffffffffffffffffffffffffffff1690806003015490806004015490806005015490806006015490806007015490806008015490508a565b6000600360008481526020019081526020016000206007015414156040805190810160405280601481526020017f4f524445525f444f53455f4e4f545f455849535400000000000000000000000081525090151561166d576040517f08c379a00000000000000000000000000000000000000000000000000000000081526004016116649190612363565b60405180910390fd5b503373ffffffffffffffffffffffffffffffffffffffff166003600084815260200190815260200160002060010160019054906101000a900473ffffffffffffffffffffffffffffffffffffffff1673ffffffffffffffffffffffffffffffffffffffff16148061173f57503373ffffffffffffffffffffffffffffffffffffffff166003600084815260200190815260200160002060010160019054906101000a900473ffffffffffffffffffffffffffffffffffffffff1673ffffffffffffffffffffffffffffffffffffffff16145b6040805190810160405280601581526020017f4e4f545f4f574e45525f4f465f434f4e545241435400000000000000000000008152509015156117b8576040517f08c379a00000000000000000000000000000000000000000000000000000000081526004016117af9190612363565b60405180910390fd5b50600460003373ffffffffffffffffffffffffffffffffffffffff1673ffffffffffffffffffffffffffffffffffffffff16815260200190815260200160002060008381526020019081526020016000206000808201600090556001820160006101000a81549060ff02191690556001820160016101000a81549073ffffffffffffffffffffffffffffffffffffffff02191690556002820160006101000a81549073ffffffffffffffffffffffffffffffffffffffff021916905560038201600090556004820160009055600582016000905560068201600090556007820160009055600882016000905550503373ffffffffffffffffffffffffffffffffffffffff166003600084815260200190815260200160002060010160019054906101000a900473ffffffffffffffffffffffffffffffffffffffff1673ffffffffffffffffffffffffffffffffffffffff16141561194b578073ffffffffffffffffffffffffffffffffffffffff166003600084815260200190815260200160002060010160019054906101000a905050505b3373ffffffffffffffffffffffffffffffffffffffff166003600084815260200190815260200160002060020160009054906101000a900473ffffffffffffffffffffffffffffffffffffffff1673ffffffffffffffffffffffffffffffffffffffff1614156119f0578073ffffffffffffffffffffffffffffffffffffffff166003600084815260200190815260200160002060020160009054906101000a905050505b60036000838152602001908152602001600020600460008373ffffffffffffffffffffffffffffffffffffffff1673ffffffffffffffffffffffffffffffffffffffff1681526020019081526020016000206000848152602001908152602001600020600082015481600001556001820160009054906101000a900460ff168160010160006101000a81548160ff02191690836002811115611a8e57fe5b02179055506001820160019054906101000a900473ffffffffffffffffffffffffffffffffffffffff168160010160016101000a81548173ffffffffffffffffffffffffffffffffffffffff021916908373ffffffffffffffffffffffffffffffffffffffff1602179055506002820160009054906101000a900473ffffffffffffffffffffffffffffffffffffffff168160020160006101000a81548173ffffffffffffffffffffffffffffffffffffffff021916908373ffffffffffffffffffffffffffffffffffffffff1602179055506003820154816003015560048201548160040155600582015481600501556006820154816006015560078201548160070155600882015481600801559050505050565b600083600260009054906101000a900473ffffffffffffffffffffffffffffffffffffffff1673ffffffffffffffffffffffffffffffffffffffff166370a08231336040518263ffffffff167c0100000000000000000000000000000000000000000000000000000000028152600401611c1e9190612311565b602060405180830381600087803b158015611c3857600080fd5b505af1158015611c4c573d6000803e3d6000fd5b505050506040513d601f19601f82011682018060405250611c7091908101906121aa565b116040805190810160405280601281526020017f494e53554646494349454e545f46554e44530000000000000000000000000000815250901515611cea576040517f08c379a0000000000000000000000000000000000000000000000000000000008152600401611ce19190612363565b60405180910390fd5b50611cff600286611ffa90919063ffffffff16565b83146040805190810160405280601781526020017f494e434f52524543545f4445504f5349545f56414c5545000000000000000000815250901515611d7a576040517f08c379a0000000000000000000000000000000000000000000000000000000008152600401611d719190612363565b60405180910390fd5b50611dca333085600260009054906101000a900473ffffffffffffffffffffffffffffffffffffffff1673ffffffffffffffffffffffffffffffffffffffff16612010909392919063ffffffff16565b60036000600554815260200190815260200160002090506005546003600060055481526020019081526020016000206000018190555080600460003373ffffffffffffffffffffffffffffffffffffffff1673ffffffffffffffffffffffffffffffffffffffff16815260200190815260200160002060006005548152602001908152602001600020600082015481600001556001820160009054906101000a900460ff168160010160006101000a81548160ff02191690836002811115611e8e57fe5b02179055506001820160019054906101000a900473ffffffffffffffffffffffffffffffffffffffff168160010160016101000a81548173ffffffffffffffffffffffffffffffffffffffff021916908373ffffffffffffffffffffffffffffffffffffffff1602179055506002820160009054906101000a900473ffffffffffffffffffffffffffffffffffffffff168160020160006101000a81548173ffffffffffffffffffffffffffffffffffffffff021916908373ffffffffffffffffffffffffffffffffffffffff1602179055506003820154816003015560048201548160040155600582015481600501556006820154816006015560078201548160070155600882015481600801559050507fedd0243da55ff6582df5ffe3a2386a96309214a30881fc2a4263321cbb1f307b60055433878786604051611fd99594939291906123ae565b60405180910390a16005600081548092919060010191905055505050505050565b6000818381151561200757fe5b04905092915050565b8373ffffffffffffffffffffffffffffffffffffffff166323b872dd8484846040518463ffffffff167c01000000000000000000000000000000000000000000000000000000000281526004016120699392919061232c565b602060405180830381600087803b15801561208357600080fd5b505af1158015612097573d6000803e3d6000fd5b505050506040513d601f19601f820116820180604052506120bb9190810190612158565b15156120c657600080fd5b50505050565b60006120d882356124e8565b905092915050565b60006120ec8251612508565b905092915050565b60006121008235612514565b905092915050565b60006121148251612514565b905092915050565b6000806040838503121561212f57600080fd5b600061213d858286016120cc565b925050602061214e858286016120f4565b9150509250929050565b60006020828403121561216a57600080fd5b6000612178848285016120e0565b91505092915050565b60006020828403121561219357600080fd5b60006121a1848285016120f4565b91505092915050565b6000602082840312156121bc57600080fd5b60006121ca84828501612108565b91505092915050565b600080604083850312156121e657600080fd5b60006121f4858286016120f4565b9250506020612205858286016120cc565b9150509250929050565b6000806040838503121561222257600080fd5b6000612230858286016120f4565b9250506020612241858286016120f4565b9150509250929050565b6000806000806080858703121561226157600080fd5b600061226f878288016120f4565b9450506020612280878288016120f4565b9350506040612291878288016120f4565b92505060606122a2878288016120f4565b91505092959194509250565b6122b7816124a8565b82525050565b6122c68161251e565b82525050565b60006122d78261249d565b8084526122eb816020860160208601612530565b6122f481612563565b602085010191505092915050565b61230b816124de565b82525050565b600060208201905061232660008301846122ae565b92915050565b600060608201905061234160008301866122ae565b61234e60208301856122ae565b61235b6040830184612302565b949350505050565b6000602082019050818103600083015261237d81846122cc565b905092915050565b600060408201905061239a6000830185612302565b6123a760208301846122ae565b9392505050565b600060a0820190506123c36000830188612302565b6123d060208301876122ae565b6123dd6040830186612302565b6123ea6060830185612302565b6123f76080830184612302565b9695505050505050565b600061014082019050612417600083018d612302565b612424602083018c6122bd565b612431604083018b6122ae565b61243e606083018a6122ae565b61244b6080830189612302565b61245860a0830188612302565b61246560c0830187612302565b61247260e0830186612302565b612480610100830185612302565b61248e610120830184612302565b9b9a5050505050505050505050565b600081519050919050565b600073ffffffffffffffffffffffffffffffffffffffff82169050919050565b60006003821015156124d657fe5b819050919050565b6000819050919050565b600073ffffffffffffffffffffffffffffffffffffffff82169050919050565b60008115159050919050565b6000819050919050565b6000612529826124c8565b9050919050565b60005b8381101561254e578082015181840152602081019050612533565b8381111561255d576000848401525b50505050565b6000601f19601f83011690509190505600a265627a7a72305820c8c3900fdfb26bea7a00a92fd818eb723b71318237e9d0e38c82e872bf3d5a0b6c6578706572696d656e74616cf50037",
  "source": "pragma solidity ^0.4.24;\npragma experimental ABIEncoderV2;\n/*\n  In this implimentation, futures contracts are not fungible.\n  - order creator selects expiry time\n  - Contract closes one hour after expiry\n*/\n\n\nimport \"../node_modules/zeppelin-solidity/contracts/math/SafeMath.sol\";\nimport \"../node_modules/zeppelin-solidity/contracts/token/ERC20/ERC20Basic.sol\";\nimport \"../node_modules/zeppelin-solidity/contracts/token/ERC20/ERC20.sol\";\nimport \"../node_modules/zeppelin-solidity/contracts/token/ERC20/SafeERC20.sol\";\n\ncontract AragonFuturesOrderBook {\n  using SafeMath for uint256;\n  using SafeERC20 for ERC20;\n\n  string private constant ERROR_ORDER_DOSE_NOT_EXIST = \"ORDER_DOSE_NOT_EXIST\";\n  string private constant ERROR_NOT_OWNER_OF_CONTRACT = \"NOT_OWNER_OF_CONTRACT\";\n  string private constant ERROR_ORDER_IS_NOT_OPEN = \"ORDER_IS_NOT_OPEN\";\n  string private constant ERROR_ORDER_HAS_EXPIRED = \"ORDER_HAS_EXPIRED\";\n  string private constant ERROR_INSUFFICIENT_FUNDS = \"INSUFFICIENT_FUNDS\";\n  string private constant ERROR_INCORRECT_DEPOSIT_VALUE = \"INCORRECT_DEPOSIT_VALUE\";\n\n\n  struct Order {\n    uint id;\n    State state;\n    address buyer;\n    address seller;\n    uint antAmmount;\n    uint daiAmmount;\n    uint antDeposit;\n    uint daiDeposit;\n    uint expiryTime;\n    uint closeTime;\n  }\n\n  address owner;\n  ERC20 ANT;\n  ERC20 DAI;\n  enum State {OPEN, FILLED, EXPIRED}\n  mapping (uint => Order) public orderBook;\n  mapping (address => mapping (uint => Order)) public orders;\n  uint nextOrderId;\n\n  event CreateBuyOrder(uint id, address maker, uint buyAmmount, uint sellAmmount, uint expiry);\n  event CreateSellOrder(uint id, address maker, uint buyAmmount, uint sellAmmount, uint expiry);\n  event FillBuyOrder(uint id, address taker);\n  event FillSellOrder(uint id, address taker);\n\n  constructor () public {\n    owner = msg.sender;\n    nextOrderId = 0;\n\t\tANT = ERC20(0x0D5263B7969144a852D58505602f630f9b20239D); // rinkeby\n\t\tDAI = ERC20(0x0527E400502d0CB4f214dd0D2F2a323fc88Ff924); // rinkeby\n  }\n\n  /*\n  *\n  */\n  function createBuyOrder(\n    uint _buyAmmount,\n    uint _sellAmmount,\n    uint _deposit,\n    uint _expiry\n    )\n    external\n    payable\n    {\n    require(DAI.balanceOf(msg.sender) > _sellAmmount, ERROR_INSUFFICIENT_FUNDS); // require msg.sender has enough DAI\n    require(_deposit == _buyAmmount.div(2), ERROR_INCORRECT_DEPOSIT_VALUE);\n\n    DAI.safeTransferFrom(msg.sender, this, _deposit);\n    Order storage newOrder = orderBook[nextOrderId];\n    orderBook[nextOrderId].id = nextOrderId;\n    //orderBook[nextOrderId].state = State.OPEN;\n    //orderBook[nextOrderId].buyer = msg.sender;\n    //orderBook[nextOrderId].antAmmount = _buyAmmount;\n    //orderBook[nextOrderId].daiAmmount = _sellAmmount;\n    //orderBook[nextOrderId].daiDeposit = _deposit;\n    //orderBook[nextOrderId].expiryTime = now + _expiry;\n    //orderBook[nextOrderId].closeTime = orderBook[nextOrderId].expiryTime + 3600; // 1 hour\n\n    orders[msg.sender][nextOrderId] = newOrder;\n    emit CreateBuyOrder(nextOrderId, msg.sender, _buyAmmount, _sellAmmount, _expiry);\n    nextOrderId ++;\n  }\n\n  /*\n  *\n  */\n  function createSellOrder(\n    uint _buyAmmount,\n    uint _sellAmmount,\n    uint _deposit,\n    uint _expiry\n  )\n    external\n    payable\n    {\n    require(ANT.balanceOf(msg.sender) > _sellAmmount, ERROR_INSUFFICIENT_FUNDS); // require msg.sender has enough ANT\n    require(_deposit == _sellAmmount.div(2), ERROR_INCORRECT_DEPOSIT_VALUE);\n\n    ANT.safeTransferFrom(msg.sender, this, _deposit);\n    Order storage newOrder = orderBook[nextOrderId];\n    orderBook[nextOrderId].id = nextOrderId;\n    orderBook[nextOrderId].state = State.OPEN;\n    orderBook[nextOrderId].seller = msg.sender;\n    orderBook[nextOrderId].daiAmmount = _buyAmmount;\n    orderBook[nextOrderId].antAmmount = _sellAmmount;\n    orderBook[nextOrderId].antDeposit = _deposit;\n    orderBook[nextOrderId].expiryTime = now + _expiry;\n    orderBook[nextOrderId].closeTime = orderBook[nextOrderId].expiryTime + 3600; // 1 hour\n    orders[msg.sender][nextOrderId] = newOrder;\n\n    emit CreateSellOrder(nextOrderId, msg.sender, _buyAmmount, _sellAmmount, _expiry);\n    nextOrderId ++;\n  }\n\n  /*\n  *\n  */\n  function fillBuyOrder(uint _orderId, uint _deposit) external payable{\n    require(orderBook[_orderId].expiryTime != 0, ERROR_ORDER_DOSE_NOT_EXIST); // require order exists, is there a better test?\n    require(orderBook[_orderId].state == State.OPEN, ERROR_ORDER_IS_NOT_OPEN); // require order OPEN\n    require(orderBook[_orderId].expiryTime > now, ERROR_ORDER_HAS_EXPIRED); // require now < expiry\n    require(orderBook[_orderId].antAmmount.div(2) == _deposit, ERROR_INCORRECT_DEPOSIT_VALUE); // require deposit is correct ammount\n    require(orderBook[_orderId].antAmmount < ANT.balanceOf(msg.sender), ERROR_INSUFFICIENT_FUNDS);// require msg.sender has enough DAI\n\n    ANT.safeTransferFrom(msg.sender, this, _deposit);\n    Order storage fillOrder = orderBook[_orderId];\n    fillOrder.seller = msg.sender;\n    fillOrder.antDeposit = _deposit;\n\n    orders[msg.sender][nextOrderId] = fillOrder;\n    emit FillBuyOrder(_orderId, msg.sender);\n  }\n\n  /*\n  *\n  */\n  function fillSellOrder(uint _orderId, uint _deposit) external payable{\n    require(orderBook[_orderId].expiryTime != 0, ERROR_ORDER_DOSE_NOT_EXIST); // require order exists, is there a better test?\n    require(orderBook[_orderId].state == State.OPEN, ERROR_ORDER_IS_NOT_OPEN); // require order OPEN\n    require(orderBook[_orderId].expiryTime > now, ERROR_ORDER_HAS_EXPIRED); // require now < expiry\n    require(orderBook[_orderId].daiAmmount.div(2) == _deposit, ERROR_INCORRECT_DEPOSIT_VALUE); // require deposit is correct ammount\n    require(orderBook[_orderId].daiAmmount < DAI.balanceOf(msg.sender), ERROR_INSUFFICIENT_FUNDS);// require msg.sender has enough DAI\n\n    DAI.safeTransferFrom(msg.sender, this, _deposit);\n    Order storage fillOrder = orderBook[_orderId];\n    fillOrder.seller = msg.sender;\n    fillOrder.antDeposit = _deposit;\n\n    orders[msg.sender][nextOrderId] = fillOrder;\n    emit FillSellOrder(_orderId, msg.sender);\n  }\n\n  /*\n  *\n  */\n  function transferContract(uint _id, address _to)external {\n    require(orderBook[_id].expiryTime != 0, ERROR_ORDER_DOSE_NOT_EXIST); // require order exists, is there a better test?\n    require(orderBook[_id].buyer == msg.sender || orderBook[_id].buyer == msg.sender, ERROR_NOT_OWNER_OF_CONTRACT) ;\n\n    // remove key from orders of message sender\n    delete orders[msg.sender][_id];\n\n    // change key from msg.sender to _to\n    if(orderBook[_id].buyer == msg.sender){\n      orderBook[_id].buyer == _to;\n    }\n    if(orderBook[_id].seller == msg.sender){\n      orderBook[_id].seller == _to;\n    }\n    orders[_to][_id] = orderBook[_id];\n  }\n\n  /*\n  *\n  */\n  function cancelOrder() external{}\n\n  /*\n  *\n  */\n  function completeOrder() external payable{}\n\n  /*\n  *\n  */\n  function claimTokens() external payable{}\n\n  /*\n  *\n  */\n  function claimDeposit() external payable{}\n\n\n  /*\n  *\n  */\n  function _transitionState() internal{}\n\n}\n",
  "sourcePath": "/home/student/projects/aragon-futures/contracts/AragonFuturesOrderBookLASTWORKING.sol",
  "compiler": {
    "name": "solc",
    "version": "0.4.24+commit.e67f0147.Emscripten.clang"
  },
  "schemaVersion": "3.0.11",
  "updatedAt": "2019-07-19T10:10:12.470Z",
  "devdoc": {
    "methods": {}
  },
  "userdoc": {
    "methods": {}
  }
}