{
  "contractName": "AragonFuturesOrderBook",
  "abi": [
    {
      "constant": true,
      "inputs": [
        {
          "name": "",
          "type": "address"
        },
        {
          "name": "",
          "type": "uint256"
        }
      ],
      "name": "orders",
      "outputs": [
        {
          "name": "id",
          "type": "uint256"
        },
        {
          "name": "state",
          "type": "uint8"
        },
        {
          "name": "buyer",
          "type": "address"
        },
        {
          "name": "seller",
          "type": "address"
        },
        {
          "name": "antAmmount",
          "type": "uint256"
        },
        {
          "name": "daiAmmount",
          "type": "uint256"
        },
        {
          "name": "antDeposit",
          "type": "uint256"
        },
        {
          "name": "daiDeposit",
          "type": "uint256"
        },
        {
          "name": "expiryTime",
          "type": "uint256"
        },
        {
          "name": "closeTime",
          "type": "uint256"
        }
      ],
      "payable": false,
      "stateMutability": "view",
      "type": "function"
    },
    {
      "constant": true,
      "inputs": [
        {
          "name": "",
          "type": "uint256"
        }
      ],
      "name": "orderBook",
      "outputs": [
        {
          "name": "id",
          "type": "uint256"
        },
        {
          "name": "state",
          "type": "uint8"
        },
        {
          "name": "buyer",
          "type": "address"
        },
        {
          "name": "seller",
          "type": "address"
        },
        {
          "name": "antAmmount",
          "type": "uint256"
        },
        {
          "name": "daiAmmount",
          "type": "uint256"
        },
        {
          "name": "antDeposit",
          "type": "uint256"
        },
        {
          "name": "daiDeposit",
          "type": "uint256"
        },
        {
          "name": "expiryTime",
          "type": "uint256"
        },
        {
          "name": "closeTime",
          "type": "uint256"
        }
      ],
      "payable": false,
      "stateMutability": "view",
      "type": "function"
    },
    {
      "inputs": [],
      "payable": false,
      "stateMutability": "nonpayable",
      "type": "constructor"
    },
    {
      "anonymous": false,
      "inputs": [
        {
          "indexed": false,
          "name": "id",
          "type": "uint256"
        },
        {
          "indexed": false,
          "name": "maker",
          "type": "address"
        },
        {
          "indexed": false,
          "name": "buyAmmount",
          "type": "uint256"
        },
        {
          "indexed": false,
          "name": "sellAmmount",
          "type": "uint256"
        },
        {
          "indexed": false,
          "name": "expiry",
          "type": "uint256"
        }
      ],
      "name": "CreateBuyOrder",
      "type": "event"
    },
    {
      "anonymous": false,
      "inputs": [
        {
          "indexed": false,
          "name": "id",
          "type": "uint256"
        },
        {
          "indexed": false,
          "name": "maker",
          "type": "address"
        },
        {
          "indexed": false,
          "name": "buyAmmount",
          "type": "uint256"
        },
        {
          "indexed": false,
          "name": "sellAmmount",
          "type": "uint256"
        },
        {
          "indexed": false,
          "name": "expiry",
          "type": "uint256"
        }
      ],
      "name": "CreateSellOrder",
      "type": "event"
    },
    {
      "anonymous": false,
      "inputs": [
        {
          "indexed": false,
          "name": "id",
          "type": "uint256"
        },
        {
          "indexed": false,
          "name": "taker",
          "type": "address"
        }
      ],
      "name": "FillBuyOrder",
      "type": "event"
    },
    {
      "anonymous": false,
      "inputs": [
        {
          "indexed": false,
          "name": "id",
          "type": "uint256"
        },
        {
          "indexed": false,
          "name": "taker",
          "type": "address"
        }
      ],
      "name": "FillSellOrder",
      "type": "event"
    },
    {
      "constant": false,
      "inputs": [
        {
          "name": "_buyAmmount",
          "type": "uint256"
        },
        {
          "name": "_sellAmmount",
          "type": "uint256"
        },
        {
          "name": "_deposit",
          "type": "uint256"
        },
        {
          "name": "_expiry",
          "type": "uint256"
        }
      ],
      "name": "createBuyOrder",
      "outputs": [],
      "payable": true,
      "stateMutability": "payable",
      "type": "function"
    },
    {
      "constant": false,
      "inputs": [
        {
          "name": "_buyAmmount",
          "type": "uint256"
        },
        {
          "name": "_sellAmmount",
          "type": "uint256"
        },
        {
          "name": "_deposit",
          "type": "uint256"
        },
        {
          "name": "_expiry",
          "type": "uint256"
        }
      ],
      "name": "createSellOrder",
      "outputs": [],
      "payable": true,
      "stateMutability": "payable",
      "type": "function"
    },
    {
      "constant": false,
      "inputs": [
        {
          "name": "_orderId",
          "type": "uint256"
        },
        {
          "name": "_deposit",
          "type": "uint256"
        }
      ],
      "name": "fillBuyOrder",
      "outputs": [],
      "payable": true,
      "stateMutability": "payable",
      "type": "function"
    },
    {
      "constant": false,
      "inputs": [
        {
          "name": "_orderId",
          "type": "uint256"
        },
        {
          "name": "_deposit",
          "type": "uint256"
        }
      ],
      "name": "fillSellOrder",
      "outputs": [],
      "payable": true,
      "stateMutability": "payable",
      "type": "function"
    },
    {
      "constant": false,
      "inputs": [],
      "name": "transferContract",
      "outputs": [],
      "payable": false,
      "stateMutability": "nonpayable",
      "type": "function"
    },
    {
      "constant": false,
      "inputs": [],
      "name": "cancelOrder",
      "outputs": [],
      "payable": false,
      "stateMutability": "nonpayable",
      "type": "function"
    },
    {
      "constant": false,
      "inputs": [],
      "name": "completeOrder",
      "outputs": [],
      "payable": true,
      "stateMutability": "payable",
      "type": "function"
    },
    {
      "constant": false,
      "inputs": [],
      "name": "claimTokens",
      "outputs": [],
      "payable": true,
      "stateMutability": "payable",
      "type": "function"
    },
    {
      "constant": false,
      "inputs": [],
      "name": "claimDeposit",
      "outputs": [],
      "payable": true,
      "stateMutability": "payable",
      "type": "function"
    },
    {
      "constant": true,
      "inputs": [],
      "name": "getOrders",
      "outputs": [],
      "payable": false,
      "stateMutability": "view",
      "type": "function"
    },
    {
      "constant": false,
      "inputs": [
        {
          "name": "_ammount",
          "type": "uint256"
        }
      ],
      "name": "_deposit",
      "outputs": [],
      "payable": false,
      "stateMutability": "nonpayable",
      "type": "function"
    }
  ],
  "bytecode": "0x608060405234801561001057600080fd5b5033600560006101000a81548173ffffffffffffffffffffffffffffffffffffffff021916908373ffffffffffffffffffffffffffffffffffffffff160217905550600060048190555061140e806100696000396000f3006080604052600436106100c5576000357c0100000000000000000000000000000000000000000000000000000000900463ffffffff16806316598914146100ca57806329d07a51146100f45780632e2dc43e146100fe57806337609bb21461011557806348c54b9d146101535780636a8165481461015d578063793b8c6d146101745780637bc393411461027a5780638b6ec2bf146102915780638d5796d01461029b5780639213b124146102c5578063a20b6e34146102f2578063f199aeb0146103d8575b600080fd5b6100f26004803603810190808035906020019092919080359060200190929190505050610416565b005b6100fc610710565b005b34801561010a57600080fd5b50610113610712565b005b61015160048036038101908080359060200190929190803590602001909291908035906020019092919080359060200190929190505050610714565b005b61015b610b51565b005b34801561016957600080fd5b50610172610b53565b005b34801561018057600080fd5b506101bf600480360381019080803573ffffffffffffffffffffffffffffffffffffffff16906020019092919080359060200190929190505050610b55565b604051808b81526020018a60028111156101d557fe5b60ff1681526020018973ffffffffffffffffffffffffffffffffffffffff1673ffffffffffffffffffffffffffffffffffffffff1681526020018873ffffffffffffffffffffffffffffffffffffffff1673ffffffffffffffffffffffffffffffffffffffff1681526020018781526020018681526020018581526020018481526020018381526020018281526020019a505050505050505050505060405180910390f35b34801561028657600080fd5b5061028f610c03565b005b610299610c05565b005b6102c36004803603810190808035906020019092919080359060200190929190505050610c07565b005b3480156102d157600080fd5b506102f060048036038101908080359060200190929190505050610f01565b005b3480156102fe57600080fd5b5061031d60048036038101908080359060200190929190505050610f04565b604051808b81526020018a600281111561033357fe5b60ff1681526020018973ffffffffffffffffffffffffffffffffffffffff1673ffffffffffffffffffffffffffffffffffffffff1681526020018873ffffffffffffffffffffffffffffffffffffffff1673ffffffffffffffffffffffffffffffffffffffff1681526020018781526020018681526020018581526020018481526020018381526020018281526020019a505050505050505050505060405180910390f35b61041460048036038101908080359060200190929190803590602001909291908035906020019092919080359060200190929190505050610fa5565b005b6000600260008481526020019081526020016000209050338160010160016101000a81548173ffffffffffffffffffffffffffffffffffffffff021916908373ffffffffffffffffffffffffffffffffffffffff1602179055508181600601819055503073ffffffffffffffffffffffffffffffffffffffff16639213b124836040518263ffffffff167c010000000000000000000000000000000000000000000000000000000002815260040180828152602001915050600060405180830381600087803b1580156104e857600080fd5b505af11580156104fc573d6000803e3d6000fd5b5050505080600360003373ffffffffffffffffffffffffffffffffffffffff1673ffffffffffffffffffffffffffffffffffffffff16815260200190815260200160002060006004548152602001908152602001600020600082015481600001556001820160009054906101000a900460ff168160010160006101000a81548160ff0219169083600281111561058e57fe5b02179055506001820160019054906101000a900473ffffffffffffffffffffffffffffffffffffffff168160010160016101000a81548173ffffffffffffffffffffffffffffffffffffffff021916908373ffffffffffffffffffffffffffffffffffffffff1602179055506002820160009054906101000a900473ffffffffffffffffffffffffffffffffffffffff168160020160006101000a81548173ffffffffffffffffffffffffffffffffffffffff021916908373ffffffffffffffffffffffffffffffffffffffff1602179055506003820154816003015560048201548160040155600582015481600501556006820154816006015560078201548160070155600882015481600801559050507fcbe49e0c6f1880113d4682989f006c7a95d41c91ab2c1a0096fba8e8b78c81568333604051808381526020018273ffffffffffffffffffffffffffffffffffffffff1673ffffffffffffffffffffffffffffffffffffffff1681526020019250505060405180910390a1505050565b565b565b6000600260006004548152602001908152602001600020905060045460026000600454815260200190815260200160002060000181905550600060026000600454815260200190815260200160002060010160006101000a81548160ff0219169083600281111561078157fe5b02179055503360026000600454815260200190815260200160002060020160006101000a81548173ffffffffffffffffffffffffffffffffffffffff021916908373ffffffffffffffffffffffffffffffffffffffff16021790555084600260006004548152602001908152602001600020600301819055508360026000600454815260200190815260200160002060040181905550826002600060045481526020019081526020016000206005018190555081420160026000600454815260200190815260200160002060070181905550610e106002600060045481526020019081526020016000206007015401600260006004548152602001908152602001600020600801819055503073ffffffffffffffffffffffffffffffffffffffff16639213b124846040518263ffffffff167c010000000000000000000000000000000000000000000000000000000002815260040180828152602001915050600060405180830381600087803b1580156108fb57600080fd5b505af115801561090f573d6000803e3d6000fd5b5050505080600360003373ffffffffffffffffffffffffffffffffffffffff1673ffffffffffffffffffffffffffffffffffffffff16815260200190815260200160002060006004548152602001908152602001600020600082015481600001556001820160009054906101000a900460ff168160010160006101000a81548160ff021916908360028111156109a157fe5b02179055506001820160019054906101000a900473ffffffffffffffffffffffffffffffffffffffff168160010160016101000a81548173ffffffffffffffffffffffffffffffffffffffff021916908373ffffffffffffffffffffffffffffffffffffffff1602179055506002820160009054906101000a900473ffffffffffffffffffffffffffffffffffffffff168160020160006101000a81548173ffffffffffffffffffffffffffffffffffffffff021916908373ffffffffffffffffffffffffffffffffffffffff1602179055506003820154816003015560048201548160040155600582015481600501556006820154816006015560078201548160070155600882015481600801559050507f19e043374e838f328ba69f96b50b56762026ea82bfa3cbb72cd6229ff388f14a60045433878786604051808681526020018573ffffffffffffffffffffffffffffffffffffffff1673ffffffffffffffffffffffffffffffffffffffff1681526020018481526020018381526020018281526020019550505050505060405180910390a16004600081548092919060010191905055505050505050565b565b565b6003602052816000526040600020602052806000526040600020600091509150508060000154908060010160009054906101000a900460ff16908060010160019054906101000a900473ffffffffffffffffffffffffffffffffffffffff16908060020160009054906101000a900473ffffffffffffffffffffffffffffffffffffffff1690806003015490806004015490806005015490806006015490806007015490806008015490508a565b565b565b6000600260008481526020019081526020016000209050338160020160006101000a81548173ffffffffffffffffffffffffffffffffffffffff021916908373ffffffffffffffffffffffffffffffffffffffff1602179055508181600501819055503073ffffffffffffffffffffffffffffffffffffffff16639213b124836040518263ffffffff167c010000000000000000000000000000000000000000000000000000000002815260040180828152602001915050600060405180830381600087803b158015610cd957600080fd5b505af1158015610ced573d6000803e3d6000fd5b5050505080600360003373ffffffffffffffffffffffffffffffffffffffff1673ffffffffffffffffffffffffffffffffffffffff16815260200190815260200160002060006004548152602001908152602001600020600082015481600001556001820160009054906101000a900460ff168160010160006101000a81548160ff02191690836002811115610d7f57fe5b02179055506001820160019054906101000a900473ffffffffffffffffffffffffffffffffffffffff168160010160016101000a81548173ffffffffffffffffffffffffffffffffffffffff021916908373ffffffffffffffffffffffffffffffffffffffff1602179055506002820160009054906101000a900473ffffffffffffffffffffffffffffffffffffffff168160020160006101000a81548173ffffffffffffffffffffffffffffffffffffffff021916908373ffffffffffffffffffffffffffffffffffffffff1602179055506003820154816003015560048201548160040155600582015481600501556006820154816006015560078201548160070155600882015481600801559050507f37812618b8ac54bf622cc187d6fafed977419c6c886c8f900e78bcfa0573b3da8333604051808381526020018273ffffffffffffffffffffffffffffffffffffffff1673ffffffffffffffffffffffffffffffffffffffff1681526020019250505060405180910390a1505050565b50565b60026020528060005260406000206000915090508060000154908060010160009054906101000a900460ff16908060010160019054906101000a900473ffffffffffffffffffffffffffffffffffffffff16908060020160009054906101000a900473ffffffffffffffffffffffffffffffffffffffff1690806003015490806004015490806005015490806006015490806007015490806008015490508a565b6000600260006004548152602001908152602001600020905060045460026000600454815260200190815260200160002060000181905550600060026000600454815260200190815260200160002060010160006101000a81548160ff0219169083600281111561101257fe5b02179055503360026000600454815260200190815260200160002060010160016101000a81548173ffffffffffffffffffffffffffffffffffffffff021916908373ffffffffffffffffffffffffffffffffffffffff16021790555084600260006004548152602001908152602001600020600301819055508360026000600454815260200190815260200160002060040181905550826002600060045481526020019081526020016000206006018190555081420160026000600454815260200190815260200160002060070181905550610e106002600060045481526020019081526020016000206007015401600260006004548152602001908152602001600020600801819055503073ffffffffffffffffffffffffffffffffffffffff16639213b124846040518263ffffffff167c010000000000000000000000000000000000000000000000000000000002815260040180828152602001915050600060405180830381600087803b15801561118c57600080fd5b505af11580156111a0573d6000803e3d6000fd5b5050505080600360003373ffffffffffffffffffffffffffffffffffffffff1673ffffffffffffffffffffffffffffffffffffffff16815260200190815260200160002060006004548152602001908152602001600020600082015481600001556001820160009054906101000a900460ff168160010160006101000a81548160ff0219169083600281111561123257fe5b02179055506001820160019054906101000a900473ffffffffffffffffffffffffffffffffffffffff168160010160016101000a81548173ffffffffffffffffffffffffffffffffffffffff021916908373ffffffffffffffffffffffffffffffffffffffff1602179055506002820160009054906101000a900473ffffffffffffffffffffffffffffffffffffffff168160020160006101000a81548173ffffffffffffffffffffffffffffffffffffffff021916908373ffffffffffffffffffffffffffffffffffffffff1602179055506003820154816003015560048201548160040155600582015481600501556006820154816006015560078201548160070155600882015481600801559050507fedd0243da55ff6582df5ffe3a2386a96309214a30881fc2a4263321cbb1f307b60045433878786604051808681526020018573ffffffffffffffffffffffffffffffffffffffff1673ffffffffffffffffffffffffffffffffffffffff1681526020018481526020018381526020018281526020019550505050505060405180910390a160046000815480929190600101919050555050505050505600a165627a7a723058203d9082a395aa8e7be14a7ee1c5b4e5f1b050837a1f3e09caa9d87102782348700029",
  "source": "pragma solidity ^0.4.24;\n/*\n  In this implimentation, futures contracts are not fungible.\n  order creator selects expiry time\n  Contract closes one hour after expiry\n  TODO:\n      - add token pattern (DAI and ANT)\n      - how am i going to impliment the state transition function?\n      - create a helper function that builds buy order so i can remove code duplication\n      - create a helper function that builds sell order so i can remove code duplication\n\n*/\n\n\nimport \"../node_modules/zeppelin-solidity/contracts/math/SafeMath.sol\";\nimport \"../node_modules/zeppelin-solidity/contracts/token/ERC20/ERC20.sol\";\n\ncontract AragonFuturesOrderBook {\n  using SafeMath for uint256;\n\n  string private constant ERROR_ORDER_DOSE_NOT_EXIST = \"ORDER_DOSE_NOT_EXIST\";\n  string private constant ERROR_ORDER_IS_NOT_OPEN = \"ORDER_IS_NOT_OPEN\";\n  string private constant ERROR_ORDER_HAS_EXPIRED = \"ORDER_HAS_EXPIRED\";\n  string private constant ERROR_INSUFFICIENT_FUNDS = \"INSUFFICIENT_FUNDS\";\n\n\tERC20 ANT;\n\tERC20 DAI;\n\n  struct Order {\n    uint id;\n    State state;\n    address buyer;\n    address seller;\n    uint antAmmount;\n    uint daiAmmount;\n    uint antDeposit;\n    uint daiDeposit;\n    uint expiryTime;\n    uint closeTime;\n  }\n\n  enum State {OPEN, FILLED, EXPIRED}\n\n\n  mapping (uint => Order) public orderBook;\n  mapping (address => mapping (uint => Order)) public orders;\n  uint nextOrderId;\n  address owner;\n\n  event CreateBuyOrder(uint id, address maker, uint buyAmmount, uint sellAmmount, uint expiry);\n  event CreateSellOrder(uint id, address maker, uint buyAmmount, uint sellAmmount, uint expiry);\n  event FillBuyOrder(uint id, address taker);\n  event FillSellOrder(uint id, address taker);\n\n  // the constructor needs to create refrence to ANT and DAI\n  constructor () public {\n    owner = msg.sender;\n    nextOrderId = 0;\n  }\n\n  /*\n  *\n  */\n  function createBuyOrder(\n    uint _buyAmmount,\n    uint _sellAmmount,\n    uint _deposit,\n    uint _expiry\n    )\n    external\n    payable\n    {\n    // require msg.sender has enough DAI\n    // require deposit is correct ammount\n    Order storage newOrder = orderBook[nextOrderId];\n    orderBook[nextOrderId].id = nextOrderId;\n    orderBook[nextOrderId].state = State.OPEN;\n    orderBook[nextOrderId].buyer = msg.sender;\n    orderBook[nextOrderId].antAmmount = _buyAmmount;\n    orderBook[nextOrderId].daiAmmount = _sellAmmount;\n    orderBook[nextOrderId].daiDeposit = _deposit;\n    orderBook[nextOrderId].expiryTime = now + _expiry;\n    orderBook[nextOrderId].closeTime = orderBook[nextOrderId].expiryTime + 3600; // 1 hour\n\n    this._deposit(_deposit);\n    orders[msg.sender][nextOrderId] = newOrder;\n    emit CreateBuyOrder(nextOrderId, msg.sender, _buyAmmount, _sellAmmount, _expiry);\n    nextOrderId ++;\n  }\n\n  /*\n  *\n  */\n  function createSellOrder(\n    uint _buyAmmount,\n    uint _sellAmmount,\n    uint _deposit,\n    uint _expiry\n    )\n    external\n    payable\n    {\n    // require msg.sender has enough ANT\n    // require deposit is correct ammount\n    Order storage newOrder = orderBook[nextOrderId];\n    orderBook[nextOrderId].id = nextOrderId;\n    orderBook[nextOrderId].state = State.OPEN;\n    orderBook[nextOrderId].seller = msg.sender;\n    orderBook[nextOrderId].antAmmount = _buyAmmount;\n    orderBook[nextOrderId].daiAmmount = _sellAmmount;\n    orderBook[nextOrderId].antDeposit = _deposit;\n    orderBook[nextOrderId].expiryTime = now + _expiry;\n    orderBook[nextOrderId].closeTime = orderBook[nextOrderId].expiryTime + 3600; // 1 hour\n\n    this._deposit(_deposit);\n    orders[msg.sender][nextOrderId] = newOrder;\n    emit CreateSellOrder(nextOrderId, msg.sender, _buyAmmount, _sellAmmount, _expiry);\n    nextOrderId ++;\n  }\n\n  /*\n  *\n  */\n  function fillBuyOrder(uint _orderId, uint _deposit) external payable{\n    // require order exists\n    // require order OPEN\n    // require now < expiry\n    // require deposit is correct ammount\n    // require msg.sender has enough ANT\n    Order storage fillOrder = orderBook[_orderId];\n    fillOrder.seller = msg.sender;\n    fillOrder.antDeposit = _deposit;\n\n    this._deposit(_deposit);\n    orders[msg.sender][nextOrderId] = fillOrder;\n    emit FillBuyOrder(_orderId, msg.sender);\n  }\n\n  /*\n  *\n  */\n  function fillSellOrder(uint _orderId, uint _deposit) external payable{\n    // require order exists\n    // require order OPEN\n    // require now < expiry\n    // require deposit is correct ammount\n    // require msg.sender has enough ANT\n    Order storage fillOrder = orderBook[_orderId];\n    fillOrder.buyer = msg.sender;\n    fillOrder.daiDeposit = _deposit;\n\n    this._deposit(_deposit);\n    orders[msg.sender][nextOrderId] = fillOrder;\n    emit FillSellOrder(_orderId, msg.sender);\n  }\n\n  /*\n  *\n  */\n  function transferContract()external {}\n\n  /*\n  *\n  */\n  function cancelOrder() external{}\n\n  /*\n  *\n  */\n  function completeOrder() external payable{}\n\n  /*\n  *\n  */\n  function claimTokens() external payable{}\n\n  /*\n  *\n  */\n  function claimDeposit() external payable{}\n\n  /*\n  *\n  */\n  function getOrders() external view {}\n\n  /*\n  *\n  */\n  function _transitionState() internal{}\n\n  /*\n  *\n  */\n  function _deposit(uint _ammount){}\n}\n",
  "sourcePath": "/home/student/projects/aragon-futures/contracts/AragonFuturesOrderBook.sol",
  "compiler": {
    "name": "solc",
    "version": "0.4.24+commit.e67f0147.Emscripten.clang"
  },
  "schemaVersion": "3.0.11",
  "updatedAt": "2019-07-15T13:20:10.751Z",
  "devdoc": {
    "methods": {}
  },
  "userdoc": {
    "methods": {}
  }
}