{
  "contractName": "AragonFuturesOrderBook",
  "abi": [
    {
      "constant": true,
      "inputs": [
        {
          "name": "",
          "type": "address"
        },
        {
          "name": "",
          "type": "uint256"
        }
      ],
      "name": "orders",
      "outputs": [
        {
          "name": "id",
          "type": "uint256"
        },
        {
          "name": "state",
          "type": "uint8"
        },
        {
          "name": "buyer",
          "type": "address"
        },
        {
          "name": "seller",
          "type": "address"
        },
        {
          "name": "antAmmount",
          "type": "uint256"
        },
        {
          "name": "daiAmmount",
          "type": "uint256"
        },
        {
          "name": "antDeposit",
          "type": "uint256"
        },
        {
          "name": "daiDeposit",
          "type": "uint256"
        },
        {
          "name": "expiryTime",
          "type": "uint256"
        },
        {
          "name": "closeTime",
          "type": "uint256"
        }
      ],
      "payable": false,
      "stateMutability": "view",
      "type": "function"
    },
    {
      "constant": true,
      "inputs": [
        {
          "name": "",
          "type": "uint256"
        }
      ],
      "name": "orderBook",
      "outputs": [
        {
          "name": "id",
          "type": "uint256"
        },
        {
          "name": "state",
          "type": "uint8"
        },
        {
          "name": "buyer",
          "type": "address"
        },
        {
          "name": "seller",
          "type": "address"
        },
        {
          "name": "antAmmount",
          "type": "uint256"
        },
        {
          "name": "daiAmmount",
          "type": "uint256"
        },
        {
          "name": "antDeposit",
          "type": "uint256"
        },
        {
          "name": "daiDeposit",
          "type": "uint256"
        },
        {
          "name": "expiryTime",
          "type": "uint256"
        },
        {
          "name": "closeTime",
          "type": "uint256"
        }
      ],
      "payable": false,
      "stateMutability": "view",
      "type": "function"
    },
    {
      "inputs": [],
      "payable": false,
      "stateMutability": "nonpayable",
      "type": "constructor"
    },
    {
      "anonymous": false,
      "inputs": [
        {
          "indexed": false,
          "name": "id",
          "type": "uint256"
        },
        {
          "indexed": false,
          "name": "maker",
          "type": "address"
        },
        {
          "indexed": false,
          "name": "buyAmmount",
          "type": "uint256"
        },
        {
          "indexed": false,
          "name": "sellAmmount",
          "type": "uint256"
        },
        {
          "indexed": false,
          "name": "expiry",
          "type": "uint256"
        }
      ],
      "name": "CreateBuyOrder",
      "type": "event"
    },
    {
      "anonymous": false,
      "inputs": [
        {
          "indexed": false,
          "name": "id",
          "type": "uint256"
        },
        {
          "indexed": false,
          "name": "maker",
          "type": "address"
        },
        {
          "indexed": false,
          "name": "buyAmmount",
          "type": "uint256"
        },
        {
          "indexed": false,
          "name": "sellAmmount",
          "type": "uint256"
        },
        {
          "indexed": false,
          "name": "expiry",
          "type": "uint256"
        }
      ],
      "name": "CreateSellOrder",
      "type": "event"
    },
    {
      "anonymous": false,
      "inputs": [
        {
          "indexed": false,
          "name": "id",
          "type": "uint256"
        },
        {
          "indexed": false,
          "name": "taker",
          "type": "address"
        }
      ],
      "name": "FillBuyOrder",
      "type": "event"
    },
    {
      "anonymous": false,
      "inputs": [
        {
          "indexed": false,
          "name": "id",
          "type": "uint256"
        },
        {
          "indexed": false,
          "name": "taker",
          "type": "address"
        }
      ],
      "name": "FillSellOrder",
      "type": "event"
    },
    {
      "constant": false,
      "inputs": [
        {
          "name": "_buyAmmount",
          "type": "uint256"
        },
        {
          "name": "_sellAmmount",
          "type": "uint256"
        },
        {
          "name": "_deposit",
          "type": "uint256"
        },
        {
          "name": "_expiry",
          "type": "uint256"
        }
      ],
      "name": "createBuyOrder",
      "outputs": [],
      "payable": true,
      "stateMutability": "payable",
      "type": "function"
    },
    {
      "constant": false,
      "inputs": [
        {
          "name": "_buyAmmount",
          "type": "uint256"
        },
        {
          "name": "_sellAmmount",
          "type": "uint256"
        },
        {
          "name": "_deposit",
          "type": "uint256"
        },
        {
          "name": "_expiry",
          "type": "uint256"
        }
      ],
      "name": "createSellOrder",
      "outputs": [],
      "payable": true,
      "stateMutability": "payable",
      "type": "function"
    },
    {
      "constant": false,
      "inputs": [
        {
          "name": "_orderId",
          "type": "uint256"
        },
        {
          "name": "_deposit",
          "type": "uint256"
        }
      ],
      "name": "fillBuyOrder",
      "outputs": [],
      "payable": true,
      "stateMutability": "payable",
      "type": "function"
    },
    {
      "constant": false,
      "inputs": [
        {
          "name": "_orderId",
          "type": "uint256"
        },
        {
          "name": "_deposit",
          "type": "uint256"
        }
      ],
      "name": "fillSellOrder",
      "outputs": [],
      "payable": true,
      "stateMutability": "payable",
      "type": "function"
    },
    {
      "constant": false,
      "inputs": [
        {
          "name": "_id",
          "type": "uint256"
        },
        {
          "name": "_to",
          "type": "address"
        }
      ],
      "name": "transferContract",
      "outputs": [],
      "payable": false,
      "stateMutability": "nonpayable",
      "type": "function"
    },
    {
      "constant": false,
      "inputs": [
        {
          "name": "_id",
          "type": "uint256"
        }
      ],
      "name": "cancelOrder",
      "outputs": [],
      "payable": false,
      "stateMutability": "nonpayable",
      "type": "function"
    },
    {
      "constant": false,
      "inputs": [
        {
          "name": "_orderId",
          "type": "uint256"
        },
        {
          "name": "_deposit",
          "type": "uint256"
        }
      ],
      "name": "completeOrder",
      "outputs": [],
      "payable": true,
      "stateMutability": "payable",
      "type": "function"
    },
    {
      "constant": false,
      "inputs": [],
      "name": "claimTokens",
      "outputs": [],
      "payable": true,
      "stateMutability": "payable",
      "type": "function"
    },
    {
      "constant": false,
      "inputs": [],
      "name": "claimDeposit",
      "outputs": [],
      "payable": true,
      "stateMutability": "payable",
      "type": "function"
    }
  ],
  "bytecode": "0x608060405234801561001057600080fd5b506000600481905550730d5263b7969144a852d58505602f630f9b20239d6000806101000a81548173ffffffffffffffffffffffffffffffffffffffff021916908373ffffffffffffffffffffffffffffffffffffffff160217905550730527e400502d0cb4f214dd0d2f2a323fc88ff924600160006101000a81548173ffffffffffffffffffffffffffffffffffffffff021916908373ffffffffffffffffffffffffffffffffffffffff160217905550612d97806100d16000396000f3006080604052600436106100af576000357c0100000000000000000000000000000000000000000000000000000000900463ffffffff16806316598914146100b457806329d07a51146100d057806337609bb2146100da57806348c54b9d146100f6578063514fcac714610100578063793b8c6d146101295780638d5796d01461016f578063a20b6e341461018b578063c0d5d96f146101d1578063d1519648146101ed578063f199aeb014610216575b600080fd5b6100ce60048036036100c991908101906129f8565b610232565b005b6100d86108a0565b005b6100f460048036036100ef9190810190612a34565b6108a2565b005b6100fe610e36565b005b34801561010c57600080fd5b506101276004803603610122919081019061296a565b610e38565b005b34801561013557600080fd5b50610150600480360361014b9190810190612905565b610f0d565b6040516101669a99989796959493929190612bea565b60405180910390f35b610189600480360361018491908101906129f8565b610fbb565b005b34801561019757600080fd5b506101b260048036036101ad919081019061296a565b611627565b6040516101c89a99989796959493929190612bea565b60405180910390f35b6101eb60048036036101e691908101906129f8565b6116c8565b005b3480156101f957600080fd5b50610214600480360361020f91908101906129bc565b611c82565b005b610230600480360361022b9190810190612a34565b61224d565b005b600080600260008581526020019081526020016000206007015414156040805190810160405280601481526020017f4f524445525f444f53455f4e4f545f45584953540000000000000000000000008152509015156102c7576040517f08c379a00000000000000000000000000000000000000000000000000000000081526004016102be9190612b4c565b60405180910390fd5b50600060038111156102d557fe5b6002600085815260200190815260200160002060010160009054906101000a900460ff16600381111561030457fe5b146040805190810160405280601181526020017f4f524445525f49535f4e4f545f4f50454e00000000000000000000000000000081525090151561037e576040517f08c379a00000000000000000000000000000000000000000000000000000000081526004016103759190612b4c565b60405180910390fd5b50426002600085815260200190815260200160002060070154116040805190810160405280601181526020017f4f524445525f4841535f45585049524544000000000000000000000000000000815250901515610411576040517f08c379a00000000000000000000000000000000000000000000000000000000081526004016104089190612b4c565b60405180910390fd5b508161043c6002806000878152602001908152602001600020600401546127e390919063ffffffff16565b146040805190810160405280601781526020017f494e434f52524543545f4445504f5349545f56414c55450000000000000000008152509015156104b6576040517f08c379a00000000000000000000000000000000000000000000000000000000081526004016104ad9190612b4c565b60405180910390fd5b50600160009054906101000a900473ffffffffffffffffffffffffffffffffffffffff1673ffffffffffffffffffffffffffffffffffffffff166370a08231336040518263ffffffff167c010000000000000000000000000000000000000000000000000000000002815260040161052e9190612afa565b602060405180830381600087803b15801561054857600080fd5b505af115801561055c573d6000803e3d6000fd5b505050506040513d601f19601f820116820180604052506105809190810190612993565b6002600085815260200190815260200160002060040154106040805190810160405280601281526020017f494e53554646494349454e545f46554e44530000000000000000000000000000815250901515610611576040517f08c379a00000000000000000000000000000000000000000000000000000000081526004016106089190612b4c565b60405180910390fd5b50610661333084600160009054906101000a900473ffffffffffffffffffffffffffffffffffffffff1673ffffffffffffffffffffffffffffffffffffffff166127f9909392919063ffffffff16565b600260008481526020019081526020016000209050338160020160006101000a81548173ffffffffffffffffffffffffffffffffffffffff021916908373ffffffffffffffffffffffffffffffffffffffff16021790555081816005018190555080600360003373ffffffffffffffffffffffffffffffffffffffff1673ffffffffffffffffffffffffffffffffffffffff16815260200190815260200160002060006004548152602001908152602001600020600082015481600001556001820160009054906101000a900460ff168160010160006101000a81548160ff0219169083600381111561075057fe5b02179055506001820160019054906101000a900473ffffffffffffffffffffffffffffffffffffffff168160010160016101000a81548173ffffffffffffffffffffffffffffffffffffffff021916908373ffffffffffffffffffffffffffffffffffffffff1602179055506002820160009054906101000a900473ffffffffffffffffffffffffffffffffffffffff168160020160006101000a81548173ffffffffffffffffffffffffffffffffffffffff021916908373ffffffffffffffffffffffffffffffffffffffff1602179055506003820154816003015560048201548160040155600582015481600501556006820154816006015560078201548160070155600882015481600801559050507fcbe49e0c6f1880113d4682989f006c7a95d41c91ab2c1a0096fba8e8b78c81568333604051610893929190612b6e565b60405180910390a1505050565b565b6000836000809054906101000a900473ffffffffffffffffffffffffffffffffffffffff1673ffffffffffffffffffffffffffffffffffffffff166370a08231336040518263ffffffff167c010000000000000000000000000000000000000000000000000000000002815260040161091b9190612afa565b602060405180830381600087803b15801561093557600080fd5b505af1158015610949573d6000803e3d6000fd5b505050506040513d601f19601f8201168201806040525061096d9190810190612993565b116040805190810160405280601281526020017f494e53554646494349454e545f46554e445300000000000000000000000000008152509015156109e7576040517f08c379a00000000000000000000000000000000000000000000000000000000081526004016109de9190612b4c565b60405180910390fd5b506109fc6002856127e390919063ffffffff16565b83146040805190810160405280601781526020017f494e434f52524543545f4445504f5349545f56414c5545000000000000000000815250901515610a77576040517f08c379a0000000000000000000000000000000000000000000000000000000008152600401610a6e9190612b4c565b60405180910390fd5b50610ac63330856000809054906101000a900473ffffffffffffffffffffffffffffffffffffffff1673ffffffffffffffffffffffffffffffffffffffff166127f9909392919063ffffffff16565b600260006004548152602001908152602001600020905060045460026000600454815260200190815260200160002060000181905550600060026000600454815260200190815260200160002060010160006101000a81548160ff02191690836003811115610b3157fe5b02179055503360026000600454815260200190815260200160002060020160006101000a81548173ffffffffffffffffffffffffffffffffffffffff021916908373ffffffffffffffffffffffffffffffffffffffff16021790555084600260006004548152602001908152602001600020600401819055508360026000600454815260200190815260200160002060030181905550826002600060045481526020019081526020016000206005018190555081420160026000600454815260200190815260200160002060070181905550610e1060026000600454815260200190815260200160002060070154016002600060045481526020019081526020016000206008018190555080600360003373ffffffffffffffffffffffffffffffffffffffff1673ffffffffffffffffffffffffffffffffffffffff16815260200190815260200160002060006004548152602001908152602001600020600082015481600001556001820160009054906101000a900460ff168160010160006101000a81548160ff02191690836003811115610cca57fe5b02179055506001820160019054906101000a900473ffffffffffffffffffffffffffffffffffffffff168160010160016101000a81548173ffffffffffffffffffffffffffffffffffffffff021916908373ffffffffffffffffffffffffffffffffffffffff1602179055506002820160009054906101000a900473ffffffffffffffffffffffffffffffffffffffff168160020160006101000a81548173ffffffffffffffffffffffffffffffffffffffff021916908373ffffffffffffffffffffffffffffffffffffffff1602179055506003820154816003015560048201548160040155600582015481600501556006820154816006015560078201548160070155600882015481600801559050507f19e043374e838f328ba69f96b50b56762026ea82bfa3cbb72cd6229ff388f14a60045433878786604051610e15959493929190612b97565b60405180910390a16004600081548092919060010191905055505050505050565b565b6000600360003373ffffffffffffffffffffffffffffffffffffffff1673ffffffffffffffffffffffffffffffffffffffff16815260200190815260200160002060008381526020019081526020016000206007015414156040805190810160405280601481526020017f4f524445525f444f53455f4e4f545f4558495354000000000000000000000000815250901515610f09576040517f08c379a0000000000000000000000000000000000000000000000000000000008152600401610f009190612b4c565b60405180910390fd5b5050565b6003602052816000526040600020602052806000526040600020600091509150508060000154908060010160009054906101000a900460ff16908060010160019054906101000a900473ffffffffffffffffffffffffffffffffffffffff16908060020160009054906101000a900473ffffffffffffffffffffffffffffffffffffffff1690806003015490806004015490806005015490806006015490806007015490806008015490508a565b600080600260008581526020019081526020016000206007015414156040805190810160405280601481526020017f4f524445525f444f53455f4e4f545f4558495354000000000000000000000000815250901515611050576040517f08c379a00000000000000000000000000000000000000000000000000000000081526004016110479190612b4c565b60405180910390fd5b506000600381111561105e57fe5b6002600085815260200190815260200160002060010160009054906101000a900460ff16600381111561108d57fe5b146040805190810160405280601181526020017f4f524445525f49535f4e4f545f4f50454e000000000000000000000000000000815250901515611107576040517f08c379a00000000000000000000000000000000000000000000000000000000081526004016110fe9190612b4c565b60405180910390fd5b50426002600085815260200190815260200160002060070154116040805190810160405280601181526020017f4f524445525f4841535f4558504952454400000000000000000000000000000081525090151561119a576040517f08c379a00000000000000000000000000000000000000000000000000000000081526004016111919190612b4c565b60405180910390fd5b50816111c56002806000878152602001908152602001600020600301546127e390919063ffffffff16565b146040805190810160405280601781526020017f494e434f52524543545f4445504f5349545f56414c554500000000000000000081525090151561123f576040517f08c379a00000000000000000000000000000000000000000000000000000000081526004016112369190612b4c565b60405180910390fd5b506000809054906101000a900473ffffffffffffffffffffffffffffffffffffffff1673ffffffffffffffffffffffffffffffffffffffff166370a08231336040518263ffffffff167c01000000000000000000000000000000000000000000000000000000000281526004016112b69190612afa565b602060405180830381600087803b1580156112d057600080fd5b505af11580156112e4573d6000803e3d6000fd5b505050506040513d601f19601f820116820180604052506113089190810190612993565b6002600085815260200190815260200160002060030154106040805190810160405280601281526020017f494e53554646494349454e545f46554e44530000000000000000000000000000815250901515611399576040517f08c379a00000000000000000000000000000000000000000000000000000000081526004016113909190612b4c565b60405180910390fd5b506113e83330846000809054906101000a900473ffffffffffffffffffffffffffffffffffffffff1673ffffffffffffffffffffffffffffffffffffffff166127f9909392919063ffffffff16565b600260008481526020019081526020016000209050338160020160006101000a81548173ffffffffffffffffffffffffffffffffffffffff021916908373ffffffffffffffffffffffffffffffffffffffff16021790555081816005018190555080600360003373ffffffffffffffffffffffffffffffffffffffff1673ffffffffffffffffffffffffffffffffffffffff16815260200190815260200160002060006004548152602001908152602001600020600082015481600001556001820160009054906101000a900460ff168160010160006101000a81548160ff021916908360038111156114d757fe5b02179055506001820160019054906101000a900473ffffffffffffffffffffffffffffffffffffffff168160010160016101000a81548173ffffffffffffffffffffffffffffffffffffffff021916908373ffffffffffffffffffffffffffffffffffffffff1602179055506002820160009054906101000a900473ffffffffffffffffffffffffffffffffffffffff168160020160006101000a81548173ffffffffffffffffffffffffffffffffffffffff021916908373ffffffffffffffffffffffffffffffffffffffff1602179055506003820154816003015560048201548160040155600582015481600501556006820154816006015560078201548160070155600882015481600801559050507f37812618b8ac54bf622cc187d6fafed977419c6c886c8f900e78bcfa0573b3da833360405161161a929190612b6e565b60405180910390a1505050565b60026020528060005260406000206000915090508060000154908060010160009054906101000a900460ff16908060010160019054906101000a900473ffffffffffffffffffffffffffffffffffffffff16908060020160009054906101000a900473ffffffffffffffffffffffffffffffffffffffff1690806003015490806004015490806005015490806006015490806007015490806008015490508a565b3373ffffffffffffffffffffffffffffffffffffffff166002600084815260200190815260200160002060010160019054906101000a900473ffffffffffffffffffffffffffffffffffffffff1673ffffffffffffffffffffffffffffffffffffffff16148061179957503373ffffffffffffffffffffffffffffffffffffffff166002600084815260200190815260200160002060010160019054906101000a900473ffffffffffffffffffffffffffffffffffffffff1673ffffffffffffffffffffffffffffffffffffffff16145b6040805190810160405280601581526020017f4e4f545f4f574e45525f4f465f434f4e54524143540000000000000000000000815250901515611812576040517f08c379a00000000000000000000000000000000000000000000000000000000081526004016118099190612b4c565b60405180910390fd5b506000600260008481526020019081526020016000206007015414156040805190810160405280601481526020017f4f524445525f444f53455f4e4f545f45584953540000000000000000000000008152509015156118a7576040517f08c379a000000000000000000000000000000000000000000000000000000000815260040161189e9190612b4c565b60405180910390fd5b50426002600084815260200190815260200160002060070154116040805190810160405280601a81526020017f5041594d454e545f57494e444f575f4e4f545f5245414348454400000000000081525090151561193a576040517f08c379a00000000000000000000000000000000000000000000000000000000081526004016119319190612b4c565b60405180910390fd5b5060026000838152602001908152602001600020600801546002600084815260200190815260200160002060070154106040805190810160405280600c81526020017f4f524445525f434c4f53454400000000000000000000000000000000000000008152509015156119e3576040517f08c379a00000000000000000000000000000000000000000000000000000000081526004016119da9190612b4c565b60405180910390fd5b503373ffffffffffffffffffffffffffffffffffffffff166002600084815260200190815260200160002060010160019054906101000a900473ffffffffffffffffffffffffffffffffffffffff1673ffffffffffffffffffffffffffffffffffffffff161415611b3157806002600084815260200190815260200160002060060154146040805190810160405280601781526020017f494e434f52524543545f4445504f5349545f56414c5545000000000000000000815250901515611ae0576040517f08c379a0000000000000000000000000000000000000000000000000000000008152600401611ad79190612b4c565b60405180910390fd5b50611b30333083600160009054906101000a900473ffffffffffffffffffffffffffffffffffffffff1673ffffffffffffffffffffffffffffffffffffffff166127f9909392919063ffffffff16565b5b3373ffffffffffffffffffffffffffffffffffffffff166002600084815260200190815260200160002060020160009054906101000a900473ffffffffffffffffffffffffffffffffffffffff1673ffffffffffffffffffffffffffffffffffffffff161415611c7e57806002600084815260200190815260200160002060050154146040805190810160405280601781526020017f494e434f52524543545f4445504f5349545f56414c5545000000000000000000815250901515611c2d576040517f08c379a0000000000000000000000000000000000000000000000000000000008152600401611c249190612b4c565b60405180910390fd5b50611c7d333083600160009054906101000a900473ffffffffffffffffffffffffffffffffffffffff1673ffffffffffffffffffffffffffffffffffffffff166127f9909392919063ffffffff16565b5b5050565b6000600260008481526020019081526020016000206007015414156040805190810160405280601481526020017f4f524445525f444f53455f4e4f545f4558495354000000000000000000000000815250901515611d16576040517f08c379a0000000000000000000000000000000000000000000000000000000008152600401611d0d9190612b4c565b60405180910390fd5b503373ffffffffffffffffffffffffffffffffffffffff166002600084815260200190815260200160002060010160019054906101000a900473ffffffffffffffffffffffffffffffffffffffff1673ffffffffffffffffffffffffffffffffffffffff161480611de857503373ffffffffffffffffffffffffffffffffffffffff166002600084815260200190815260200160002060010160019054906101000a900473ffffffffffffffffffffffffffffffffffffffff1673ffffffffffffffffffffffffffffffffffffffff16145b6040805190810160405280601581526020017f4e4f545f4f574e45525f4f465f434f4e54524143540000000000000000000000815250901515611e61576040517f08c379a0000000000000000000000000000000000000000000000000000000008152600401611e589190612b4c565b60405180910390fd5b50600360003373ffffffffffffffffffffffffffffffffffffffff1673ffffffffffffffffffffffffffffffffffffffff16815260200190815260200160002060008381526020019081526020016000206000808201600090556001820160006101000a81549060ff02191690556001820160016101000a81549073ffffffffffffffffffffffffffffffffffffffff02191690556002820160006101000a81549073ffffffffffffffffffffffffffffffffffffffff021916905560038201600090556004820160009055600582016000905560068201600090556007820160009055600882016000905550503373ffffffffffffffffffffffffffffffffffffffff166002600084815260200190815260200160002060010160019054906101000a900473ffffffffffffffffffffffffffffffffffffffff1673ffffffffffffffffffffffffffffffffffffffff161415611ff4578073ffffffffffffffffffffffffffffffffffffffff166002600084815260200190815260200160002060010160019054906101000a905050505b3373ffffffffffffffffffffffffffffffffffffffff166002600084815260200190815260200160002060020160009054906101000a900473ffffffffffffffffffffffffffffffffffffffff1673ffffffffffffffffffffffffffffffffffffffff161415612099578073ffffffffffffffffffffffffffffffffffffffff166002600084815260200190815260200160002060020160009054906101000a905050505b60026000838152602001908152602001600020600360008373ffffffffffffffffffffffffffffffffffffffff1673ffffffffffffffffffffffffffffffffffffffff1681526020019081526020016000206000848152602001908152602001600020600082015481600001556001820160009054906101000a900460ff168160010160006101000a81548160ff0219169083600381111561213757fe5b02179055506001820160019054906101000a900473ffffffffffffffffffffffffffffffffffffffff168160010160016101000a81548173ffffffffffffffffffffffffffffffffffffffff021916908373ffffffffffffffffffffffffffffffffffffffff1602179055506002820160009054906101000a900473ffffffffffffffffffffffffffffffffffffffff168160020160006101000a81548173ffffffffffffffffffffffffffffffffffffffff021916908373ffffffffffffffffffffffffffffffffffffffff1602179055506003820154816003015560048201548160040155600582015481600501556006820154816006015560078201548160070155600882015481600801559050505050565b600083600160009054906101000a900473ffffffffffffffffffffffffffffffffffffffff1673ffffffffffffffffffffffffffffffffffffffff166370a08231336040518263ffffffff167c01000000000000000000000000000000000000000000000000000000000281526004016122c79190612afa565b602060405180830381600087803b1580156122e157600080fd5b505af11580156122f5573d6000803e3d6000fd5b505050506040513d601f19601f820116820180604052506123199190810190612993565b116040805190810160405280601281526020017f494e53554646494349454e545f46554e44530000000000000000000000000000815250901515612393576040517f08c379a000000000000000000000000000000000000000000000000000000000815260040161238a9190612b4c565b60405180910390fd5b506123a86002866127e390919063ffffffff16565b83146040805190810160405280601781526020017f494e434f52524543545f4445504f5349545f56414c5545000000000000000000815250901515612423576040517f08c379a000000000000000000000000000000000000000000000000000000000815260040161241a9190612b4c565b60405180910390fd5b50612473333085600160009054906101000a900473ffffffffffffffffffffffffffffffffffffffff1673ffffffffffffffffffffffffffffffffffffffff166127f9909392919063ffffffff16565b600260006004548152602001908152602001600020905060045460026000600454815260200190815260200160002060000181905550600060026000600454815260200190815260200160002060010160006101000a81548160ff021916908360038111156124de57fe5b02179055503360026000600454815260200190815260200160002060010160016101000a81548173ffffffffffffffffffffffffffffffffffffffff021916908373ffffffffffffffffffffffffffffffffffffffff16021790555084600260006004548152602001908152602001600020600301819055508360026000600454815260200190815260200160002060040181905550826002600060045481526020019081526020016000206006018190555081420160026000600454815260200190815260200160002060070181905550610e1060026000600454815260200190815260200160002060070154016002600060045481526020019081526020016000206008018190555080600360003373ffffffffffffffffffffffffffffffffffffffff1673ffffffffffffffffffffffffffffffffffffffff16815260200190815260200160002060006004548152602001908152602001600020600082015481600001556001820160009054906101000a900460ff168160010160006101000a81548160ff0219169083600381111561267757fe5b02179055506001820160019054906101000a900473ffffffffffffffffffffffffffffffffffffffff168160010160016101000a81548173ffffffffffffffffffffffffffffffffffffffff021916908373ffffffffffffffffffffffffffffffffffffffff1602179055506002820160009054906101000a900473ffffffffffffffffffffffffffffffffffffffff168160020160006101000a81548173ffffffffffffffffffffffffffffffffffffffff021916908373ffffffffffffffffffffffffffffffffffffffff1602179055506003820154816003015560048201548160040155600582015481600501556006820154816006015560078201548160070155600882015481600801559050507fedd0243da55ff6582df5ffe3a2386a96309214a30881fc2a4263321cbb1f307b600454338787866040516127c2959493929190612b97565b60405180910390a16004600081548092919060010191905055505050505050565b600081838115156127f057fe5b04905092915050565b8373ffffffffffffffffffffffffffffffffffffffff166323b872dd8484846040518463ffffffff167c010000000000000000000000000000000000000000000000000000000002815260040161285293929190612b15565b602060405180830381600087803b15801561286c57600080fd5b505af1158015612880573d6000803e3d6000fd5b505050506040513d601f19601f820116820180604052506128a49190810190612941565b15156128af57600080fd5b50505050565b60006128c18235612cd1565b905092915050565b60006128d58251612cf1565b905092915050565b60006128e98235612cfd565b905092915050565b60006128fd8251612cfd565b905092915050565b6000806040838503121561291857600080fd5b6000612926858286016128b5565b9250506020612937858286016128dd565b9150509250929050565b60006020828403121561295357600080fd5b6000612961848285016128c9565b91505092915050565b60006020828403121561297c57600080fd5b600061298a848285016128dd565b91505092915050565b6000602082840312156129a557600080fd5b60006129b3848285016128f1565b91505092915050565b600080604083850312156129cf57600080fd5b60006129dd858286016128dd565b92505060206129ee858286016128b5565b9150509250929050565b60008060408385031215612a0b57600080fd5b6000612a19858286016128dd565b9250506020612a2a858286016128dd565b9150509250929050565b60008060008060808587031215612a4a57600080fd5b6000612a58878288016128dd565b9450506020612a69878288016128dd565b9350506040612a7a878288016128dd565b9250506060612a8b878288016128dd565b91505092959194509250565b612aa081612c91565b82525050565b612aaf81612d07565b82525050565b6000612ac082612c86565b808452612ad4816020860160208601612d19565b612add81612d4c565b602085010191505092915050565b612af481612cc7565b82525050565b6000602082019050612b0f6000830184612a97565b92915050565b6000606082019050612b2a6000830186612a97565b612b376020830185612a97565b612b446040830184612aeb565b949350505050565b60006020820190508181036000830152612b668184612ab5565b905092915050565b6000604082019050612b836000830185612aeb565b612b906020830184612a97565b9392505050565b600060a082019050612bac6000830188612aeb565b612bb96020830187612a97565b612bc66040830186612aeb565b612bd36060830185612aeb565b612be06080830184612aeb565b9695505050505050565b600061014082019050612c00600083018d612aeb565b612c0d602083018c612aa6565b612c1a604083018b612a97565b612c27606083018a612a97565b612c346080830189612aeb565b612c4160a0830188612aeb565b612c4e60c0830187612aeb565b612c5b60e0830186612aeb565b612c69610100830185612aeb565b612c77610120830184612aeb565b9b9a5050505050505050505050565b600081519050919050565b600073ffffffffffffffffffffffffffffffffffffffff82169050919050565b6000600482101515612cbf57fe5b819050919050565b6000819050919050565b600073ffffffffffffffffffffffffffffffffffffffff82169050919050565b60008115159050919050565b6000819050919050565b6000612d1282612cb1565b9050919050565b60005b83811015612d37578082015181840152602081019050612d1c565b83811115612d46576000848401525b50505050565b6000601f19601f83011690509190505600a265627a7a723058202639ae1416e876060c4b41009a1f904288f270e7f3e651eb4038f2899d5ebf2f6c6578706572696d656e74616cf50037",
  "source": "pragma solidity ^0.4.24;\npragma experimental ABIEncoderV2;\n/*\n  In this implimentation, futures contracts are not fungible.\n  - order creator selects expiry time\n  - Contract closes one hour after expiry\n  \n  TODO:\n  - impliment state transition function\n        - state transition function should run after every interaction and update the state of the order\n  - refactor buy/sell & fillBuy/fillSell so there are only 2 functions instead of 4\n  - refactor require functions as modifiers\n*/\n\n\nimport \"../node_modules/zeppelin-solidity/contracts/math/SafeMath.sol\";\nimport \"../node_modules/zeppelin-solidity/contracts/token/ERC20/ERC20.sol\";\nimport \"../node_modules/zeppelin-solidity/contracts/token/ERC20/SafeERC20.sol\";\n\ncontract AragonFuturesOrderBook {\n  using SafeMath for uint256;\n  using SafeERC20 for ERC20;\n\n  string private constant ERROR_NOT_OWNER_OF_CONTRACT = \"NOT_OWNER_OF_CONTRACT\";\n  string private constant ERROR_ORDER_DOSE_NOT_EXIST = \"ORDER_DOSE_NOT_EXIST\";\n  string private constant ERROR_ORDER_IS_NOT_OPEN = \"ORDER_IS_NOT_OPEN\";\n  string private constant ERROR_ORDER_CLOSED = \"ORDER_CLOSED\";\n  string private constant ERROR_ORDER_HAS_EXPIRED = \"ORDER_HAS_EXPIRED\";\n  string private constant ERROR_INSUFFICIENT_FUNDS = \"INSUFFICIENT_FUNDS\";\n  string private constant ERROR_INCORRECT_DEPOSIT_VALUE = \"INCORRECT_DEPOSIT_VALUE\";\n  string private constant ERROR_PAYMENT_WINDOW_NOT_REACHED = \"PAYMENT_WINDOW_NOT_REACHED\";\n\n\n  struct Order {\n    uint id;\n    State state;\n    address buyer;\n    address seller;\n    uint antAmmount;\n    uint daiAmmount;\n    uint antDeposit;\n    uint daiDeposit;\n    uint expiryTime;\n    uint closeTime;\n  }\n\n  enum State {OPEN, FILLED, EXPIRED, CANCELED}\n  enum Type {BUY, SELL}\n  ERC20 ANT;\n  ERC20 DAI;\n  mapping (uint => Order) public orderBook;\n  mapping (address => mapping (uint => Order)) public orders;\n  uint nextOrderId;\n\n  event CreateBuyOrder(uint id, address maker, uint buyAmmount, uint sellAmmount, uint expiry);\n  event CreateSellOrder(uint id, address maker, uint buyAmmount, uint sellAmmount, uint expiry);\n  event FillBuyOrder(uint id, address taker);\n  event FillSellOrder(uint id, address taker);\n\n  constructor () public {\n    nextOrderId = 0;\n\t\tANT = ERC20(0x0D5263B7969144a852D58505602f630f9b20239D); // rinkeby\n\t\tDAI = ERC20(0x0527E400502d0CB4f214dd0D2F2a323fc88Ff924); // rinkeby\n  }\n\n  /*\n  *\n  */\n  function createBuyOrder(\n    uint _buyAmmount,\n    uint _sellAmmount,\n    uint _deposit,\n    uint _expiry\n    )\n    external\n    payable\n    {\n    require(DAI.balanceOf(msg.sender) > _sellAmmount, ERROR_INSUFFICIENT_FUNDS); // require msg.sender has enough DAI\n    require(_deposit == _buyAmmount.div(2), ERROR_INCORRECT_DEPOSIT_VALUE);\n\n    DAI.safeTransferFrom(msg.sender, this, _deposit);\n    Order storage newOrder = orderBook[nextOrderId];\n    orderBook[nextOrderId].id = nextOrderId;\n    orderBook[nextOrderId].state = State.OPEN;\n    orderBook[nextOrderId].buyer = msg.sender;\n    orderBook[nextOrderId].antAmmount = _buyAmmount;\n    orderBook[nextOrderId].daiAmmount = _sellAmmount;\n    orderBook[nextOrderId].daiDeposit = _deposit;\n    orderBook[nextOrderId].expiryTime = now + _expiry;\n    orderBook[nextOrderId].closeTime = orderBook[nextOrderId].expiryTime + 3600; // 1 hour\n\n    orders[msg.sender][nextOrderId] = newOrder;\n    emit CreateBuyOrder(nextOrderId, msg.sender, _buyAmmount, _sellAmmount, _expiry);\n    nextOrderId ++;\n  }\n\n  /*\n  *\n  */\n  function createSellOrder(\n    uint _buyAmmount,\n    uint _sellAmmount,\n    uint _deposit,\n    uint _expiry\n  )\n    external\n    payable\n    {\n    require(ANT.balanceOf(msg.sender) > _sellAmmount, ERROR_INSUFFICIENT_FUNDS); // require msg.sender has enough ANT\n    require(_deposit == _sellAmmount.div(2), ERROR_INCORRECT_DEPOSIT_VALUE);\n\n    ANT.safeTransferFrom(msg.sender, this, _deposit);\n    Order storage newOrder = orderBook[nextOrderId];\n    orderBook[nextOrderId].id = nextOrderId;\n    orderBook[nextOrderId].state = State.OPEN;\n    orderBook[nextOrderId].seller = msg.sender;\n    orderBook[nextOrderId].daiAmmount = _buyAmmount;\n    orderBook[nextOrderId].antAmmount = _sellAmmount;\n    orderBook[nextOrderId].antDeposit = _deposit;\n    orderBook[nextOrderId].expiryTime = now + _expiry;\n    orderBook[nextOrderId].closeTime = orderBook[nextOrderId].expiryTime + 3600; // 1 hour\n    orders[msg.sender][nextOrderId] = newOrder;\n    \n    emit CreateSellOrder(nextOrderId, msg.sender, _buyAmmount, _sellAmmount, _expiry);\n    nextOrderId ++;\n  }\n\n  /*\n  *\n  */\n  function fillBuyOrder(uint _orderId, uint _deposit) external payable{\n    require(orderBook[_orderId].expiryTime != 0, ERROR_ORDER_DOSE_NOT_EXIST); // require order exists, is there a better test?\n    require(orderBook[_orderId].state == State.OPEN, ERROR_ORDER_IS_NOT_OPEN); // require order OPEN\n    require(orderBook[_orderId].expiryTime > now, ERROR_ORDER_HAS_EXPIRED); // require now < expiry\n    require(orderBook[_orderId].antAmmount.div(2) == _deposit, ERROR_INCORRECT_DEPOSIT_VALUE); // require deposit is correct ammount\n    require(orderBook[_orderId].antAmmount < ANT.balanceOf(msg.sender), ERROR_INSUFFICIENT_FUNDS);// require msg.sender has enough DAI\n    \n    ANT.safeTransferFrom(msg.sender, this, _deposit);\n    Order storage fillOrder = orderBook[_orderId];\n    fillOrder.seller = msg.sender;\n    fillOrder.antDeposit = _deposit;\n\n    orders[msg.sender][nextOrderId] = fillOrder;\n    emit FillBuyOrder(_orderId, msg.sender);\n  }\n\n  /*\n  *\n  */\n  function fillSellOrder(uint _orderId, uint _deposit) external payable{\n    require(orderBook[_orderId].expiryTime != 0, ERROR_ORDER_DOSE_NOT_EXIST); // require order exists, is there a better test?\n    require(orderBook[_orderId].state == State.OPEN, ERROR_ORDER_IS_NOT_OPEN); // require order OPEN\n    require(orderBook[_orderId].expiryTime > now, ERROR_ORDER_HAS_EXPIRED); // require now < expiry\n    require(orderBook[_orderId].daiAmmount.div(2) == _deposit, ERROR_INCORRECT_DEPOSIT_VALUE); // require deposit is correct ammount\n    require(orderBook[_orderId].daiAmmount < DAI.balanceOf(msg.sender), ERROR_INSUFFICIENT_FUNDS);// require msg.sender has enough DAI\n    \n    DAI.safeTransferFrom(msg.sender, this, _deposit);\n    Order storage fillOrder = orderBook[_orderId];\n    fillOrder.seller = msg.sender;\n    fillOrder.antDeposit = _deposit;\n\n    orders[msg.sender][nextOrderId] = fillOrder;\n    emit FillSellOrder(_orderId, msg.sender);\n  }\n\n  /*\n  *\n  */\n  function transferContract(uint _id, address _to)external {\n    require(orderBook[_id].expiryTime != 0, ERROR_ORDER_DOSE_NOT_EXIST); // require order exists, is there a better test?\n    require(orderBook[_id].buyer == msg.sender || orderBook[_id].buyer == msg.sender, ERROR_NOT_OWNER_OF_CONTRACT);\n    \n    // remove key from orders of message sender\n    delete orders[msg.sender][_id];\n\n    // change key from msg.sender to _to\n    if(orderBook[_id].buyer == msg.sender){\n      orderBook[_id].buyer == _to;\n    }\n    if(orderBook[_id].seller == msg.sender){\n      orderBook[_id].seller == _to;\n    }\n    orders[_to][_id] = orderBook[_id];\n  }\n\n  /*\n  *\n  */\n  function cancelOrder(uint _id) external{\n      require(orders[msg.sender][_id].expiryTime != 0, ERROR_ORDER_DOSE_NOT_EXIST);\n      \n      // call state transition function\n  }\n\n  /*\n  *\n  */\n  function completeOrder(uint _orderId, uint _deposit) external payable{\n    require(orderBook[_orderId].buyer == msg.sender || orderBook[_orderId].buyer == msg.sender, ERROR_NOT_OWNER_OF_CONTRACT);\n    require(orderBook[_orderId].expiryTime != 0, ERROR_ORDER_DOSE_NOT_EXIST); // require order exists, is there a better test?\n    require(orderBook[_orderId].expiryTime > now, ERROR_PAYMENT_WINDOW_NOT_REACHED); // require order exists, is there a better test?\n    require(orderBook[_orderId].expiryTime < orderBook[_orderId].closeTime, ERROR_ORDER_CLOSED); // require order exists, is there a better test?\n\n    \n    if(orderBook[_orderId].buyer == msg.sender){\n        require(orderBook[_orderId].daiDeposit == _deposit, ERROR_INCORRECT_DEPOSIT_VALUE); // require deposit is correct ammount\n        DAI.safeTransferFrom(msg.sender, this, _deposit);\n        \n        // call state transition function\n    }\n    \n    if(orderBook[_orderId].seller == msg.sender){\n        require(orderBook[_orderId].antDeposit == _deposit, ERROR_INCORRECT_DEPOSIT_VALUE); // require deposit is correct ammount\n        DAI.safeTransferFrom(msg.sender, this, _deposit);\n        \n        // call state transition function\n    }\n  }\n\n  /*\n  *\n  */\n  function claimTokens() external payable{}\n\n  /*\n  *\n  */\n  function claimDeposit() external payable{}\n\n\n  /*\n  *\n  */\n  function _transitionState() internal{}\n\n}\n",
  "sourcePath": "/home/student/projects/aragon-futures/contracts/AragonFuturesOrderBook.sol",
  "compiler": {
    "name": "solc",
    "version": "0.4.24+commit.e67f0147.Emscripten.clang"
  },
  "schemaVersion": "3.0.11",
  "updatedAt": "2019-07-16T13:07:27.401Z",
  "devdoc": {
    "methods": {}
  },
  "userdoc": {
    "methods": {}
  }
}