{
  "contractName": "AragonFuturesOrderBook",
  "abi": [
    {
      "constant": true,
      "inputs": [],
      "name": "endTime",
      "outputs": [
        {
          "name": "",
          "type": "uint256"
        }
      ],
      "payable": false,
      "stateMutability": "view",
      "type": "function"
    },
    {
      "constant": true,
      "inputs": [
        {
          "name": "",
          "type": "uint256"
        }
      ],
      "name": "buyOrders",
      "outputs": [
        {
          "name": "id",
          "type": "uint256"
        },
        {
          "name": "state",
          "type": "uint8"
        },
        {
          "name": "buyer",
          "type": "address"
        },
        {
          "name": "seller",
          "type": "address"
        },
        {
          "name": "antAmmount",
          "type": "uint256"
        },
        {
          "name": "daiAmmount",
          "type": "uint256"
        }
      ],
      "payable": false,
      "stateMutability": "view",
      "type": "function"
    },
    {
      "constant": true,
      "inputs": [
        {
          "name": "",
          "type": "uint256"
        }
      ],
      "name": "sellOrders",
      "outputs": [
        {
          "name": "id",
          "type": "uint256"
        },
        {
          "name": "state",
          "type": "uint8"
        },
        {
          "name": "buyer",
          "type": "address"
        },
        {
          "name": "seller",
          "type": "address"
        },
        {
          "name": "antAmmount",
          "type": "uint256"
        },
        {
          "name": "daiAmmount",
          "type": "uint256"
        }
      ],
      "payable": false,
      "stateMutability": "view",
      "type": "function"
    },
    {
      "constant": true,
      "inputs": [
        {
          "name": "",
          "type": "uint256"
        }
      ],
      "name": "globalOrders",
      "outputs": [
        {
          "name": "id",
          "type": "uint256"
        },
        {
          "name": "state",
          "type": "uint8"
        },
        {
          "name": "buyer",
          "type": "address"
        },
        {
          "name": "seller",
          "type": "address"
        },
        {
          "name": "antAmmount",
          "type": "uint256"
        },
        {
          "name": "daiAmmount",
          "type": "uint256"
        }
      ],
      "payable": false,
      "stateMutability": "view",
      "type": "function"
    },
    {
      "constant": true,
      "inputs": [],
      "name": "closeTime",
      "outputs": [
        {
          "name": "",
          "type": "uint256"
        }
      ],
      "payable": false,
      "stateMutability": "view",
      "type": "function"
    },
    {
      "constant": true,
      "inputs": [],
      "name": "ANT",
      "outputs": [
        {
          "name": "",
          "type": "address"
        }
      ],
      "payable": false,
      "stateMutability": "view",
      "type": "function"
    },
    {
      "constant": true,
      "inputs": [],
      "name": "startTime",
      "outputs": [
        {
          "name": "",
          "type": "uint256"
        }
      ],
      "payable": false,
      "stateMutability": "view",
      "type": "function"
    },
    {
      "constant": true,
      "inputs": [
        {
          "name": "",
          "type": "address"
        },
        {
          "name": "",
          "type": "uint256"
        }
      ],
      "name": "userOrders",
      "outputs": [
        {
          "name": "id",
          "type": "uint256"
        },
        {
          "name": "state",
          "type": "uint8"
        },
        {
          "name": "buyer",
          "type": "address"
        },
        {
          "name": "seller",
          "type": "address"
        },
        {
          "name": "antAmmount",
          "type": "uint256"
        },
        {
          "name": "daiAmmount",
          "type": "uint256"
        }
      ],
      "payable": false,
      "stateMutability": "view",
      "type": "function"
    },
    {
      "constant": true,
      "inputs": [],
      "name": "DAI",
      "outputs": [
        {
          "name": "",
          "type": "address"
        }
      ],
      "payable": false,
      "stateMutability": "view",
      "type": "function"
    },
    {
      "inputs": [],
      "payable": false,
      "stateMutability": "nonpayable",
      "type": "constructor"
    },
    {
      "anonymous": false,
      "inputs": [
        {
          "indexed": false,
          "name": "id",
          "type": "uint256"
        },
        {
          "indexed": false,
          "name": "maker",
          "type": "address"
        },
        {
          "indexed": false,
          "name": "buyAmmount",
          "type": "uint256"
        },
        {
          "indexed": false,
          "name": "sellAmmount",
          "type": "uint256"
        }
      ],
      "name": "CreateBuyOrder",
      "type": "event"
    },
    {
      "anonymous": false,
      "inputs": [
        {
          "indexed": false,
          "name": "id",
          "type": "uint256"
        },
        {
          "indexed": false,
          "name": "maker",
          "type": "address"
        },
        {
          "indexed": false,
          "name": "buyAmmount",
          "type": "uint256"
        },
        {
          "indexed": false,
          "name": "sellAmmount",
          "type": "uint256"
        }
      ],
      "name": "CreateSellOrder",
      "type": "event"
    },
    {
      "anonymous": false,
      "inputs": [
        {
          "indexed": false,
          "name": "id",
          "type": "uint256"
        },
        {
          "indexed": false,
          "name": "taker",
          "type": "address"
        }
      ],
      "name": "FillBuyOrder",
      "type": "event"
    },
    {
      "anonymous": false,
      "inputs": [
        {
          "indexed": false,
          "name": "id",
          "type": "uint256"
        },
        {
          "indexed": false,
          "name": "taker",
          "type": "address"
        }
      ],
      "name": "FillSellOrder",
      "type": "event"
    },
    {
      "constant": false,
      "inputs": [
        {
          "name": "_buyAmmount",
          "type": "uint256"
        },
        {
          "name": "_rate",
          "type": "uint256"
        }
      ],
      "name": "createBuyOrder",
      "outputs": [],
      "payable": true,
      "stateMutability": "payable",
      "type": "function"
    },
    {
      "constant": false,
      "inputs": [
        {
          "name": "_sellAmmount",
          "type": "uint256"
        },
        {
          "name": "_rate",
          "type": "uint256"
        }
      ],
      "name": "createSellOrder",
      "outputs": [],
      "payable": true,
      "stateMutability": "payable",
      "type": "function"
    },
    {
      "constant": false,
      "inputs": [
        {
          "name": "_orderId",
          "type": "uint256"
        }
      ],
      "name": "fillBuyOrder",
      "outputs": [],
      "payable": true,
      "stateMutability": "payable",
      "type": "function"
    },
    {
      "constant": false,
      "inputs": [
        {
          "name": "_orderId",
          "type": "uint256"
        },
        {
          "name": "_deposit",
          "type": "uint256"
        }
      ],
      "name": "fillSellOrder",
      "outputs": [],
      "payable": true,
      "stateMutability": "payable",
      "type": "function"
    },
    {
      "constant": false,
      "inputs": [
        {
          "name": "_id",
          "type": "uint256"
        },
        {
          "name": "_to",
          "type": "address"
        }
      ],
      "name": "transferOrder",
      "outputs": [],
      "payable": false,
      "stateMutability": "nonpayable",
      "type": "function"
    },
    {
      "constant": false,
      "inputs": [
        {
          "name": "_id",
          "type": "uint256"
        }
      ],
      "name": "cancelOrder",
      "outputs": [],
      "payable": false,
      "stateMutability": "nonpayable",
      "type": "function"
    },
    {
      "constant": false,
      "inputs": [
        {
          "name": "_orderId",
          "type": "uint256"
        },
        {
          "name": "_deposit",
          "type": "uint256"
        }
      ],
      "name": "completeOrder",
      "outputs": [],
      "payable": true,
      "stateMutability": "payable",
      "type": "function"
    },
    {
      "constant": false,
      "inputs": [],
      "name": "withdrawPurchase",
      "outputs": [],
      "payable": true,
      "stateMutability": "payable",
      "type": "function"
    },
    {
      "constant": false,
      "inputs": [],
      "name": "withdrawDeposit",
      "outputs": [],
      "payable": true,
      "stateMutability": "payable",
      "type": "function"
    }
  ],
  "bytecode": "0x608060405234801561001057600080fd5b50730d5263b7969144a852d58505602f630f9b20239d6000806101000a81548173ffffffffffffffffffffffffffffffffffffffff021916908373ffffffffffffffffffffffffffffffffffffffff160217905550730527e400502d0cb4f214dd0d2f2a323fc88ff924600160006101000a81548173ffffffffffffffffffffffffffffffffffffffff021916908373ffffffffffffffffffffffffffffffffffffffff160217905550610e10600881905550610e1060098190555060085460095401600a819055506000600681905550600060078190555061143f806100f86000396000f3006080604052600436106100fc576000357c0100000000000000000000000000000000000000000000000000000000900463ffffffff168063117df08814610101578063165989141461010b5780631df68102146101275780632cb4f4b7146101435780633148efa21461015f5780633197cbb61461018857806335cea288146101b35780634a8393f3146101f557806350a6f76c14610237578063514fcac714610279578063523ae68b146102a2578063627749e6146102ac57806365595c61146102d757806378e9792514610302578063856652e91461032d5780638cbcca071461036f578063c0d5d96f1461038b578063e0bab4c4146103a7575b600080fd5b6101096103d2565b005b610125600480360361012091908101906111fa565b6103d4565b005b610141600480360361013c91908101906111fa565b6103d8565b005b61015d600480360361015891908101906111fa565b6107cf565b005b34801561016b57600080fd5b50610186600480360361018191908101906111be565b610cc2565b005b34801561019457600080fd5b5061019d610cc6565b6040516101aa919061128d565b60405180910390f35b3480156101bf57600080fd5b506101da60048036036101d59190810190611195565b610ccc565b6040516101ec96959493929190611316565b60405180910390f35b34801561020157600080fd5b5061021c60048036036102179190810190611195565b610d64565b60405161022e96959493929190611316565b60405180910390f35b34801561024357600080fd5b5061025e60048036036102599190810190611195565b610dfc565b60405161027096959493929190611316565b60405180910390f35b34801561028557600080fd5b506102a0600480360361029b9190810190611195565b610e85565b005b6102aa610e88565b005b3480156102b857600080fd5b506102c1610e8a565b6040516102ce919061128d565b60405180910390f35b3480156102e357600080fd5b506102ec610e90565b6040516102f99190611272565b60405180910390f35b34801561030e57600080fd5b50610317610eb5565b604051610324919061128d565b60405180910390f35b34801561033957600080fd5b50610354600480360361034f9190810190611159565b610ebb565b60405161036696959493929190611316565b60405180910390f35b61038960048036036103849190810190611195565b610f60565b005b6103a560048036036103a091908101906111fa565b61104b565b005b3480156103b357600080fd5b506103bc61104f565b6040516103c99190611272565b60405180910390f35b565b5050565b60006103e26110c3565b6103f660028561107590919063ffffffff16565b61040a60028661107590919063ffffffff16565b925060c060405190810160405280600081526020016000600381111561042c57fe5b8152602001600073ffffffffffffffffffffffffffffffffffffffff168152602001600073ffffffffffffffffffffffffffffffffffffffff168152602001600081526020016000815250915060075482600001818152505060008260200190600381111561049757fe5b908160038111156104a457fe5b8152505033826060019073ffffffffffffffffffffffffffffffffffffffff16908173ffffffffffffffffffffffffffffffffffffffff1681525050848260800181815250506104fd848661108b90919063ffffffff16565b8260a0018181525050600382908060018154018082558091505090600182039060005260206000209060050201600090919290919091506000820151816000015560208201518160010160006101000a81548160ff0219169083600381111561056257fe5b021790555060408201518160010160016101000a81548173ffffffffffffffffffffffffffffffffffffffff021916908373ffffffffffffffffffffffffffffffffffffffff16021790555060608201518160020160006101000a81548173ffffffffffffffffffffffffffffffffffffffff021916908373ffffffffffffffffffffffffffffffffffffffff1602179055506080820151816003015560a08201518160040155505050600460003373ffffffffffffffffffffffffffffffffffffffff1673ffffffffffffffffffffffffffffffffffffffff16815260200190815260200160002082908060018154018082558091505090600182039060005260206000209060050201600090919290919091506000820151816000015560208201518160010160006101000a81548160ff021916908360038111156106a557fe5b021790555060408201518160010160016101000a81548173ffffffffffffffffffffffffffffffffffffffff021916908373ffffffffffffffffffffffffffffffffffffffff16021790555060608201518160020160006101000a81548173ffffffffffffffffffffffffffffffffffffffff021916908373ffffffffffffffffffffffffffffffffffffffff1602179055506080820151816003015560a08201518160040155505050600560006007548152602001908152602001600020507f080493e207b9f00f98a17e07dddc2ea02575db77c2769f8ef3160198b10a69106007543361079d878961108b90919063ffffffff16565b886040516107ae94939291906112d1565b60405180910390a16007600081548092919060010191905055505050505050565b60006107d96110c3565b6107ff60026107f1858761108b90919063ffffffff16565b61107590919063ffffffff16565b6108256002610817868861108b90919063ffffffff16565b61107590919063ffffffff16565b925060c060405190810160405280600081526020016000600381111561084757fe5b8152602001600073ffffffffffffffffffffffffffffffffffffffff168152602001600073ffffffffffffffffffffffffffffffffffffffff16815260200160008152602001600081525091506006548260000181815250506000826020019060038111156108b257fe5b908160038111156108bf57fe5b8152505033826040019073ffffffffffffffffffffffffffffffffffffffff16908173ffffffffffffffffffffffffffffffffffffffff168152505084826080018181525050610918848661108b90919063ffffffff16565b8260a0018181525050600282908060018154018082558091505090600182039060005260206000209060050201600090919290919091506000820151816000015560208201518160010160006101000a81548160ff0219169083600381111561097d57fe5b021790555060408201518160010160016101000a81548173ffffffffffffffffffffffffffffffffffffffff021916908373ffffffffffffffffffffffffffffffffffffffff16021790555060608201518160020160006101000a81548173ffffffffffffffffffffffffffffffffffffffff021916908373ffffffffffffffffffffffffffffffffffffffff1602179055506080820151816003015560a08201518160040155505050600460003373ffffffffffffffffffffffffffffffffffffffff1673ffffffffffffffffffffffffffffffffffffffff16815260200190815260200160002082908060018154018082558091505090600182039060005260206000209060050201600090919290919091506000820151816000015560208201518160010160006101000a81548160ff02191690836003811115610ac057fe5b021790555060408201518160010160016101000a81548173ffffffffffffffffffffffffffffffffffffffff021916908373ffffffffffffffffffffffffffffffffffffffff16021790555060608201518160020160006101000a81548173ffffffffffffffffffffffffffffffffffffffff021916908373ffffffffffffffffffffffffffffffffffffffff1602179055506080820151816003015560a08201518160040155505050816005600060065481526020019081526020016000206000820151816000015560208201518160010160006101000a81548160ff02191690836003811115610bae57fe5b021790555060408201518160010160016101000a81548173ffffffffffffffffffffffffffffffffffffffff021916908373ffffffffffffffffffffffffffffffffffffffff16021790555060608201518160020160006101000a81548173ffffffffffffffffffffffffffffffffffffffff021916908373ffffffffffffffffffffffffffffffffffffffff1602179055506080820151816003015560a082015181600401559050507f433a6c2830691d992b1fd7b102b891cdfde60a14d8d08e9fd62fa62ef427c0db6006543387610c91888a61108b90919063ffffffff16565b604051610ca194939291906112d1565b60405180910390a16006600081548092919060010191905055505050505050565b5050565b60095481565b600281815481101515610cdb57fe5b90600052602060002090600502016000915090508060000154908060010160009054906101000a900460ff16908060010160019054906101000a900473ffffffffffffffffffffffffffffffffffffffff16908060020160009054906101000a900473ffffffffffffffffffffffffffffffffffffffff16908060030154908060040154905086565b600381815481101515610d7357fe5b90600052602060002090600502016000915090508060000154908060010160009054906101000a900460ff16908060010160019054906101000a900473ffffffffffffffffffffffffffffffffffffffff16908060020160009054906101000a900473ffffffffffffffffffffffffffffffffffffffff16908060030154908060040154905086565b60056020528060005260406000206000915090508060000154908060010160009054906101000a900460ff16908060010160019054906101000a900473ffffffffffffffffffffffffffffffffffffffff16908060020160009054906101000a900473ffffffffffffffffffffffffffffffffffffffff16908060030154908060040154905086565b50565b565b600a5481565b6000809054906101000a900473ffffffffffffffffffffffffffffffffffffffff1681565b60085481565b600460205281600052604060002081815481101515610ed657fe5b9060005260206000209060050201600091509150508060000154908060010160009054906101000a900460ff16908060010160019054906101000a900473ffffffffffffffffffffffffffffffffffffffff16908060020160009054906101000a900473ffffffffffffffffffffffffffffffffffffffff16908060030154908060040154905086565b6000610f8c6002600560008581526020019081526020016000206003015461107590919063ffffffff16565b610fb66002600560008681526020019081526020016000206003015461107590919063ffffffff16565b9150336005600085815260200190815260200160002060020160006101000a81548173ffffffffffffffffffffffffffffffffffffffff021916908373ffffffffffffffffffffffffffffffffffffffff1602179055507f37812618b8ac54bf622cc187d6fafed977419c6c886c8f900e78bcfa0573b3da833360405161103e9291906112a8565b60405180910390a1505050565b5050565b600160009054906101000a900473ffffffffffffffffffffffffffffffffffffffff1681565b6000818381151561108257fe5b04905092915050565b60008083141561109e57600090506110bd565b81830290508183828115156110af57fe5b041415156110b957fe5b8090505b92915050565b60c06040519081016040528060008152602001600060038111156110e357fe5b8152602001600073ffffffffffffffffffffffffffffffffffffffff168152602001600073ffffffffffffffffffffffffffffffffffffffff16815260200160008152602001600081525090565b600061113d82356113b7565b905092915050565b600061115182356113d7565b905092915050565b6000806040838503121561116c57600080fd5b600061117a85828601611131565b925050602061118b85828601611145565b9150509250929050565b6000602082840312156111a757600080fd5b60006111b584828501611145565b91505092915050565b600080604083850312156111d157600080fd5b60006111df85828601611145565b92505060206111f085828601611131565b9150509250929050565b6000806040838503121561120d57600080fd5b600061121b85828601611145565b925050602061122c85828601611145565b9150509250929050565b61123f81611377565b82525050565b61124e816113e1565b82525050565b61125d816113f3565b82525050565b61126c816113ad565b82525050565b60006020820190506112876000830184611245565b92915050565b60006020820190506112a26000830184611263565b92915050565b60006040820190506112bd6000830185611263565b6112ca6020830184611236565b9392505050565b60006080820190506112e66000830187611263565b6112f36020830186611236565b6113006040830185611263565b61130d6060830184611263565b95945050505050565b600060c08201905061132b6000830189611263565b6113386020830188611254565b6113456040830187611236565b6113526060830186611236565b61135f6080830185611263565b61136c60a0830184611263565b979650505050505050565b600073ffffffffffffffffffffffffffffffffffffffff82169050919050565b60006004821015156113a557fe5b819050919050565b6000819050919050565b600073ffffffffffffffffffffffffffffffffffffffff82169050919050565b6000819050919050565b60006113ec82611377565b9050919050565b60006113fe82611397565b90509190505600a265627a7a7230582009b4a307787856dab7ee2b27d02cea442ed5c4a6abd61e2391145775ae79ec4c6c6578706572696d656e74616cf50037",
  "source": "pragma solidity ^0.4.24;\npragma experimental ABIEncoderV2;\n\nimport \"../node_modules/zeppelin-solidity/contracts/math/SafeMath.sol\";\nimport \"../node_modules/zeppelin-solidity/contracts/token/ERC20/ERC20.sol\";\nimport \"../node_modules/zeppelin-solidity/contracts/token/ERC20/SafeERC20.sol\";\n\ncontract AragonFuturesOrderBook {\n  using SafeMath for uint256;\n  using SafeERC20 for ERC20;\n\n  string private constant ERROR_ORDER_DOSE_NOT_EXIST = \"ORDER_DOSE_NOT_EXIST\";\n  string private constant ERROR_INSUFFICIENT_FUNDS = \"INSUFFICIENT_FUNDS\";\n\n  enum State {OPEN, FILLED, CLOSED, CANCELED}\n  struct Order {\n    uint id;\n    State state;\n    address buyer;\n    address seller;\n    uint antAmmount;\n    uint daiAmmount;\n  }\n\n  ERC20 public ANT;\n  ERC20 public DAI;\n\n  Order[] public buyOrders;                         // used to search all buy orders\n  Order[] public sellOrders;                        // used to search all sell orders\n  mapping (address => Order[]) public userOrders;   // used to search for all orders of particular address\n  mapping (uint => Order) public globalOrders;      // used to search by orderId\n\n  uint private nextBuyOrderId;\n  uint private nextSellOrderId;\n\n  uint public startTime;  // the time when trading starts\n  uint public endTime;    // the time when trading stops\n  uint public closeTime;  // the time buyers and sellers must fulfill their obligation by\n\n\n  event CreateBuyOrder(uint id, address maker, uint buyAmmount, uint sellAmmount);\n  event CreateSellOrder(uint id, address maker, uint buyAmmount, uint sellAmmount);\n  event FillBuyOrder(uint id, address taker);\n  event FillSellOrder(uint id, address taker);\n\n  constructor () public {\n\tANT = ERC20(0x0D5263B7969144a852D58505602f630f9b20239D); // rinkeby\n\tDAI = ERC20(0x0527E400502d0CB4f214dd0D2F2a323fc88Ff924); // rinkeby\n    startTime = 3600;\n    endTime = 3600;\n    closeTime = endTime + startTime;\n    nextBuyOrderId = 0;\n    nextSellOrderId = 0;\n  }\n\n  /*\n  *  user can create a buy order. he specifies how much ANT he wants to buy and the rate in DAI.\n  *  50% of this deposited as collatoral. the order is added to the global buyOrders list,\n  *  and a mapping of the sellers address to uint, which represents all the orders this indervidual has in the exchange\n  */\n  function createBuyOrder(uint _buyAmmount, uint _rate) external payable hasEnoughDAI(_buyAmmount.mul(_rate).div(2)) {\n    // requires\n\n    uint deposit = _buyAmmount.mul(_rate).div(2);\n    // DAI.safeTransferFrom(msg.sender, address(this), deposit); <-- this is causing tx to consume all the gas\n    Order memory newOrder = Order({id: 0, state: State.OPEN, buyer: 0x0000000000000000000000000000000000000000, seller: 0x0000000000000000000000000000000000000000, antAmmount: 0, daiAmmount: 0});\n    newOrder.id = nextBuyOrderId;\n    newOrder.state = State.OPEN;\n    newOrder.buyer = msg.sender;\n    newOrder.antAmmount = _buyAmmount;\n    newOrder.daiAmmount = _buyAmmount.mul(_rate);\n\n    buyOrders.push(newOrder);\n    userOrders[msg.sender].push(newOrder);\n    globalOrders[nextBuyOrderId] = newOrder;\n\n    emit CreateBuyOrder(nextBuyOrderId, msg.sender, _buyAmmount, _buyAmmount.mul(_rate));\n    nextBuyOrderId++;\n  }\n\n\n  /*\n  *  user can create a sell order. he specifies how much ANT he wants to buy and the rate in DAI.\n  *  50% of this deposited as collatoral. the order is added to the global buyOrders list,\n  *  and a mapping of the sellers address to uint, which represents all the orders this indervidual has in the exchange\n  */\n  function createSellOrder(uint _sellAmmount, uint _rate) external payable hasEnoughANT(_sellAmmount.div(2)) {\n    // requires\n\n    uint deposit = _sellAmmount.div(2);\n    // ANT.safeTransferFrom(msg.sender, address(this), deposit); <-- this is causing tx to consume all the gas\n\n    Order memory newOrder = Order({id: 0, state: State.OPEN, buyer: 0x0000000000000000000000000000000000000000, seller: 0x0000000000000000000000000000000000000000, antAmmount: 0, daiAmmount: 0});\n    newOrder.id = nextSellOrderId;\n    newOrder.state = State.OPEN;\n    newOrder.seller = msg.sender;\n    newOrder.antAmmount = _sellAmmount;\n    newOrder.daiAmmount = _sellAmmount.mul(_rate);\n\n    sellOrders.push(newOrder);\n    userOrders[msg.sender].push(newOrder);\n    globalOrders[nextSellOrderId];\n\n    emit CreateSellOrder(nextSellOrderId, msg.sender, _sellAmmount.mul(_rate), _sellAmmount);\n    nextSellOrderId++;\n  }\n\n  /*\n  *\n  */\n  function fillBuyOrder(uint _orderId) external payable hasEnoughANT(globalOrders[_orderId].antAmmount.div(2)){\n    // requires\n\n    uint deposit = globalOrders[_orderId].antAmmount.div(2);\n    // ANT.safeTransferFrom(msg.sender, address(this), deposit); <-- this is causing tx to consume all the gas\n\n    globalOrders[_orderId].seller = msg.sender; // this should update the order in buyOrders and userOrders too\n    emit FillBuyOrder(_orderId, msg.sender);\n  }\n\n  /*\n  *\n  */\n  function fillSellOrder(uint _orderId, uint _deposit) external payable{}\n\n  /*\n  *\n  */\n  function transferOrder(uint _id, address _to)external {}\n\n  /*\n  *\n  */\n  function cancelOrder(uint _id) external{}\n\n  /*\n  *\n  */\n  function completeOrder(uint _orderId, uint _deposit) external payable{}\n\n  /*\n  *\n  */\n  function withdrawPurchase() external payable{}\n\n  /*\n  *\n  */\n  function withdrawDeposit() external payable{}\n\n  /*\n  *\n  */\n  function _transitionState() internal{}\n\n  modifier hasEnoughDAI(uint _ammount) {\n    //require(DAI.balanceOf(msg.sender) > _ammount, ERROR_INSUFFICIENT_FUNDS);\n    _;\n  }\n\n  modifier hasEnoughANT(uint _ammount) {\n    //require(ANT.balanceOf(msg.sender) > _ammount, ERROR_INSUFFICIENT_FUNDS);\n    _;\n  }\n\n\n\n}\n",
  "sourcePath": "/home/student/projects/aragon-futures/contracts/AragonFuturesOrderBook.sol",
  "compiler": {
    "name": "solc",
    "version": "0.4.24+commit.e67f0147.Emscripten.clang"
  },
  "schemaVersion": "3.0.11",
  "updatedAt": "2019-07-18T10:27:33.510Z",
  "devdoc": {
    "methods": {}
  },
  "userdoc": {
    "methods": {}
  }
}