{
  "contractName": "AragonFuturesOrderBook",
  "abi": [
    {
      "constant": true,
      "inputs": [
        {
          "name": "",
          "type": "address"
        },
        {
          "name": "",
          "type": "uint256"
        }
      ],
      "name": "orders",
      "outputs": [
        {
          "name": "id",
          "type": "uint256"
        },
        {
          "name": "state",
          "type": "uint8"
        },
        {
          "name": "buyer",
          "type": "address"
        },
        {
          "name": "seller",
          "type": "address"
        },
        {
          "name": "antAmmount",
          "type": "uint256"
        },
        {
          "name": "daiAmmount",
          "type": "uint256"
        },
        {
          "name": "antDeposit",
          "type": "uint256"
        },
        {
          "name": "daiDeposit",
          "type": "uint256"
        },
        {
          "name": "expiryTime",
          "type": "uint256"
        },
        {
          "name": "closeTime",
          "type": "uint256"
        }
      ],
      "payable": false,
      "stateMutability": "view",
      "type": "function"
    },
    {
      "constant": true,
      "inputs": [
        {
          "name": "",
          "type": "uint256"
        }
      ],
      "name": "orderBook",
      "outputs": [
        {
          "name": "id",
          "type": "uint256"
        },
        {
          "name": "state",
          "type": "uint8"
        },
        {
          "name": "buyer",
          "type": "address"
        },
        {
          "name": "seller",
          "type": "address"
        },
        {
          "name": "antAmmount",
          "type": "uint256"
        },
        {
          "name": "daiAmmount",
          "type": "uint256"
        },
        {
          "name": "antDeposit",
          "type": "uint256"
        },
        {
          "name": "daiDeposit",
          "type": "uint256"
        },
        {
          "name": "expiryTime",
          "type": "uint256"
        },
        {
          "name": "closeTime",
          "type": "uint256"
        }
      ],
      "payable": false,
      "stateMutability": "view",
      "type": "function"
    },
    {
      "inputs": [],
      "payable": false,
      "stateMutability": "nonpayable",
      "type": "constructor"
    },
    {
      "anonymous": false,
      "inputs": [
        {
          "indexed": false,
          "name": "id",
          "type": "uint256"
        },
        {
          "indexed": false,
          "name": "maker",
          "type": "address"
        },
        {
          "indexed": false,
          "name": "buyAmmount",
          "type": "uint256"
        },
        {
          "indexed": false,
          "name": "sellAmmount",
          "type": "uint256"
        },
        {
          "indexed": false,
          "name": "expiry",
          "type": "uint256"
        }
      ],
      "name": "CreateBuyOrder",
      "type": "event"
    },
    {
      "anonymous": false,
      "inputs": [
        {
          "indexed": false,
          "name": "id",
          "type": "uint256"
        },
        {
          "indexed": false,
          "name": "maker",
          "type": "address"
        },
        {
          "indexed": false,
          "name": "buyAmmount",
          "type": "uint256"
        },
        {
          "indexed": false,
          "name": "sellAmmount",
          "type": "uint256"
        },
        {
          "indexed": false,
          "name": "expiry",
          "type": "uint256"
        }
      ],
      "name": "CreateSellOrder",
      "type": "event"
    },
    {
      "anonymous": false,
      "inputs": [
        {
          "indexed": false,
          "name": "id",
          "type": "uint256"
        },
        {
          "indexed": false,
          "name": "taker",
          "type": "address"
        }
      ],
      "name": "FillBuyOrder",
      "type": "event"
    },
    {
      "anonymous": false,
      "inputs": [
        {
          "indexed": false,
          "name": "id",
          "type": "uint256"
        },
        {
          "indexed": false,
          "name": "taker",
          "type": "address"
        }
      ],
      "name": "FillSellOrder",
      "type": "event"
    },
    {
      "constant": false,
      "inputs": [
        {
          "name": "_buyAmmount",
          "type": "uint256"
        },
        {
          "name": "_sellAmmount",
          "type": "uint256"
        },
        {
          "name": "_deposit",
          "type": "uint256"
        },
        {
          "name": "_expiry",
          "type": "uint256"
        }
      ],
      "name": "createBuyOrder",
      "outputs": [],
      "payable": true,
      "stateMutability": "payable",
      "type": "function"
    },
    {
      "constant": false,
      "inputs": [
        {
          "name": "_buyAmmount",
          "type": "uint256"
        },
        {
          "name": "_sellAmmount",
          "type": "uint256"
        },
        {
          "name": "_deposit",
          "type": "uint256"
        },
        {
          "name": "_expiry",
          "type": "uint256"
        }
      ],
      "name": "createSellOrder",
      "outputs": [],
      "payable": true,
      "stateMutability": "payable",
      "type": "function"
    },
    {
      "constant": false,
      "inputs": [
        {
          "name": "_orderId",
          "type": "uint256"
        },
        {
          "name": "_deposit",
          "type": "uint256"
        }
      ],
      "name": "fillBuyOrder",
      "outputs": [],
      "payable": true,
      "stateMutability": "payable",
      "type": "function"
    },
    {
      "constant": false,
      "inputs": [
        {
          "name": "_orderId",
          "type": "uint256"
        },
        {
          "name": "_deposit",
          "type": "uint256"
        }
      ],
      "name": "fillSellOrder",
      "outputs": [],
      "payable": true,
      "stateMutability": "payable",
      "type": "function"
    },
    {
      "constant": false,
      "inputs": [
        {
          "name": "_id",
          "type": "uint256"
        },
        {
          "name": "_to",
          "type": "address"
        }
      ],
      "name": "transferContract",
      "outputs": [],
      "payable": false,
      "stateMutability": "nonpayable",
      "type": "function"
    },
    {
      "constant": false,
      "inputs": [],
      "name": "cancelOrder",
      "outputs": [],
      "payable": false,
      "stateMutability": "nonpayable",
      "type": "function"
    },
    {
      "constant": false,
      "inputs": [],
      "name": "completeOrder",
      "outputs": [],
      "payable": true,
      "stateMutability": "payable",
      "type": "function"
    },
    {
      "constant": false,
      "inputs": [],
      "name": "claimTokens",
      "outputs": [],
      "payable": true,
      "stateMutability": "payable",
      "type": "function"
    },
    {
      "constant": false,
      "inputs": [],
      "name": "claimDeposit",
      "outputs": [],
      "payable": true,
      "stateMutability": "payable",
      "type": "function"
    },
    {
      "constant": true,
      "inputs": [
        {
          "name": "add",
          "type": "address"
        }
      ],
      "name": "getOrders",
      "outputs": [
        {
          "components": [
            {
              "name": "id",
              "type": "uint256"
            },
            {
              "name": "state",
              "type": "uint8"
            },
            {
              "name": "buyer",
              "type": "address"
            },
            {
              "name": "seller",
              "type": "address"
            },
            {
              "name": "antAmmount",
              "type": "uint256"
            },
            {
              "name": "daiAmmount",
              "type": "uint256"
            },
            {
              "name": "antDeposit",
              "type": "uint256"
            },
            {
              "name": "daiDeposit",
              "type": "uint256"
            },
            {
              "name": "expiryTime",
              "type": "uint256"
            },
            {
              "name": "closeTime",
              "type": "uint256"
            }
          ],
          "name": "",
          "type": "tuple[]"
        }
      ],
      "payable": false,
      "stateMutability": "view",
      "type": "function"
    },
    {
      "constant": false,
      "inputs": [
        {
          "name": "_ammount",
          "type": "uint256"
        }
      ],
      "name": "_deposit",
      "outputs": [],
      "payable": false,
      "stateMutability": "nonpayable",
      "type": "function"
    }
  ],
  "bytecode": "0x608060405234801561001057600080fd5b5033600560006101000a81548173ffffffffffffffffffffffffffffffffffffffff021916908373ffffffffffffffffffffffffffffffffffffffff1602179055506000600481905550611c60806100696000396000f3006080604052600436106100c5576000357c0100000000000000000000000000000000000000000000000000000000900463ffffffff168063093376fe146100ca578063165989141461010757806329d07a511461012357806337609bb21461012d57806348c54b9d146101495780636a81654814610153578063793b8c6d1461016a5780638b6ec2bf146101b05780638d5796d0146101ba5780639213b124146101d6578063a20b6e34146101ff578063d151964814610245578063f199aeb01461026e575b600080fd5b3480156100d657600080fd5b506100f160048036036100ec91908101906116cb565b61028a565b6040516100fe91906119bf565b60405180910390f35b610121600480360361011c9190810190611795565b610291565b005b61012b610559565b005b610147600480360361014291908101906117d1565b61055b565b005b610151610954565b005b34801561015f57600080fd5b50610168610956565b005b34801561017657600080fd5b50610191600480360361018c91908101906116f4565b610958565b6040516101a79a99989796959493929190611a9a565b60405180910390f35b6101b8610a06565b005b6101d460048036036101cf9190810190611795565b610a08565b005b3480156101e257600080fd5b506101fd60048036036101f89190810190611730565b610cd0565b005b34801561020b57600080fd5b5061022660048036036102219190810190611730565b610cd3565b60405161023c9a99989796959493929190611a9a565b60405180910390f35b34801561025157600080fd5b5061026c60048036036102679190810190611759565b610d74565b005b610288600480360361028391908101906117d1565b6112aa565b005b6060919050565b6000600260008481526020019081526020016000209050338160010160016101000a81548173ffffffffffffffffffffffffffffffffffffffff021916908373ffffffffffffffffffffffffffffffffffffffff1602179055508181600601819055503073ffffffffffffffffffffffffffffffffffffffff16639213b124836040518263ffffffff167c01000000000000000000000000000000000000000000000000000000000281526004016103499190611a03565b600060405180830381600087803b15801561036357600080fd5b505af1158015610377573d6000803e3d6000fd5b5050505080600360003373ffffffffffffffffffffffffffffffffffffffff1673ffffffffffffffffffffffffffffffffffffffff16815260200190815260200160002060006004548152602001908152602001600020600082015481600001556001820160009054906101000a900460ff168160010160006101000a81548160ff0219169083600281111561040957fe5b02179055506001820160019054906101000a900473ffffffffffffffffffffffffffffffffffffffff168160010160016101000a81548173ffffffffffffffffffffffffffffffffffffffff021916908373ffffffffffffffffffffffffffffffffffffffff1602179055506002820160009054906101000a900473ffffffffffffffffffffffffffffffffffffffff168160020160006101000a81548173ffffffffffffffffffffffffffffffffffffffff021916908373ffffffffffffffffffffffffffffffffffffffff1602179055506003820154816003015560048201548160040155600582015481600501556006820154816006015560078201548160070155600882015481600801559050507fcbe49e0c6f1880113d4682989f006c7a95d41c91ab2c1a0096fba8e8b78c8156833360405161054c929190611a1e565b60405180910390a1505050565b565b6000600260006004548152602001908152602001600020905060045460026000600454815260200190815260200160002060000181905550600060026000600454815260200190815260200160002060010160006101000a81548160ff021916908360028111156105c857fe5b02179055503360026000600454815260200190815260200160002060020160006101000a81548173ffffffffffffffffffffffffffffffffffffffff021916908373ffffffffffffffffffffffffffffffffffffffff16021790555084600260006004548152602001908152602001600020600301819055508360026000600454815260200190815260200160002060040181905550826002600060045481526020019081526020016000206005018190555081420160026000600454815260200190815260200160002060070181905550610e106002600060045481526020019081526020016000206007015401600260006004548152602001908152602001600020600801819055503073ffffffffffffffffffffffffffffffffffffffff16639213b124846040518263ffffffff167c01000000000000000000000000000000000000000000000000000000000281526004016107289190611a03565b600060405180830381600087803b15801561074257600080fd5b505af1158015610756573d6000803e3d6000fd5b5050505080600360003373ffffffffffffffffffffffffffffffffffffffff1673ffffffffffffffffffffffffffffffffffffffff16815260200190815260200160002060006004548152602001908152602001600020600082015481600001556001820160009054906101000a900460ff168160010160006101000a81548160ff021916908360028111156107e857fe5b02179055506001820160019054906101000a900473ffffffffffffffffffffffffffffffffffffffff168160010160016101000a81548173ffffffffffffffffffffffffffffffffffffffff021916908373ffffffffffffffffffffffffffffffffffffffff1602179055506002820160009054906101000a900473ffffffffffffffffffffffffffffffffffffffff168160020160006101000a81548173ffffffffffffffffffffffffffffffffffffffff021916908373ffffffffffffffffffffffffffffffffffffffff1602179055506003820154816003015560048201548160040155600582015481600501556006820154816006015560078201548160070155600882015481600801559050507f19e043374e838f328ba69f96b50b56762026ea82bfa3cbb72cd6229ff388f14a60045433878786604051610933959493929190611a47565b60405180910390a16004600081548092919060010191905055505050505050565b565b565b6003602052816000526040600020602052806000526040600020600091509150508060000154908060010160009054906101000a900460ff16908060010160019054906101000a900473ffffffffffffffffffffffffffffffffffffffff16908060020160009054906101000a900473ffffffffffffffffffffffffffffffffffffffff1690806003015490806004015490806005015490806006015490806007015490806008015490508a565b565b6000600260008481526020019081526020016000209050338160020160006101000a81548173ffffffffffffffffffffffffffffffffffffffff021916908373ffffffffffffffffffffffffffffffffffffffff1602179055508181600501819055503073ffffffffffffffffffffffffffffffffffffffff16639213b124836040518263ffffffff167c0100000000000000000000000000000000000000000000000000000000028152600401610ac09190611a03565b600060405180830381600087803b158015610ada57600080fd5b505af1158015610aee573d6000803e3d6000fd5b5050505080600360003373ffffffffffffffffffffffffffffffffffffffff1673ffffffffffffffffffffffffffffffffffffffff16815260200190815260200160002060006004548152602001908152602001600020600082015481600001556001820160009054906101000a900460ff168160010160006101000a81548160ff02191690836002811115610b8057fe5b02179055506001820160019054906101000a900473ffffffffffffffffffffffffffffffffffffffff168160010160016101000a81548173ffffffffffffffffffffffffffffffffffffffff021916908373ffffffffffffffffffffffffffffffffffffffff1602179055506002820160009054906101000a900473ffffffffffffffffffffffffffffffffffffffff168160020160006101000a81548173ffffffffffffffffffffffffffffffffffffffff021916908373ffffffffffffffffffffffffffffffffffffffff1602179055506003820154816003015560048201548160040155600582015481600501556006820154816006015560078201548160070155600882015481600801559050507f37812618b8ac54bf622cc187d6fafed977419c6c886c8f900e78bcfa0573b3da8333604051610cc3929190611a1e565b60405180910390a1505050565b50565b60026020528060005260406000206000915090508060000154908060010160009054906101000a900460ff16908060010160019054906101000a900473ffffffffffffffffffffffffffffffffffffffff16908060020160009054906101000a900473ffffffffffffffffffffffffffffffffffffffff1690806003015490806004015490806005015490806006015490806007015490806008015490508a565b3373ffffffffffffffffffffffffffffffffffffffff166002600084815260200190815260200160002060010160019054906101000a900473ffffffffffffffffffffffffffffffffffffffff1673ffffffffffffffffffffffffffffffffffffffff161480610e4557503373ffffffffffffffffffffffffffffffffffffffff166002600084815260200190815260200160002060010160019054906101000a900473ffffffffffffffffffffffffffffffffffffffff1673ffffffffffffffffffffffffffffffffffffffff16145b6040805190810160405280601581526020017f4e4f545f4f574e45525f4f465f434f4e54524143540000000000000000000000815250901515610ebe576040517f08c379a0000000000000000000000000000000000000000000000000000000008152600401610eb591906119e1565b60405180910390fd5b50600360003373ffffffffffffffffffffffffffffffffffffffff1673ffffffffffffffffffffffffffffffffffffffff16815260200190815260200160002060008381526020019081526020016000206000808201600090556001820160006101000a81549060ff02191690556001820160016101000a81549073ffffffffffffffffffffffffffffffffffffffff02191690556002820160006101000a81549073ffffffffffffffffffffffffffffffffffffffff021916905560038201600090556004820160009055600582016000905560068201600090556007820160009055600882016000905550503373ffffffffffffffffffffffffffffffffffffffff166002600084815260200190815260200160002060010160019054906101000a900473ffffffffffffffffffffffffffffffffffffffff1673ffffffffffffffffffffffffffffffffffffffff161415611051578073ffffffffffffffffffffffffffffffffffffffff166002600084815260200190815260200160002060010160019054906101000a905050505b3373ffffffffffffffffffffffffffffffffffffffff166002600084815260200190815260200160002060020160009054906101000a900473ffffffffffffffffffffffffffffffffffffffff1673ffffffffffffffffffffffffffffffffffffffff1614156110f6578073ffffffffffffffffffffffffffffffffffffffff166002600084815260200190815260200160002060020160009054906101000a905050505b60026000838152602001908152602001600020600360008373ffffffffffffffffffffffffffffffffffffffff1673ffffffffffffffffffffffffffffffffffffffff1681526020019081526020016000206000848152602001908152602001600020600082015481600001556001820160009054906101000a900460ff168160010160006101000a81548160ff0219169083600281111561119457fe5b02179055506001820160019054906101000a900473ffffffffffffffffffffffffffffffffffffffff168160010160016101000a81548173ffffffffffffffffffffffffffffffffffffffff021916908373ffffffffffffffffffffffffffffffffffffffff1602179055506002820160009054906101000a900473ffffffffffffffffffffffffffffffffffffffff168160020160006101000a81548173ffffffffffffffffffffffffffffffffffffffff021916908373ffffffffffffffffffffffffffffffffffffffff1602179055506003820154816003015560048201548160040155600582015481600501556006820154816006015560078201548160070155600882015481600801559050505050565b6000600260006004548152602001908152602001600020905060045460026000600454815260200190815260200160002060000181905550600060026000600454815260200190815260200160002060010160006101000a81548160ff0219169083600281111561131757fe5b02179055503360026000600454815260200190815260200160002060010160016101000a81548173ffffffffffffffffffffffffffffffffffffffff021916908373ffffffffffffffffffffffffffffffffffffffff16021790555084600260006004548152602001908152602001600020600301819055508360026000600454815260200190815260200160002060040181905550826002600060045481526020019081526020016000206006018190555081420160026000600454815260200190815260200160002060070181905550610e106002600060045481526020019081526020016000206007015401600260006004548152602001908152602001600020600801819055503073ffffffffffffffffffffffffffffffffffffffff16639213b124846040518263ffffffff167c01000000000000000000000000000000000000000000000000000000000281526004016114779190611a03565b600060405180830381600087803b15801561149157600080fd5b505af11580156114a5573d6000803e3d6000fd5b5050505080600360003373ffffffffffffffffffffffffffffffffffffffff1673ffffffffffffffffffffffffffffffffffffffff16815260200190815260200160002060006004548152602001908152602001600020600082015481600001556001820160009054906101000a900460ff168160010160006101000a81548160ff0219169083600281111561153757fe5b02179055506001820160019054906101000a900473ffffffffffffffffffffffffffffffffffffffff168160010160016101000a81548173ffffffffffffffffffffffffffffffffffffffff021916908373ffffffffffffffffffffffffffffffffffffffff1602179055506002820160009054906101000a900473ffffffffffffffffffffffffffffffffffffffff168160020160006101000a81548173ffffffffffffffffffffffffffffffffffffffff021916908373ffffffffffffffffffffffffffffffffffffffff1602179055506003820154816003015560048201548160040155600582015481600501556006820154816006015560078201548160070155600882015481600801559050507fedd0243da55ff6582df5ffe3a2386a96309214a30881fc2a4263321cbb1f307b60045433878786604051611682959493929190611a47565b60405180910390a16004600081548092919060010191905055505050505050565b60006116af8235611ba6565b905092915050565b60006116c38235611bc6565b905092915050565b6000602082840312156116dd57600080fd5b60006116eb848285016116a3565b91505092915050565b6000806040838503121561170757600080fd5b6000611715858286016116a3565b9250506020611726858286016116b7565b9150509250929050565b60006020828403121561174257600080fd5b6000611750848285016116b7565b91505092915050565b6000806040838503121561176c57600080fd5b600061177a858286016116b7565b925050602061178b858286016116a3565b9150509250929050565b600080604083850312156117a857600080fd5b60006117b6858286016116b7565b92505060206117c7858286016116b7565b9150509250929050565b600080600080608085870312156117e757600080fd5b60006117f5878288016116b7565b9450506020611806878288016116b7565b9350506040611817878288016116b7565b9250506060611828878288016116b7565b91505092959194509250565b61183d81611b66565b82525050565b600061184e82611b43565b80845260208401935061186083611b36565b60005b82811015611893576118768683516118e4565b61187f82611b59565b915061014086019550600181019050611863565b50849250505092915050565b6118a881611bd0565b82525050565b60006118b982611b4e565b8084526118cd816020860160208601611be2565b6118d681611c15565b602085010191505092915050565b610140820160008201516118fb60008501826119b0565b50602082015161190e602085018261189f565b5060408201516119216040850182611834565b5060608201516119346060850182611834565b50608082015161194760808501826119b0565b5060a082015161195a60a08501826119b0565b5060c082015161196d60c08501826119b0565b5060e082015161198060e08501826119b0565b506101008201516119956101008501826119b0565b506101208201516119aa6101208501826119b0565b50505050565b6119b981611b9c565b82525050565b600060208201905081810360008301526119d98184611843565b905092915050565b600060208201905081810360008301526119fb81846118ae565b905092915050565b6000602082019050611a1860008301846119b0565b92915050565b6000604082019050611a3360008301856119b0565b611a406020830184611834565b9392505050565b600060a082019050611a5c60008301886119b0565b611a696020830187611834565b611a7660408301866119b0565b611a8360608301856119b0565b611a9060808301846119b0565b9695505050505050565b600061014082019050611ab0600083018d6119b0565b611abd602083018c61189f565b611aca604083018b611834565b611ad7606083018a611834565b611ae460808301896119b0565b611af160a08301886119b0565b611afe60c08301876119b0565b611b0b60e08301866119b0565b611b196101008301856119b0565b611b276101208301846119b0565b9b9a5050505050505050505050565b6000602082019050919050565b600081519050919050565b600081519050919050565b6000602082019050919050565b600073ffffffffffffffffffffffffffffffffffffffff82169050919050565b6000600382101515611b9457fe5b819050919050565b6000819050919050565b600073ffffffffffffffffffffffffffffffffffffffff82169050919050565b6000819050919050565b6000611bdb82611b86565b9050919050565b60005b83811015611c00578082015181840152602081019050611be5565b83811115611c0f576000848401525b50505050565b6000601f19601f83011690509190505600a265627a7a72305820a3ba5b6da0c7c88edf6b00be477c06096b4a4e4e7f9f6bed0f19a0a0b33c488b6c6578706572696d656e74616cf50037",
  "source": "pragma solidity ^0.4.24;\npragma experimental ABIEncoderV2;\n/*\n  In this implimentation, futures contracts are not fungible.\n  order creator selects expiry time\n  Contract closes one hour after expiry\n  TODO:\n      - add token pattern (DAI and ANT)\n      - how am i going to impliment the state transition function?\n      - create a helper function that builds buy order to stay DRY\n      - create a helper function that builds sell order to stay DRY\n      - create modifiers to stay DRY\n      - getOrders(), cant itterate over keys in a mapping so i need to either\n                     have to add some more variables or change the how im structuring the data\n\n*/\n\n\nimport \"../node_modules/zeppelin-solidity/contracts/math/SafeMath.sol\";\nimport \"../node_modules/zeppelin-solidity/contracts/token/ERC20/ERC20.sol\";\n\ncontract AragonFuturesOrderBook {\n  using SafeMath for uint256;\n\n  // im following the pattern ive seen elsewhere with these error messages\n  // i still dont know why this is better than just declaring the string in the require statement\n  string private constant ERROR_ORDER_DOSE_NOT_EXIST = \"ORDER_DOSE_NOT_EXIST\";\n  string private constant ERROR_NOT_OWNER_OF_CONTRACT = \"NOT_OWNER_OF_CONTRACT\"; // i need to call this something else, contract is confusing\n  string private constant ERROR_ORDER_IS_NOT_OPEN = \"ORDER_IS_NOT_OPEN\";\n  string private constant ERROR_ORDER_HAS_EXPIRED = \"ORDER_HAS_EXPIRED\";\n  string private constant ERROR_INSUFFICIENT_FUNDS = \"INSUFFICIENT_FUNDS\";\n\n\tERC20 ANT;\n\tERC20 DAI;\n\n  struct Order {\n    uint id;\n    State state;\n    address buyer;\n    address seller;\n    uint antAmmount;\n    uint daiAmmount;\n    uint antDeposit;\n    uint daiDeposit;\n    uint expiryTime;\n    uint closeTime;\n  }\n\n  enum State {OPEN, FILLED, EXPIRED}\n\n\n  mapping (uint => Order) public orderBook;\n  mapping (address => mapping (uint => Order)) public orders;\n  uint nextOrderId;\n  address owner;\n\n  event CreateBuyOrder(uint id, address maker, uint buyAmmount, uint sellAmmount, uint expiry);\n  event CreateSellOrder(uint id, address maker, uint buyAmmount, uint sellAmmount, uint expiry);\n  event FillBuyOrder(uint id, address taker);\n  event FillSellOrder(uint id, address taker);\n\n  // the constructor needs to create refrence to ANT and DAI\n  constructor () public {\n    owner = msg.sender;\n    nextOrderId = 0;\n  }\n\n  /*\n  *\n  */\n  function createBuyOrder(\n    uint _buyAmmount,\n    uint _sellAmmount,\n    uint _deposit,\n    uint _expiry\n    )\n    external\n    payable\n    {\n    // require msg.sender has enough DAI\n    // require deposit is correct ammount\n    Order storage newOrder = orderBook[nextOrderId];\n    orderBook[nextOrderId].id = nextOrderId;\n    orderBook[nextOrderId].state = State.OPEN;\n    orderBook[nextOrderId].buyer = msg.sender;\n    orderBook[nextOrderId].antAmmount = _buyAmmount;\n    orderBook[nextOrderId].daiAmmount = _sellAmmount;\n    orderBook[nextOrderId].daiDeposit = _deposit;\n    orderBook[nextOrderId].expiryTime = now + _expiry;\n    orderBook[nextOrderId].closeTime = orderBook[nextOrderId].expiryTime + 3600; // 1 hour\n\n    this._deposit(_deposit);\n    orders[msg.sender][nextOrderId] = newOrder;\n    emit CreateBuyOrder(nextOrderId, msg.sender, _buyAmmount, _sellAmmount, _expiry);\n    nextOrderId ++;\n  }\n\n  /*\n  *\n  */\n  function createSellOrder(\n    uint _buyAmmount,\n    uint _sellAmmount,\n    uint _deposit,\n    uint _expiry\n  )\n    external\n    payable\n    {\n    // require msg.sender has enough ANT\n    // require deposit is correct ammount\n    Order storage newOrder = orderBook[nextOrderId];\n    orderBook[nextOrderId].id = nextOrderId;\n    orderBook[nextOrderId].state = State.OPEN;\n    orderBook[nextOrderId].seller = msg.sender;\n    orderBook[nextOrderId].antAmmount = _buyAmmount;\n    orderBook[nextOrderId].daiAmmount = _sellAmmount;\n    orderBook[nextOrderId].antDeposit = _deposit;\n    orderBook[nextOrderId].expiryTime = now + _expiry;\n    orderBook[nextOrderId].closeTime = orderBook[nextOrderId].expiryTime + 3600; // 1 hour\n\n    this._deposit(_deposit);\n    orders[msg.sender][nextOrderId] = newOrder;\n    emit CreateSellOrder(nextOrderId, msg.sender, _buyAmmount, _sellAmmount, _expiry);\n    nextOrderId ++;\n  }\n\n  /*\n  *\n  */\n  function fillBuyOrder(uint _orderId, uint _deposit) external payable{\n    // require order exists\n    // require order OPEN\n    // require now < expiry\n    // require deposit is correct ammount\n    // require msg.sender has enough ANT\n    Order storage fillOrder = orderBook[_orderId];\n    fillOrder.seller = msg.sender;\n    fillOrder.antDeposit = _deposit;\n\n    this._deposit(_deposit);\n    orders[msg.sender][nextOrderId] = fillOrder;\n    emit FillBuyOrder(_orderId, msg.sender);\n  }\n\n  /*\n  *\n  */\n  function fillSellOrder(uint _orderId, uint _deposit) external payable{\n    // require order exists\n    // require order OPEN\n    // require now < expiry\n    // require deposit is correct ammount\n    // require msg.sender has enough ANT\n    Order storage fillOrder = orderBook[_orderId];\n    fillOrder.buyer = msg.sender;\n    fillOrder.daiDeposit = _deposit;\n\n    this._deposit(_deposit);\n    orders[msg.sender][nextOrderId] = fillOrder;\n    emit FillSellOrder(_orderId, msg.sender);\n  }\n\n  /*\n  *\n  */\n  function transferContract(uint _id, address _to)external {\n    //how do i test for a null entry\n    require(orderBook[_id].buyer == msg.sender || orderBook[_id].buyer == msg.sender, ERROR_NOT_OWNER_OF_CONTRACT) ;\n    // remove key from orders of message sender\n    delete orders[msg.sender][_id];\n\n    // change key from msg.sender to _to\n    if(orderBook[_id].buyer == msg.sender){\n      orderBook[_id].buyer == _to;\n    }\n    if(orderBook[_id].seller == msg.sender){\n      orderBook[_id].seller == _to;\n    }\n\n    orders[_to][_id] = orderBook[_id];\n  }\n\n  /*\n  *\n  */\n  function cancelOrder() external{}\n\n  /*\n  *\n  */\n  function completeOrder() external payable{}\n\n  /*\n  *\n  */\n  function claimTokens() external payable{}\n\n  /*\n  *\n  */\n  function claimDeposit() external payable{}\n\n  /*\n  *\n  */\n  function getOrders(address add) external view returns(Order[]){\n\n  }\n\n  /*\n  *\n  */\n  function _transitionState() internal{}\n\n  /*\n  *\n  */\n  function _deposit(uint _ammount){}\n}\n",
  "sourcePath": "/home/student/projects/aragon-futures/contracts/AragonFuturesOrderBook.sol",
  "compiler": {
    "name": "solc",
    "version": "0.4.24+commit.e67f0147.Emscripten.clang"
  },
  "schemaVersion": "3.0.11",
  "updatedAt": "2019-07-15T14:37:10.499Z",
  "devdoc": {
    "methods": {}
  },
  "userdoc": {
    "methods": {}
  }
}